:1000000000000320D10100006962020021620200A9
:1000100021620200216202002162020021620200CC
:100020002162020021620200216202006962020074
:100030006962020021620200A1880200E5880200D4
:10004000696202006962020069620200696202007C
:10005000696202006962020069620200696202006C
:10006000696202006962020069620200696202005C
:10007000696202006962020069620200696202004C
:10008000696202006962020069620200696202003C
:10009000696202006962020069620200696202002C
:1000A000A15B0200DD5C020069620200696202007D
:1000B000696202006962020069620200D174020092
:1000C00069620200696202006962020069620200FC
:1000D00069620200696202006962020069620200EC
:1000E00069620200696202006962020069620200DC
:1000F00069620200696202006962020069620200CC
:10010000E18A0200F58A0200098B02001D8B0200C1
:10011000696202008178020069620200696202007D
:10012000696202006962020069620200696202009B
:10013000696202006962020069620200696202008B
:10014000696202006962020069620200696202007B
:10015000696202006962020069620200696202006B
:100160006962020069620200195E020069620200AF
:10017000696202006962020069620200696202004B
:1001800069620200E53D02006962020069620200E4
:10019000696202006962020069620200696202002B
:1001A000696202006962020069620200696202001B
:1001B000696202006962020069620200696202000B
:1001C00069620200696202006962020069620200FB
:1001D0005C4B4CF2205210B51A804DF628121A8052
:1001E00000BF00BF26F044F8574B4FF030621A6052
:1001F000564A9A60564ADA60564B4FF470021A60BB
:10020000554B564A1A60564B1A78110703D51A787F
:1002100042F008021A70534B5349AA221A70534AEB
:10022000534B8B4204D252F8040F43F8040BF8E707
:10023000504B514900228B4202D243F8042BFAE77B
:100240004E494F4A002352F8230041F8230001335E
:10025000742BF8D14B4B4C4A802103F8011B93427D
:10026000FBD14A4B454A1A60494B8A221A70A3F5C2
:10027000805324225A70A0221A709A799207FCD5D2
:100280009A79D406FCD4434A937903F00C03082BE3
:10029000FAD1414B60221A7002331A78802AFCD1BD
:1002A0003C4B00221A714E225A719A799006FCD565
:1002B0009979384A4906FBD5384B394919600821E4
:1002C000596020231370937903F00C030C2BFAD19F
:1002D000344B354A1A60354A354C136813F4807331
:1002E00003D123604FF4A8531360324B324A1A6093
:1002F00000225A60072243F8042C304AC3F80C2D20
:1003000062B626F0BDF82368DA0705D52C4826F03A
:10031000A3F82C4B2C4A1A602C4B1B785B0609D592
:10032000284C294B22689A4204D1254826F094F89B
:100330000023236025F0A2FF2DF000F829F0D2F869
:10034000FEE700BF0E20054030800440823F0400DD
:100350000100002B88ED00E0002008E0030000858C
:1003600002D0074000E00740D8CCFF1F18C40600A9
:100370003007FF1FD8CCFF1F147902200002FF1F97
:100380000000000000E400E064E400E008ED00E0AC
:10039000005006400040064001E007404480044011
:1003A0000000070304800440C010050010D0034083
:1003B00014D0034014E000E07FA9030000002020D7
:1003C00065BD12621CE00340A5C3945A00F00740CB
:1003D000FFFFFFFFFFFFFFFFFFFFFFFFFFFFFFFF2D
:1003E000FFFFFFFFFFFFFFFFFFFFFFFFFFFFFFFF1D
:1003F000FFFFFFFFFFFFFFFFFFFFFFFFFFFFFFFF0D
:10040000FFFFFFFFFFFFFFFFFFFFFFFFDEF9FFFF23
:1004100010B5054C237833B9044B13B10448AFF33E
:1004200000800123237010BDD8CCFF1F0000000006
:1004300014C40600084B10B51BB108490848AFF3B7
:1004400000800848036803B910BD074B002BFBD0A0
:10045000BDE81040184700BF00000000DCCCFF1FC3
:1004600014C40600D8CCFF1F000000000020704715
:10047000704700BF0A4B0B4A1B680B480B4902EB45
:10048000431251F82310D2F8C42250F822201268E7
:100490008A42074A1344CCBF012200221A717047D6
:1004A000E06B0220B8B8FF1FF4AAFF1F08700220FB
:1004B000BC540020084B094A1B680949094802EB53
:1004C00043120344D2F8C42251F822201268C2F326
:1004D00040321A71704700BFE06B0220B8B8FF1FAE
:1004E000F4AAFF1FBC540020094A0A4B12680A49AB
:1004F00002F1160003EB401358681B7A51F82010E4
:100500009942064B1A440CBF012300231371704714
:10051000E06B0220B8B8FF1F90D0FF1FBC54002032
:100520001F4B20491B68204A51F82300115C70B40E
:10053000B9B91E491E4C54F82340125D62B3002223
:1005400041F823201B491C4D51F823101B4C285CFB
:1005500021FA02F2234402F0010202401A7170BC37
:1005600070471249164E174D51F8234056F8236034
:1005700055F823500134B44228BF45F0010541F835
:100580002340002DD6D0002441F82340084C54F8D5
:100590002340125D002AD2D111F82320D2E700BFF8
:1005A000E06B0220EC6E022044650220006B02200A
:1005B000E855002044DCFF1FA0700220BC5400203E
:1005C000FC640220C0D7FF1F134B144A1B68144859
:1005D00003F1160102EB411230B45568114C50F88A
:1005E000231054F82540926825680F4C491B0029B8
:1005F000B8BF494291420D4A1A44CCBF01210021A3
:10060000117154F823202A449111521A44F82320DE
:1006100040F8231030BC7047E06B0220B8B8FF1FD1
:10062000C0D7FF1FF4AAFF1FF0D7FF1FBC54002044
:10063000074B084A1B68084952F8232010B4074C9E
:10064000885C0A79234402401A715DF8044B7047B4
:10065000E06B0220EC6E0220A0700220BC5400204F
:100660001B4B1C4A1B681C4970B41A441B4C92F962
:10067000252051F82300A25C82421DD002B3184C01
:10068000184E194D04EB431455F82300D4F8C44216
:1006900056F824402468002C00F10100B8BF6442E1
:1006A000B0EBE42F45F8230006DD10480024184481
:1006B000012645F82340067141F8232070BC70479D
:1006C0000A4841F82320184470BC0271704700BFEB
:1006D000E06B022084A6FF1FC0D7FF1FA07002207E
:1006E000B8B8FF1FF4AAFF1F68DDFF1FBC5400202D
:1006F000094B0A4A1B78107082B08342019109D1DC
:1007000007EE901A064B0749F8EEE77A0122C1ED91
:10071000007A1A7002B070477CB6FF1FF05F0020AD
:100720003DDFFF1F486C0220014B01221A70704709
:1007300034D5FF1F704700BF194A1A4B11681A4A77
:1007400053F82100194B52F82020194853F8213052
:10075000126850F82110174803FB02F3C90110B4C6
:1007600001EBA323006803F30E02134C54F820306E
:1007700003FB02F39B1303F30E0303FB03F1C91303
:1007800003EB630203FB01F3A2EBA3334FF25842E6
:1007900002FB03F3DB1344F820305DF8044B704791
:1007A000E8D7FF1F446A0220F4AAFF1F0C6C022046
:1007B0003C530020D0DDFF1FECD4FF1F174A184B1D
:1007C0001268184953F82200174B51F820101748A7
:1007D00053F82230096850F8222003FB01F170B46D
:1007E00002EB614181F30801114B124C1D68124E5E
:1007F00054F8253003F50040C010C1F1FF0236F96E
:10080000100003FB02F3C0001A1201FB00F302EB1D
:10081000232344F8253070BC704700BFE8D7FF1F82
:10082000446A0220F4AAFF1F0C6C02203C530020F3
:10083000D0DDFF1FECD4FF1F2C1803006E4A6F4B56
:100840002DE9F04F15686E4A53F825106D4B52F89C
:1008500021106D4A53F82530096852F82520A3F578
:10086000806302FB01F21B0187B003EBA22202F3BB
:100870000F026649664B0E68DFF8AC916549664821
:1008800051F8261053F82530019147F2481707FB1D
:1008900002F259F82670614C50F8261054F82540A1
:1008A00007FB03F3019F4FEAE7084F1CB7EB241F38
:1008B0004FEAE23208EB232840F28D8050230027D4
:1008C00005934023049340F82670302303934FF0A0
:1008D000200E4FF0100CF4025148524B274453F8AD
:1008E000255030F917A00295554204EB010B0AFB85
:1008F00005F308EBE33320F81B30A44403FB02F3B9
:1009000030F91CC0059F01F1100BA3440AEBE33A38
:100910000CFB05F30AEBE33A20F81BA0A6440AFB04
:1009200002FA30F91EE0039B01F1200BA3440CEB0B
:10093000EA3C0EFB05FA0CEBEA3C20F81BC0234412
:100940000CFB02FC30F91380049B01F1300BA34433
:100950000EEBEC3E08FB05FC0EEBEC3E20F81BE03A
:1009600023440EFB02FE30F9133001F1400BA34487
:1009700008EBEE3803FB05FE08EBEE3820F81B8091
:10098000274408FB02F830F917A0019F0AFB05F580
:1009900003EBE83303EBE533029D03FB02F2C5F101
:1009A000FF0550310AEBE2320C4407FB05F70299D0
:1009B00020F814304FEAC20E3D46164B01FB0EF7ED
:1009C0002912D21001EB272749F8262043F8267078
:1009D00007B0BDE8F08F01F13103039301F141034A
:1009E000049301F1510340F8267001F1110C01F15B
:1009F000210E05936FE700BFE8D7FF1F446A02206E
:100A0000F4AAFF1F485300200C6C0220D0DDFF1F0A
:100A100060530020ECD4FF1F68CFFF1F5453002009
:100A2000F8E2FF1F3C530020ECE1FF1F164B174973
:100A30001A68F0B4164C8B5C54F8225007EE905AAA
:100A4000F8EEE77AF5EEC07AF1EE10FA4CBF01202D
:100A50000020834213D00F4B0F4E1F680F4B56F8E8
:100A600027700F4E53F827301B6846F8223003FBDF
:100A700005F3DB1344F822308854F0BC7047084B70
:100A800053F82230F3E700BFD0DDFF1F28550020C8
:100A9000ECD4FF1FE8D7FF1F446A0220F4AAFF1F0F
:100AA000ECE1FF1F1B4B1C4A1B681C4952F823003A
:100AB0001B4A51F820101B4852F82320096850F8AF
:100AC000233002FB01F2DB0130B403EBE22282F3BC
:100AD0000F02154B154C1D6854F8251045F2F053C4
:100AE00003FB01F302EBE33303F30E0303FB03F019
:100AF000C01303EB630103FB00F3A1EBA333A3EBF0
:100B0000A20303FB02F203EBA23344F8253030BC0E
:100B1000704700BFE8D7FF1F446A0220F4AAFF1FF6
:100B20000C6C02203C530020D0DDFF1FECD4FF1FD3
:100B3000234A244B1068244A53F82010234B52F8C0
:100B40002110234A096853F8203052F8202003FB73
:100B500001F3920470B402EBC30383F31D031D4A37
:100B60001D4C116854F821201A44934244F8212066
:100B70001ED91A4B1A4D53F8203055F82140194E02
:100B80005B11083344FA03F202FA03F346F821300A
:100B9000154A52F8202003FB02F3C2F1FF001A129B
:100BA00004FB00F302EB232345F8213070BC7047AF
:100BB0000B4D0C4B55F8214053F82130E8E700BFAE
:100BC000E8D7FF1F446A0220F4AAFF1F0C6C022022
:100BD00048530020D0DDFF1F0CCEFF1F54530020D0
:100BE000ECD4FF1FECE1FF1F3C530020174B184AC9
:100BF0001B68184952F82300174A30B451F82040B6
:100C000016481749256852F823200468154851F8FA
:100C1000231050F8243002FB05F201EBE23203FB13
:100C200002F203EB6212930393EAC23248BFC3F1AC
:100C300000435B1403FB03F2D212C2F5C03203FB84
:100C400002F39B1340F8243030BC7047E8D7FF1FF5
:100C5000446A0220F4AAFF1F0C6C0220D0DDFF1FA3
:100C60003C530020ECD4FF1F1D4A1E4B12681E4946
:100C700053F822001D4B51F820101D4853F8223024
:100C8000096850F8222003FB01F3D20110B402EBF3
:100C9000A32383F30F03174A1748146850F824203E
:100CA00082EAE271A1EBE271994213DB07EE902A2E
:100CB000F8EEE77A03FB02F1C913F5EEC07AF1EE24
:100CC00010FA11444CBF5B18CB1A40F824305DF881
:100CD000044B7047002340F824305DF8044B704704
:100CE000E8D7FF1F446A0220F4AAFF1F0C6C022001
:100CF0003C530020D0DDFF1FECD4FF1F4B4B4C4A70
:100D00004C494D4809682DE9F0471F684B4B52F894
:100D1000272053F822204A4B146850F8212053F81A
:100D200027300132B2F5006F28BF002240F82120A1
:100D3000444803FB04F350F827001B140344032B1F
:100D400071DD40F2FF7E9E45A8BF9E463E483F4C67
:100D500050F8216054F82150B31003EBA50303F3BE
:100D60000E0303FB03F5ED1303FB05F503EB630330
:100D70004FEAC12CA3EBA5334FF25845DFF8D890CA
:100D8000DFF8D880CEEB020E05FB03F36244DB13E1
:100D900029F81230CEF30A0E2D4B58F8272053F8BD
:100DA00027802C4BE64453F8273039F91EC0DFF872
:100DB000B0E04FEA4C074FEA481803FB07F9C8F5C3
:100DC000FF5C5EF821300CF11F0CC2F1FF0A03FB3F
:100DD0000CFC02FB07F24FEA292906FB0AF3521228
:100DE00008FB09F8DFF87CA04FEA6C3602EB2323FE
:100DF00006EB68325B104AF8217044F821204EF867
:100E0000212003F30E0303FB03F4E41303EB63025B
:100E100003FB04F3A2EBA33305FB03F3DB1340F85E
:100E20002130BDE8F0874FF0040E8FE7E8D7FF1FB1
:100E3000446A0220D0DDFF1F68CFFF1FF4AAFF1F06
:100E40000C6C022048530020ECD4FF1F3CD6FF1F3F
:100E50006053002054530020F8E2FF1F3C53002051
:100E6000ECE1FF1F24D0FF1F214B224A22491068CA
:100E7000F0B5D3F800E0214D214B55F8206053F830
:100E80002E20204B51F8207053F822201E4BD2F810
:100E900000C053F82E2086EAE674A4EBE674013411
:100EA0002744A30A02FB0CF20833B7FBF3F3FF1A43
:100EB000A3F57F5341F820703F3B911203F30E03DB
:100EC000124A52F82E2001EB022282F30F02C2F5E1
:100ED000004106FB01F65B0002FB03F30C49F21331
:100EE00002EBE33345F8203041F82040F0BD00BF6D
:100EF000E8D7FF1FD0DDFF1FECE1FF1FECD4FF1F81
:100F0000446A0220F4AAFF1F0C6C02203C5300200C
:100F100084CFFF1F4F4A504B50482DE9F04F1668C1
:100F20004F4A53F826104F4B52F8212053F82630E1
:100F300011680468DFF84CA14B4A5AF8247052F843
:100F4000262003FB01F35B0103F31C03474D4848D4
:100F5000484955F82650006851F8261000FB05F561
:100F6000890501EB052585F31E0523F0784000F186
:100F70000060C00050FB10F03F4950FB11F00139F8
:100F8000DB1601EBC000C3F1060340FA03F355FB87
:100F900013F33A49DFF8F0C051F8260038495CF8FD
:100FA00024508B42C0F5006EA8BF0B4605FB0EFE19
:100FB0004FEAA508190208EB2E3551FB17F0DFF8B0
:100FC000CC8058F82430184452FB17FEDFF8C0904C
:100FD00059F824302B44C0EB6303CEEB030351FBE1
:100FE00013FEBE4451FB1EF7074452FB1EF2C7EB33
:100FF000050BC2EB0B0251FB12F1DFF898B05BF866
:101000002660803E86F307061A4406FB02F2C6F10C
:101010007F033844921200FB03F3C2EBA32303F3D4
:101020000E0303FB03F0C01303EB630203FB00F3A7
:10103000A2EBA3334FF2584202FB03F37144DB13DC
:101040004AF8241049F8245048F824704CF8243009
:10105000BDE8F08FE8D7FF1F446A0220D0DDFF1FF4
:10106000F4AAFF1F0C6C0220386502206053002098
:10107000045500203C530020ABAAAA2A4853002064
:10108000E7105200D4E2FF1FECD4FF1F686A022071
:10109000E06A0220545300200B4A0C4B116853F8AD
:1010A000213093EA430248BFC3F100435B1403FBC2
:1010B00003F2D212C2F5C03203FB02F3044A5B14FE
:1010C000DB0042F82130704740CEFF1FD06A02207B
:1010D0001C6D0220084A094B1268094953F8223056
:1010E000DB0BA3F58033002BB8BF5B42A3F50043B5
:1010F00041F82230704700BF40CEFF1FD06A022067
:101100001C6D0220054A064B1268064953F822302E
:101110001B0CA3F5004341F82230704740CEFF1F5F
:10112000D06A02201C6D0220054A064B126806494F
:1011300053F822301B0CC3F5004341F822307047AE
:1011400040CEFF1FD06A02201C6D02200E4A0F4BBA
:10115000116853F821305B0803F1004393EA43021E
:1011600048BFC3F100435B1403FB03F2D212C2F584
:10117000C03203FB02F39B13054A002BB8BF5B424E
:1011800042F82130704700BF40CEFF1FD06A0220D6
:101190001C6D0220144A154B116853F821305B086E
:1011A00003F1804393EA430248BFC3F100435B1459
:1011B00003FB03F2D212C2F5C03203FB02F39B130E
:1011C000002BB8BF5B42C3F5FF437F3303F30F032C
:1011D0005A0003FB02F21B0452FB13F3044ADB1315
:1011E00042F82130704700BF40CEFF1FD06A022076
:1011F0001C6D02200C4A0D4B106853F8201047F666
:10120000FF73A3EB514101F30F014B0001FB03F20C
:101210000B0452FB13F3DB135B00054AA3F50043F9
:1012200042F82030704700BF40CEFF1FD06A022036
:101230001C6D0220034A044B1268002143F822105F
:10124000704700BF206A0220ECD4FF1F4B4B186888
:101250002DE9F04710F0010740F08E80484BDFF891
:1012600044911A78474B59F822101D68DFF83881ED
:10127000DFF838C1DFF838E1434C4B01E9B258F8E8
:1012800003302468C1EB4111AE0001EB030A06F400
:101290007F766B00324403F4FF73D5185CF82AA004
:1012A0005EF82550DAF8002002FB05F5374A4FEAD0
:1012B000E52A52F824500AEB550585F30F05DFF8AF
:1012C000F4A09AF800A059F82A904FEA491933443B
:1012D00058F8096031449A445CF821305EF82A10CD
:1012E0001B6803FB01F3A11CDB1252F8212003EB66
:1012F000520383F30F03264A264E11680131B1F5DC
:10130000004F26BF176039461160002C14BF00271C
:10131000022756F8272056F82060521006FB03F3E8
:1013200002EB234303F30E031B4E03FB03FE0D44AA
:101330004FEAEE3EA5FB066703EB630203FB0EF3E9
:10134000A2EBA333EA1B07EB5202E4034FF2584629
:10135000920B214406FB03F3104F114EC2EBC23235
:10136000DB13AA1A27F811302244411C37F9123036
:1013700046F8213046F82030BDE8F087206A022088
:1013800034550020985F0020B864022070D0FF1F01
:1013900024CDFF1F486B022005000200606400207E
:1013A000ECD4FF1F9CAFFF1FB8B8FF1FF4AAFF1FAC
:1013B00000DCFF1F385500200B4B0C4A1B681268DD
:1013C0000B480C49002B10B408BF022302F00104A3
:1013D00018BF002323445DF8044B50F823305B0012
:1013E00041F82230704700BFB8640220206A022012
:1013F000486B0220ECD4FF1F594B5A4A18685A49CF
:101400002DE9F04FC3B2594FD25C594C57F8222006
:1014100054F82040166883B0002E25460194D4BFAE
:101420000024012403EB840386EAE672A2EBE67251
:1014300051F8233033FB02F3C2F5FF427F3235FB14
:1014400002F24C49DFF8489191F800B04A4959F846
:101450002B400968494D4A4ED5F80080DFF834A189
:1014600064015FFA81FE34594FEA4E159E18CEEBA7
:10147000050CA44486EAE6738C0004F47F744900EA
:10148000A3EBE6735AF8206001F4FF72A3443344DF
:1014900057F82C103B4E4AF820309344096856F810
:1014A0002B6001FB06F6DFF8F0C008F102015CF8E2
:1014B000211001EB662686F31006DFF8E0A05AF84B
:1014C0002010760001FB063393EA430148BFC3F1C5
:1014D00000435E1406FB06F3DB12C3F5C03B06FBBC
:1014E0000BF32949264E91F800B059F82B10490109
:1014F000CEEB050571584FEA63490D44224409EBD0
:10150000E343934457F825104AF820301D4A0B68EE
:1015100052F82B2003FB02F35CF8282002EB632334
:10152000019A09FB03F31B13C2F1004253FB02F3C0
:1015300099444FEA494393EA894248BFC3F10043C3
:101540005B1403FB03F2D212C2F5C03203FB02F3B9
:101550000E4A9B1342F8203003B0BDE8F08F00BF65
:10156000206A0220DCE1FF1F20E0FF1FF4AAFF1F1A
:1015700040D0FF1F38550020985F0020B86402203B
:10158000B8B8FF1F00DCFF1F34550020ECD4FF1F4C
:101590009CAFFF1F6864022070D0FF1F14CDFF1F97
:1015A0006D4B6E4A1B7812682DE9F04FDFF8D4912D
:1015B000DFF8D48159F82310694C6A4F4901D5B23C
:1015C00058F801002168C5EB45152844960057F8E6
:1015D00020000C4606F47F765100334401F4FF717D
:1015E0005A180368604883B050F8222003FB02F2C7
:1015F0002346DFF898B10194023392015BF823305F
:1016000002EBC33282F31F025848594B0468DFF8DB
:1016100080C15FFA84FA520013F80A0057F82000DC
:101620000368002BD4BF4FF0000E4FF0010E83EA89
:10163000E3700AEB8E0EA0EBE3704E4B53F82E30A6
:1016400033FB00FE4C4BC0F5FF407F3053F8243095
:1016500033FB00F0494B93F800A059F82A304FEAC9
:101660004319314458F809603544514457F825600E
:101670003D4D55F82150316801FB05F5019B5BF8A4
:1016800023106D1205EB510585F30F0500EB0E03DA
:1016900083EAE370A0EBE3705CF82430C0100344ED
:1016A00000EB030803F1804A190C4FEA1A4A00EBD9
:1016B0000803A1F5802100EB030BAAF5802A01EBBA
:1016C000184108F180480AEB184903F1804E00EBFD
:1016D0000B0A01EB134109EB1E4802EB0A0600EB73
:1016E0000A0901EB1B410BF1804E02EB090A08EBE2
:1016F0001E4E01EB164100EB090806F180460EEB89
:10170000164701EB1A410AF18043404402EB080EF0
:1017100007EB1346171801EB1E420EF1804106EB52
:10172000114302EB174207F1804103EB1141524292
:101730004942D210C91005FB02F2C5F50043D2138D
:1017400003FB01F30E494CF8240002EBE33341F8AC
:10175000243003B0BDE8F08F38550020985F00209A
:10176000B8640220F4AAFF1F00DCFF1F206A0220D9
:10177000DCE1FF1F20E0FF1F40D0FF1F3455002099
:10178000ECD4FF1F9CAFFF1FB8B8FF1F70D0FF1F26
:1017900068640220684B694A1B78126868482DE922
:1017A000F04FDFF8C881DFF8C8E158F8231000686F
:1017B000644E4901D7B283B05EF8011000907D01FC
:1017C000E81B0144940056F8211004F47F74520081
:1017D000234402F4FF7201929A180B685A4951F897
:1017E000222003FB02F200985849831C920151F811
:1017F000233002EBC33282F31F025200B2F1806F3A
:10180000C0F096806FF0806000230021904271EB61
:10181000030CC0F28B804E4B4E49D3F800C04E4BA8
:10182000DFF850915FFA8CFA11F80A1056F821107F
:10183000D1F800B0BBF1000FD4BF002001200AEBAB
:1018400080008BEAEB71A1EBEB7153F8200030FBC9
:1018500001F0424BC1F5FF417F3153F82C3033FB8F
:1018600001F13F4B084480EAE07193F800A059F879
:101870002C30A1EBE071C91003EB010B01EB0B0065
:1018800058F82A3090424FEA431894BF00230123AE
:101890000844934588BF0133904288BF0133084410
:1018A000904288BF01335EF808E00844904288BF48
:1018B0000133ED1B0844019F904288BF01337544FA
:1018C00008440144904288BF01333C44914294BF94
:1018D0001A465A1C56F825501B4B2D6849F82C10F7
:1018E0005444520353F8243005FB03F3174900987E
:1018F00051F820109B1203EB910383F30E03194858
:10190000194C50F82C10C833A2F5004203FB02F228
:10191000C3F58043921301FB03F302EBA33340F8BA
:101920002C3044F82C3003B0BDE8F08F024672E74B
:101930004FF080626FE700BF38550020985F0020AD
:10194000B8640220F4AAFF1F00DCFF1F70D0FF1F45
:10195000206A0220DCE1FF1F20E0FF1F40D0FF1FB4
:1019600034550020A4E1FF1FECD4FF1F9CAFFF1FE4
:10197000B8B8FF1F686402204E4BDFF868C11B78BF
:101980004D4A5CF8231012682DE9F04349014B4C95
:101990004B4F61584B4E4C4DD0B24FEA8208C0EBD2
:1019A000401000EB010E520008F47F710B4402F46A
:1019B000FF7257F82EE02D68DEF800E0134456F869
:1019C00023300EFB03F8414BDFF81CE193F8009045
:1019D0005CF829305B014944E358AC1C18440A44C4
:1019E00057F820305EF824101B6856F822004FEAA2
:1019F000081404EB014403FB00F05EF8253003EB10
:101A00006020A0F35000324A324B15683249EAB2E6
:101A10009B5C57F823301B68002BD4BF002601269F
:101A200002EB8602002BB8BF5B4251F8221031FB5B
:101A300003F12A4AC3F5FF437F3352F8252032FBD6
:101A400003F3DFF8A8E0194400295EF82520B8BFA9
:101A500049420A4457086FF00043161B1C46DB1B23
:101A60004F10BB424FEA560C4EF82520CCEB040435
:101A7000B7BF4A14120C93FBF2F222F0FF02BC42F1
:101A8000B6BF4914340C94FBF1F4A2F50042B8BF80
:101A900024F0FF0400FB02F2A4F50044C0F500436B
:101AA000D21303FB04F30E4902EBE33341F8253074
:101AB000BDE8F08338550020985F0020B8B8FF1FBC
:101AC000F4AAFF1F00DCFF1FB86402203455002079
:101AD000206A0220DCE1FF1F20E0FF1F40D0FF1F33
:101AE000ECD4FF1F9CAFFF1F70D0FF1F6864022063
:101AF0006B4BDFF8D8C11B786A4A5CF82310126878
:101B0000694849012DE9F04FD6B24158674D74013B
:101B1000A01B0144970007F47F7055F82110520074
:101B2000034402F4FF7E03EB0E0283B00B686049AE
:101B3000019051F8222003FB02F25E4B5E491B68C4
:101B40000233920151F8233002EBC33282F31F02B9
:101B50005200B2F1806FC0F09D806FF08060002372
:101B60000021904271EB0307C0F297805349544B18
:101B70000868DFF85CA1DFF85C815FFA80FB00F1A8
:101B8000040913F80B3058F8291055F823301B6856
:101B90000093002BD4BF002701270BEB8707002BF6
:101BA000B8BF5B425AF8277037FB03FADFF828B159
:101BB000C3F5FF437F335BF8207037FB03F3414FDE
:101BC0003F785CF827C0A41B4FEA4C1C364E56F8F1
:101BD0000C603444019E55F82440354D2468764409
:101BE000374455F8276004FB06F4534483EAE37A4C
:101BF000AAEBE37A5BF8296058F82030324D4FEABF
:101C0000AA0A03EB0A072644BA4588BF0021B6108A
:101C100031440AEB0704914294BF4FF0000E4FF09D
:101C2000010EA24588BF002194420AEB040331440F
:101C300094BF00240124974288BF0134914288BF99
:101C40000EF1010E9A4588BF00210AEB03073144CB
:101C5000934294BF2346631C974288BF013391424D
:101C600088BF0EF1010EBA4588BF00210E445B0308
:101C7000C3F50043964294BF72460EF10102A3EBF6
:101C8000423248F8207045F8202048F8296003B017
:101C9000BDE8F08F4FF0806268E7024666E700BF5C
:101CA00038550020985F0020B8B8FF1FF4AAFF1F26
:101CB00000DCFF1FB864022070D0FF1F206A0220E2
:101CC000DCE1FF1F34550020ECD4FF1F9CAFFF1F49
:101CD00020E0FF1F6864022040D0FF1F704B714A54
:101CE000D3F800C070492DE9F04F5FFA8CF3DFF8AC
:101CF000E091D25C59F822201268002AD4BF00205B
:101D0000012003EB8003002A87B0B8BF524251F88C
:101D1000234034FB02F4654BC2F5FF427F3253F897
:101D20002C3033FB02F2624B624918780D68DFF801
:101D3000A4A161495AF820300968604E01910F460C
:101D40005B0156F82C105E4E5FFA85F8F3584FEAA7
:101D5000481622444FEA850B05963C46C8EB06061A
:101D60000BF47F7E002A33444FEA450B554E59F859
:101D7000233004F1020470440BF4FF75B8BF5242E3
:101D800056F824401B6828440A444F49240451F85B
:101D9000201003FB01F304EB43139C4275D96FF051
:101DA000050304936FF0030303936FF001030293A1
:101DB0006FF007066FF006046FF004016FF0020089
:101DC0004FF0FF33DFF810B1059F9BF800B05AF8D1
:101DD0002BA0C8EB07084FEA4A1A394F57F80AA058
:101DE000D044F34459F82880AB44374DD8F80080EC
:101DF00055F82B9008FB09F8324F019D57F82590B4
:101E00004FEAC80808EB893808F31E08029D114400
:101E10001544C8EB0101AE46C90CC64401EBDE4EC9
:101E20000499134411440EEBD34E1044039B4044D9
:101E30000D464FEA680114440D4413440844C8EBAE
:101E400004090EEBD040C8EB05044FEAA80E1F466C
:101E500000EBD44593194744CEEB0904A3EB4803A8
:101E60000F4405EBD44404EBD34607EB0E0306EB1B
:101E7000D34316491148C3F5FF437F3340F82C2064
:101E800041F82C3007B0BDE8F08F5900C818440065
:101E90000291DE009900039104941944F41A91E729
:101EA000206A0220DCE1FF1F20E0FF1F40D0FF1F5F
:101EB00038550020985F0020B86402206864022032
:101EC000B8B8FF1F70D0FF1F00DCFF1FECD4FF1F4E
:101ED000F4AAFF1F9CAFFF1F345500201D4B1E4A64
:101EE00018681E4910B4C3B21D4CE45C52F824209B
:101EF0001268002AD4BF0024012403EB8403002AC3
:101F0000B8BF524251F8233033FB02F31549C2F5F2
:101F1000FF427F3251F8201031FB02F21249134484
:101F2000002B51F82020B8BF5B42134441F8203009
:101F30004FF47A525B0C03FB12220021D21303FBF5
:101F40000123DB1303F30E03084A5DF8044B42F848
:101F500020307047206A0220F4AAFF1F20E0FF1FF4
:101F6000DCE1FF1F40D0FF1F68640220ECD4FF1F9C
:101F7000524A534B106853492DE9F04FC2B2524FA9
:101F80009B5C57F823301D68002DD4BF002401242A
:101F900002EB840285EAE57383B0A3EBE57351F8A5
:101FA000221031FB03FE494AC3F5FF437F3352F849
:101FB000201031FB03F3464ADFF830A192F800C04D
:101FC000444A5AF82C401268DFF82491DFF8248143
:101FD000414D6101D4B259F801102D68C4EB44148D
:101FE0009600214406F47F765200B44402F4FF7256
:101FF000734457F821B0944483EAE371A1EBE37191
:1020000058F82CE0DBF8003003FB0EFEDFF8E8C0E8
:102010005CF825304FEA8E0E0EEB832E8EF31C0EED
:102020002E4B1B785AF823A04FEA4A1A324459F82B
:102030000A603444134457F8242058F823301268B7
:1020400002FB03F2023592005CF8253002EB83229A
:1020500082F31C02224D234E234F4FEA401C05EB16
:102060000C0955F80C3073440B4445F80C30D9F882
:1020700008400194D308D9F8044003EB9E0323449D
:10208000019C14440C440B44C9F80430C9F80840BE
:1020900055F80C20D20F82EAD37356F82020114451
:1020A00083EAD17383EAD4731B04A3F5004346F893
:1020B000201047F8203003B0BDE8F08F206A0220DE
:1020C000DCE1FF1F20E0FF1FF4AAFF1F40D0FF1F2D
:1020D00034550020985F0020B86402203855002055
:1020E0001C70022068640220ECD4FF1F9CAFFF1F0D
:1020F000B8B8FF1F00DCFF1F70D0FF1F994B9A4A32
:102100001878DFF89CC299492DE9F04FDFF89482E6
:10211000166858F82030964DDFF88CE209685B01AC
:10212000F2B25CF80370C2EB4212B400174404F43C
:102130007F747300204403F4FF73C61855F82770AA
:102140005EF82660386800FB06F08A4F57F8216079
:10215000801200EB560080F30F00874E367858F857
:1021600026804FEA481823445CF8084022441E4465
:1021700055F822305EF826201B6803FB02F302317B
:102180001B1357F8212003EBD20383F30D037B4B82
:102190007B4A19687B4F7C4ECBB256F82140D25C0B
:1021A00055F822201268002AD4BF0025012503EB30
:1021B0008503002AB8BF524257F8233033FB02F39D
:1021C000724DC2F5FF427F3255F8215035FB02F2C5
:1021D0001344002BB8BF5B42E41853D2DFF8CC8124
:1021E0006B4D58F82120DFF8C8C1B4EB424F26D917
:1021F000DFF8A8E1DFF8A0915EF8217007F1010A8D
:1022000021374EF821A059F827E059F82A70DFF855
:10221000A491C0F5FF4A0EFB00FE0AF17F0A4FEAC7
:10222000EE3E07FB0AF70EEBE73749F82120BA1814
:1022300047F6FF7E40F09080012248F821205B1095
:1022400003EB5403B3F1004F41D900220CF80120F5
:10225000134645F8212046F8214003F30E0303FB03
:1022600003F0C01303EB630203FB00F3A2EBA33301
:102270004FF2584202FB03F3464ADB1342F8213087
:10228000BDE8F08F444ADFF82CE1D2F88070126884
:10229000DFF81881DFF80491DFF814C1C0F5FF45BD
:1022A0007F3507FB00F7FF1302FB05F207EBE23275
:1022B000374D48F8212000274EF821704FF0010ECD
:1022C00049F8217045F821700CF801E08DE71CF801
:1022D0000130002B44D0314BDFF8DCB053F821C083
:1022E000DFF8B4805BF82CE058F82C90DFF8C4A03D
:1022F0000CF120020CF121070CF1010C5BF82230EB
:102300005BF8277058F822205BF82CC05AF821801F
:10231000C0F5FF4A03FB00F30AF17F0A07FB00F751
:102320004FEAA32B02FB00F00EFB0AFEBF120CFBD0
:102330000AF30BEBAE2E07EBA32309FB0AF9C0133C
:10234000C8EB5448CEEB030300EBE93093FBF0F00D
:1023500008FB00E2D3117CE7724528BF72466CE7A8
:102360001A4676E734550020985F0020B8640220B2
:10237000F4AAFF1F70D0FF1F38550020206A0220EA
:10238000DCE1FF1F20E0FF1F6864022040D0FF1F38
:1023900020720220ECD4FF1F788DFF1F04E2FF1F84
:1023A000B8B8FF1F9CAFFF1F00DCFF1F7CE1FF1FC1
:1023B000306502206CE1FF1F7899FF1FC34BC448B2
:1023C0001A68C4492DE9F04FD3B2DFF834E3C05C9A
:1023D0005EF820000568002DD4BF0020012003EB2B
:1023E000800385EAE574A4EBE57451F8236036FBBD
:1023F00004F6B94BC4F5FF447F3453F8223033FB65
:1024000004F4B64BDFF8FCA21978B54B5AF821005A
:10241000DFF8F4921B68DFF8F4B2B24D4FEA401CCB
:10242000D8B259F80C702D6804EB060C8CEAEC74E9
:10243000A4EBEC74C0EB401000EB070C9E005BF8C3
:1024400022705EF82CC04FEA041806F47F764FEA3B
:1024500018145B002744314403F4FF7319444BF80C
:102460002270A14FDCF800C057F821100CFB01FCD2
:102470009E4F57F825104FEA6C0C0CEB0121A1F38D
:102480009801DFF88CC29CF800C05AF82CA04FEAE3
:102490004A1A334459F80A60304463445EF82060B5
:1024A000914850F82300336803FB00F302355B10BA
:1024B00057F8250003EB0023A3F358538C4E8D48A7
:1024C000550103EBC30306EB4306435977881C44CD
:1024D000414444517F02431931FB07FE5F68B488D1
:1024E00077445F60640231FB04FE9C68F7887444A3
:1024F0009C607F0231FB07FEDF6834897744DF6030
:10250000640231FB04FE1C69778974441C617F02FC
:1025100031FB07FE5F69B48977445F61640231FB78
:1025200004F49F69F6893C4476029C6131FB06F114
:10253000DC692144D961435993EA430448BFC3F19C
:1025400000435B1403FB03F4E412C4F5C03403FB43
:1025500004F4694E431937685B683F68641407FBED
:1025600004F493EA430748BFC3F10043E4135B1448
:1025700003FB03F7FF12C7F5C03703FB07FE7368C1
:102580004719D3F800C0BF684FEA6E430CFB03F352
:1025900004EBE33397EA470448BFC7F100477F14D1
:1025A00007FB07FC4FEAEC2CCCF5C03C07FB0CFC0E
:1025B000B46847192468FF684FEA6C4C04FB0CFCB4
:1025C00097EA470448BFC7F1004703EBEC337F1499
:1025D00007FB07FE4FEAEE2ECEF5C03E07FB0EFED0
:1025E000F468471924683F694FEA6E4E04FB0EF405
:1025F00003EBE43C97EA470348BFC7F100477F1469
:1026000007FB07FE4FEAEE2ECEF5C03E07FB0EFE9F
:10261000431934695F69246897EA47034FEA6E4EAD
:1026200004FB0EF448BFC7F100470CEBE4347F1401
:1026300007FB07F3DB12C3F5C03307FB03F70544C1
:102640007369AD6918687F1495EA450300FB07F7C5
:1026500048BFC5F1004504EBE7306D1405FB05F3F9
:10266000DB12C3F5C03305FB03F5B3691B686D14BA
:1026700003FB05F500EBE53391EA410048BFC1F1EA
:102680000041491401FB01F0C012C0F5C03001FB4C
:1026900000F1F0690068491400FB01F103EBE1313E
:1026A00001F30E0101FB01F0C01301EB610301FB1B
:1026B00000F1A3EBA1314FF2584303FB01F10F4BA3
:1026C000C91343F82210BDE8F08F00BF206A022032
:1026D000DCE1FF1F20E0FF1F40D0FF1F345500202A
:1026E000985F0020B864022000DCFF1F70D0FF1F3D
:1026F000E40404001C700220A0B7FF1FECD4FF1FED
:10270000F4AAFF1F9CAFFF1FB8B8FF1F6864022028
:1027100038550020BA4ABB4BBB492DE9F04F17682A
:10272000BA4A5FFA87FC8BB013F80C3052F82330AA
:102730001B68002BD4BF002201220CEB8202002B6D
:10274000B8BF5B4251F8220030FB03F0B04AC3F53A
:10275000FF437F3352F8272032FB03FEAD4AAE4CD5
:102760001278AE4DAE4EAF4B54F822102D6853F890
:102770002730366801934901AB4B00973746EEB2DC
:102780005958C6EB46163346AE0006F47F760893DA
:1027900019446D000EEB00039C480596324405F485
:1027A000FF7550F821100695002B15449F480A68C4
:1027B00050F82510B8BF5B429B1002FB01F29C4809
:1027C0000297B91C521050F8211002EB0128A8F30F
:1027D0005858DFF870A2974DDAF80820DAF804109C
:1027E0001768DAF80C2008681668DAF810202978DB
:1027F0001568DAF8002054F8214012680994DAF8D4
:1028000018B0019C079102F50049DAF81420191953
:102810001468DAF81C20DBF800A0126808F1090837
:1028200000F5004E05F500450AF5004A58180EFA65
:1028300008FE05FA08F50AFA08FA0395CDF810A083
:10284000099D0EEB000A02F5004207F5004706F568
:10285000004604F5004407FA08F706FA08F604FAF9
:1028600008F409FA08F902FA08F84FEA9A2201EB8B
:102870000E0A4FEA451B02EB9A2A6B4DCDF80480F5
:102880001A1813440EEB020855F80B50099507EB84
:10289000000B9E440AEB982808EB9E284FEA9B2BDE
:1028A00001EB070E0BEB9E2B07EB020E06EB000A6B
:1028B0001F440BEB9E2B039D0BEB972B4FEA9A2AA1
:1028C0008F1999440AEB972AB71808EB99291E44E7
:1028D00005EB00080AEB972A0AEB962A4FEA98289C
:1028E0004E1908EB9628AE1804EB000E1D4408EBB9
:1028F000962808EB95284FEA9E2E0D19049FD9447F
:102900000EEB952E019DD14407EB000BC1442844EA
:10291000A846A5180EEB952E1C440EEB942E4FEAFC
:102920009B2BCC190BEB942B4144BC18800A4546D9
:102930000BEB942B424400EB9120FC18F1440BEB81
:10294000942400EB9220EA1800EB92204C44089A61
:1029500039490444099815182C4850F82500069D5B
:10296000059A2A44079DE4122A44A4F5FF44009DD9
:102970007F3C41F825402D4C54F82240026802FB70
:1029800004F22B48029E50F82600520102EB8032DE
:1029900082F31E02294D2A4C55F82C605200B002D9
:1029A00050FB14F751F82C40B000E41B52FB10F719
:1029B000DFF894E05EF82C0038444EF82C00241A1E
:1029C00052FB14F2324445F82C20821002F30E021E
:1029D00002FB02F4E41302EB620002FB04F2A0EB40
:1029E000A2324FF2584000FB02F2009D0D48D21374
:1029F00040F8253041F82C200BB0BDE8F08F00BF27
:102A0000206A0220DCE1FF1F20E0FF1FF4AAFF1F65
:102A100040D0FF1F385500209CAFFF1F985F00205B
:102A2000B864022068640220B8B8FF1F00DCFF1FF2
:102A300070D0FF1F34550020ECD4FF1F8CD7FF1F30
:102A400000307500A0B7FF1FC45400201C4B1D4A66
:102A500019781D4B52F821201B681C48F0B5520113
:102A60001B4E0068B7581B4D1B4CDFF880E055F833
:102A7000206054F82040DAB2C2EB421217449A00A8
:102A800002F47F725B00114403F4FF735EF82720A9
:102A9000124F12680B44311957F8233045F82010B3
:102AA00002FB03F30E4A0F491268023251F822204A
:102AB00003EB422323F397230B4A42F82030F0BD67
:102AC000385500209CAFFF1F985F0020206A02202D
:102AD000B8B8FF1F6864022040D0FF1F00DCFF1F52
:102AE000B864022070D0FF1FECD4FF1FF4AAFF1FB0
:102AF000584BDFF888C158485849594A2DE9F047E2
:102B00001D78D0F800905CF8253012680868DFF86E
:102B100070E1DFF870A1534F534E5B01B9F1000F24
:102B20005EF8038000F00104D1B20CBF0223002341
:102B3000C1EB411123449400884404F47F74520093
:102B40005AF8233046F82030254402F4FF7257F833
:102B50002830DFF834811B68154458F8255003FBF2
:102B600005F5424B09F102090C2D53F82930D4BF69
:102B70000025012505EB930585F30F053C4B1B78DC
:102B80005CF823C04FEA4C1C22445EF80C40214400
:102B9000134457F8212058F82310136803FB01F160
:102BA000344B021D890053F8223081FA83F181F3FE
:102BB0001E01DFF8D8E0C0B249005EF8207007F3CC
:102BC0000E0303FB03F2D21303FB02F203EB6303D6
:102BD000A3EBA2334FF2584404FB03F3C5F50345BE
:102BE000E835DB13AD009B0353FB15F356F820507B
:102BF000ED1A07F30E0303FB03F2D21303FB02F2F9
:102C000003EB6303A3EBA23304FB03F3DB139B008F
:102C100051FB13FC184A52F82030634442F820302C
:102C2000ED1A51FB15F10F444EF820709B1003F381
:102C30000E0303FB03F2D21303EB630103FB02F366
:102C4000A1EBA33304FB03F4E41346F82040BDE8F2
:102C5000F08700BF38550020B8640220206A0220A7
:102C6000985F0020F4AAFF1FECD4FF1F70D0FF1F55
:102C70003455002040D0FF1FC45400209CAFFF1FDC
:102C8000B8B8FF1F486B022000DCFF1F8CD7FF1F66
:102C90004B4BDFF858C11B784A4A5CF823104A486E
:102CA000126800682DE9F047484CDFF844E1D4F899
:102CB0000080DFF840A1464F464C4901B8F1000FB3
:102CC0005EF8019000F00106D5B20CBF0221002190
:102CD000C5EB451531449600A94406F47F765200B1
:102CE0005AF8211044F82010334402F4FF7257F8C8
:102CF00029A0DFF804919918DAF8003059F821106A
:102D000003FB01F1344B08F10208082953F828307D
:102D1000D4BF0021012101EB430181F311012F4BAD
:102D20001B785CF823C04FEA4C1C32445EF80C6000
:102D30003544134457F8255059F823202B6803FBDA
:102D400002F2274B051D920053F8253082FA83F2D8
:102D500082F31E02234EC0B2C1F50C3156F820306A
:102D600001F2C721890152009D0255FB11F154F86F
:102D700020509F00C1EB050E52FB17F51A4F57F874
:102D800020100D4447F82050C5EB0E0552FB15F2FC
:102D9000134446F8203003F30E0303FB03F1C91379
:102DA00003EB630203FB01F3A2EBA3334FF25842A0
:102DB00002FB03F3DB1344F82030BDE8F08700BFCB
:102DC00038550020985F0020206A0220B864022055
:102DD000F4AAFF1FECD4FF1F70D0FF1F3455002052
:102DE00040D0FF1F8CD7FF1FC45400209CAFFF1F93
:102DF000B8B8FF1F486B022000DCFF1F4A4BDFF80A
:102E000054C11A7849485CF8223049492DE9F04705
:102E1000484C0968D4F80090DFF83CE10468DFF81A
:102E20003CA1454F45485B01B9F1000F5EF80380B6
:102E300004F00106CDB20CBF02230023C5EB4515FB
:102E400033448E00A84406F47F7649005AF82330B4
:102E500040F82430324401F4FF7157F82830DFF88D
:102E600000811B680A4458F8222003FB02F2344B0D
:102E700009F10209082A53F82930D4BF002201229F
:102E800002EB430282F311022E4B1B785CF823C045
:102E90004FEA4C1C31445EF80C6035440B4457F843
:102EA000255058F823102B6803FB01F1264B251DF4
:102EB000890053F8255081FA85F181F31E03234DD3
:102EC000E4B2C2F50C3255F8247002F2C722920126
:102ED0005900BE0256FB12F650F82420BB00921B8C
:102EE00051FB13FE1A4E56F82430734446F8243032
:102EF000D31A51FB13F1394445F824105B1003F346
:102F00000E0303FB03F1C91303EB630203FB01F39D
:102F1000A2EBA3334FF2584202FB03F3DB1340F85A
:102F20002430BDE8F08700BF38550020206A022019
:102F3000985F0020B8640220F4AAFF1FECD4FF1FA2
:102F400070D0FF1F3455002040D0FF1F8CD7FF1FCB
:102F5000C45400209CAFFF1FB8B8FF1F486B02206D
:102F600000DCFF1FA04BDFF8B8C2A0492DE9F04FED
:102F70001E78DFF8B0829E4B58F826201B689D4CC7
:102F8000DFF8A4E225685201D8B25CF80270C0EB09
:102F900040109C00074404F47F745A00264402F455
:102FA000FF7251F8273016441B685EF8266003FB59
:102FB00006F3914F57F825605B1203EB560383F33A
:102FC0000F0B8E4E367858F826804FEA4818224468
:102FD0005CF808402044164451F820205EF8260092
:102FE000126802FB00F2A81C920157F8200002EBC5
:102FF000C032A2F35F428248DFF830C20668814CDB
:10300000814FF0B21CF800C051F82C100B68002B57
:10301000D4BF4FF0000C4FF0010C00EB8C0083EAA2
:10302000E371A1EBE37154F8200030FB01FE774817
:10303000C1F5FF417F3150F8260030FB01F17144AA
:1030400081EAE173A3EBE17357F82610C8188342B5
:1030500000F1804400F1004E00F1404C7CD8A342C6
:1030600025D8734500F2A280634540F29380DFF8D3
:10307000C0A167495AF82630DFF8B88101FB03F197
:1030800088444FEA58414AF826800BFB01F3A3F32A
:10309000DE41DFF8A491330109EB0308C8F80C10F6
:1030A00059F80390D8F80430D8F808801DE0DFF80C
:1030B0008091574959F82630DFF8788101FB03F1F8
:1030C00088444FEA584149F826800BFB01F3A3F3EB
:1030D000DE43DFF864914FEA061809EB08014B6004
:1030E00059F80890D1F80880C96847F82600ED0320
:1030F0002A442344474F05EB13634A444FEA94594B
:10310000454C37F9199034F913A0444B02EB106287
:10311000F044800D614405EB18684FEA9E5E34F977
:1031200012B037F9102037F91EE034F9180005EB1A
:1031300011654FEA9C5C09FB0AF934F9151037F95F
:103140001C4002FB0B990EFB009904FB01925214E8
:1031500043F82620BDE8F08FDFF8D4A02C495AF8B8
:103160002630DFF8D08001FB03F188444FEA58494C
:103170004AF826800BFB09F3A3F3DE49DFF8B88099
:10318000330108EB030148F803904B68D1F808803D
:10319000C968AAE7DFF8A080330108EB030158F8FB
:1031A00003904B68D1F80880C9689EE7DFF880A0DB
:1031B00017495AF82630DFF87C9001FB03F1894467
:1031C0004FEA59484AF826900BFB08F3A3F3DE4870
:1031D000DFF86490330109EB0301C1F8088059F866
:1031E00003904B68C96880E734550020F4AAFF1F9C
:1031F000985F0020B864022070D0FF1F385500206F
:10320000206A022020E0FF1F6864022040D0FF1FD8
:103210003584B30BC8EC030060640020ECD4FF1FBE
:10322000B8B8FF1F9CAFFF1F00DCFF1FDCE1FF1FD2
:1032300028A7FF1F6B631936C86D02206F4B704AB9
:103240002DE9F04F93F800E0DFF8E881176858F8AF
:103250002E306C4A6C4D11686C4A6D4E1068DFF868
:10326000D8B16C4C5B01FAB2EB58C2EB421CBD000A
:10327000634405F47F757A00AE4402F4FF720EEBEE
:10328000020783B056F82330009201F1040E1B6848
:103290005BF8277003FB07F75F4B53F8203003EB15
:1032A000E70383F318035D4F9B0157F8219059FB07
:1032B00003F35FFA81FA0193594B13F80A3056F879
:1032C00023301A68002AD4BF0027012782EAE2735C
:1032D0000AEB8707A3EBE273524A52F8277037FBD9
:1032E00003F7C3F5FF437F3339FB03F3DFF84C915A
:1032F000009A99F800A058F82A802A444FEA481802
:10330000414D55F8085065443B4456F82550524409
:10331000002BB8BF5B422E685BF8222000934FEA77
:10332000A30C06FB02F2404D861C521055F82650A5
:1033300002EB052282F31802950C54F82E3054F853
:103340002170DFF8FCA06E1C4FEA136836023F0EB6
:103350002D02C00307EB060946442F44454481442F
:10336000019B064407442844C2F38F023AF91080B7
:103370003AF919503AF916603AF9177003EB0C0A4A
:1033800054F82130C2F57F4003EB4C0B02FB05F5EE
:1033900054F82E30373000FB07F702FB06F62D14E9
:1033A00005EB274200FB08F003EB4A053614009BAF
:1033B00006EB204002441B13E3440AEB050083F3B1
:1033C0000E031A4D1A4E55F82170521003FB02F2EB
:1033D000C3F58043921307FB03F302EBA3330CEB1B
:1033E0000B07504444F8217045F8213044F82E0072
:1033F00046F8213003B0BDE8F08F00BF34550020FF
:10340000985F0020206A0220B8B8FF1FB86402202D
:10341000F4AAFF1F686402209454002040D0FF1FCC
:10342000DCE1FF1F20E0FF1F70D0FF1F2072022091
:10343000ECD4FF1F9CAFFF1F00DCFF1F385500209E
:1034400060640020944B954A1B78126894482DE9DB
:10345000F04FDFF87492934C59F823100568924F9F
:1034600049015FFA82FE61584FEA4E16CEEB060024
:103470004FEA820B014452000BF47F7002F4FF7894
:10348000034457F821208949126883B043440090CF
:1034900051F8230002FB00F0854B864A1C68DFF8D8
:1034A0002CC2854B5FFA84FB001112F80B2057F8F1
:1034B0002220D2F800A05CF82520BAF1000FD4BF7A
:1034C000002101210BEB810100EB02108AEAEA7274
:1034D000A2EBEA7253F8213033FB02F37749C2F5CD
:1034E000FF427F3251F8241031FB02F1DFF8E0A1F6
:1034F0000B4483EAE371A1EBE3715AF8243089109D
:103500000B4493EA430B4CBFC3F100421A464FEA07
:10351000624B0BFB0BF2D212C2F5C0320BFB02F274
:10352000DFF8B0B101929BF800B05E4A59F82B90D9
:103530004FEA4919CEEB060652F809E0009A7644A4
:10354000424457F826609344584A366852F82B7024
:1035500006FB07F6AF1C5CF8277006EB072686F320
:103560001806DFF874E1019A554FDFF870C1DFF8F3
:10357000709175444FEA265EAD780EF1010805EBB7
:103580000515A8445214754400FB023257F828E090
:1035900057F82570D20D0B443EF9125037F912B08E
:1035A000CCF80070C6F30F12C2F57F4602FB05F59A
:1035B000FF3606FB0BF82D1405EB284C93EA430865
:1035C0001D4648BFC3F10045C9F800E06D1405FB76
:1035D00005F84FEAE828C8F5C03805FB08F56D1472
:1035E00000FB0535ED0D0B443EF9158037F91590BC
:1035F00002FB08F84FEA284506FB09F805EB2848C6
:10360000E04493EA430C1D4648BFC3F100456D14E6
:1036100005FB05FC4FEAEC2CCCF5C03C05FB0CFC93
:103620004FEA6C4C00FB0C3C4FEADC5C0B443EF96F
:103630001C5037F91C104AF8243002FB05F52D14F4
:1036400006FB01F105EB2141884493EA43011D4645
:1036500048BFC3F100456D1405FB05F1C912C1F562
:10366000C03105FB01F56D1400FB0530C00D154B95
:103670003EF9105037F9101002FB05F2121406FB48
:1036800001F602EB2646B0444FEAA80643F8246050
:1036900003B0BDE8F08F00BF34550020985F0020D4
:1036A000B8640220B8B8FF1FF4AAFF1F00DCFF1F98
:1036B000206A0220DCE1FF1F20E0FF1F40D0FF1F37
:1036C0003CB4FF1FECD4FF1F9CAFFF1F70D0FF1F47
:1036D000686402203855002004A8FF1F58DDFF1F32
:1036E000506D0220694A6A4B6A492DE9F04F14680F
:1036F000694EE2B29B5C56F823301B68002BD4BFA6
:103700000020012002EB8002002BB8BF5B4251F881
:10371000225035FB03F5614AC3F5FF437F3352F86E
:10372000240030FB03F05E4BDFF890911F785D4B77
:1037300059F827201968DFF888B1DFF888E15A4B7B
:1037400052015FFA81F85BF802C01B688A00C8EB7F
:10375000481802F47F7AC4444A00574402F4FF72C6
:10376000284456F82C1017440028B8BF4042096876
:103770005EF8275001FB05F14C4D9F1C55F8275072
:1037800001EB052181F31801494F4A4D3F78DFF8DD
:1037900038C159F827904FEA49191D445BF809B020
:1037A000AD78DFF82891D8444FEA215B05EB051589
:1037B00052440BF1010AAB4455443A4456F828A050
:1037C000DFF80C815CF82B605CF825505EF8227005
:1037D000DAF800C0C9F80060C1F30F11C8F8005052
:1037E0000CFB07F7344A52F8232002EBE70383F37C
:1037F0001803DB0150FB03F3DFF8D8E0DFF8D8C093
:103800005EF824201F183A444EF8242004F10408DE
:10381000C31A5EF828703B444EF8283004F10808BB
:10382000DB0D5EF8287036F913A035F913B0D20D10
:103830003844C70D36F9129036F9173035F9122091
:1038400035F917504EF828004FEA69094FEA6A0A1D
:10385000C9EB6202CAEB6B0B5B1001FB02F201FBCE
:103860000BFBC3EB650501FB05F109EB22490AEBF4
:103870002B4A03EB2143CA44534445F2555101FB03
:1038800003F3DB134CF82430BDE8F08F206A0220EC
:10389000DCE1FF1F20E0FF1FF4AAFF1F40D0FF1F45
:1038A00038550020985F0020B864022070D0FF1FB8
:1038B0003455002004A8FF1F945400209CAFFF1F24
:1038C000B8B8FF1F00DCFF1F3CB4FF1F58DDFF1F0F
:1038D000506D022068640220ECD4FF1F924B934A83
:1038E00093482DE9F04F1D68924BE9B22E46525C89
:1038F00053F822201568002DD4BF0024012401EBC9
:10390000840185EAE57289B0A2EBE57250F82110D6
:1039100031FB02F1DFF84492C2F5FF420C467F32E0
:10392000354659F8261031FB02F20292824ADFF83E
:1039300030E21078814A5EF820101268DFF82482A5
:10394000DFF824C24901D7B258F80160C7EB471726
:1039500091003E4401F47F715200084402F4FF726A
:1039600053F8266000EB020A30685CF82A6000FB1E
:1039700006F0DFF8F8A1724E9AF800A036685EF8FB
:103980002AE001954FEA4E1E514458F80EE005F129
:103990000408774459F828E053F82770694B3F68CA
:1039A00053F82830114470445CF82110801007FB54
:1039B00001F7654AB11C52F8211007EB012181F390
:1039C0001801624FDFF8A8E1DFF8A8B12246029C97
:1039D0003E4414445B4F84EAE472A2EBE47257F86D
:1039E00025409210A7183C4628BF00230344B7780F
:1039F000029416194FEAD3554FEA215C28BF0023E1
:103A00000344941907EB07170CF101094FEAD35A45
:103A1000B94428BF0023B60D121903440492674429
:103A20005BF829203EF916C0464E5BF82770CDF8AA
:103A300018C04FEAD35928BF0023184446F828007D
:103A400032F91A30029E37F91AB0C1F30F1101FB97
:103A500003F34FEA965A32F9156037F9155005937A
:103A600002954FEA9458019D049C364B3EF91AA0EA
:103A70003EF9188043F82540C00D069DCDF80CA0F6
:103A8000C1F57F4C4FEA945A0CF1FF0C32F910400B
:103A9000CDF81C80059B37F9108032F919003EF9EA
:103AA0001AE037F919900CFB0BFA4FEA650B029DEF
:103AB00001FB06F601FB00F01B1401FB04F1039C63
:103AC00003EB2A4336140CFB05FA079D0CFB09F99E
:103AD00064100BFB03FB06EB2A4600140CFB08FCEE
:103AE00000EB29404FEA65084FEAEB3B04FB06F682
:103AF000091401EB2C4108FB00F44FEA6E0E0BEBAE
:103B0000E6360EFB01F306EBE43404EBE333104C32
:103B1000104811492760019C0A605B1040F824306E
:103B200009B0BDE8F08F00BF206A0220DCE1FF1F72
:103B300020E0FF1FF4AAFF1F34550020985F0020EB
:103B4000B86402206864022070D0FF1F04A8FF1F21
:103B500058DDFF1FECD4FF1F506D022040D0FF1F27
:103B60009CAFFF1FB8B8FF1F00DCFF1F38550020B7
:103B7000C8EC03003CB4FF1F564B574A196857481E
:103B80002DE9F04FCBB2564FD25C57F82220156882
:103B9000002DD4BF0024012403EB840385EAE572E1
:103BA00083B0A2EBE57250F8233033FB02F3DFF869
:103BB00058E1C2F5FF427F325EF8210030FB02F28D
:103BC000484C1344002B605CB8BF5B420093002854
:103BD00076D1454850F8219001226254434ADFF8DB
:103BE0002C811478424A58F824501268DFF820C11A
:103BF000DFF820B16E01D5B25CF806A0C5EB451523
:103C00009600AA4406F47F76520002F4FF7334440F
:103C1000009A57F82AA001931C44914440F821903F
:103C2000DAF800A05BF824400AFB04F3314C94F866
:103C300000A058F82A4001F10408640156445CF8D9
:103C400004C05EF82840654402EB040E019A57F860
:103C500025509E4450F828302D6832440EEB030462
:103C60005BF8222040F8284005FB02F2224DDFF8E5
:103C7000A8C02D68214E01F1080705F1020E50F889
:103C800027305CF82E5003EB8505009B4FEAD9598D
:103C9000E40D2B449D1840F8275036F9192036F9C9
:103CA000143002FB03F3ED0DDA1336F9153002FB85
:103CB00003F3134ADB1342F8213003B0BDE8F08F61
:103CC0000948104A50F8219052F821204A4583D8DB
:103CD00084E700BF206A0220DCE1FF1F20E0FF1F15
:103CE000F4AAFF1FA8700220686402203455002047
:103CF000985F002038550020B8640220C8E4030013
:103D0000ECD4FF1F24CEFF1F40D0FF1F9CAFFF1F2E
:103D1000B8B8FF1F00DCFF1F94540020554B564AD3
:103D2000196856482DE9F04FCBB2554FD25C57F881
:103D300022201568002DD4BF0024012403EB840346
:103D400085EAE57283B0A2EBE57250F8233033FBCD
:103D500002F3DFF858E1C2F5FF427F325EF821003E
:103D600030FB02F2474C1344002B605CB8BF5B424F
:103D70000093002874D1444850F8219001226254E5
:103D8000424ADFF82C811478414A58F824501268CE
:103D9000DFF820C1DFF820B16E01D5B25CF806A0D3
:103DA000C5EB45159600AA4406F47F76520002F44E
:103DB000FF733444009A57F82AA001931C4491449D
:103DC00040F82190DAF800A05BF824400AFB04F3E5
:103DD000304C94F800A058F82A4001F1040864011E
:103DE00056445CF804C05EF82840654402EB040EBB
:103DF000019A57F825509E4450F828302D683244D7
:103E00000EEB03045BF8222040F8284005FB02FC7F
:103E1000214A224DD2F80080214A224E4FEAD95938
:103E200001F1080708F1020835F919E050F82730C8
:103E300052F8282004EBCE34E40D03EB820E009BF5
:103E400035F914207344634403EBC232D20D40F8B9
:103E5000273035F9123046F8213003B0BDE8F08F35
:103E60000948114A50F8219052F821204A4585D836
:103E700086E700BF206A0220DCE1FF1F20E0FF1F71
:103E8000F4AAFF1FA87002206864022034550020A5
:103E9000985F002038550020B8640220C8E4030071
:103EA00094540020ECD4FF1F24CEFF1F40D0FF1FEE
:103EB0009CAFFF1FB8B8FF1F00DCFF1F664B674AAF
:103EC000196867482DE9F04FCBB2664FD25C57F8BE
:103ED00022201568002DD4BF0024012403EB8403A5
:103EE00085EAE57283B0A2EBE57250F8233033FB2C
:103EF00002F3DFF89CE1C2F5FF427F325EF8210059
:103F000030FB02F2584C1344002B605CB8BF5B429C
:103F10000193002840F09580544850F82190019B6F
:103F200001226254524ADFF86C811478514A58F8E1
:103F300024501268DFF860C1DFF860B16E01D5B2BD
:103F40005CF806A0C5EB45159600AA4406F47F76FA
:103F50005200344402F4FF7257F82AA014449944E2
:103F600040F82190DAF800A05BF824400AFB04F343
:103F7000414C94F800A058F82A40640101F104086B
:103F80005CF804C05EF82840AC44019D57F82C70E2
:103F900005EB040E9E44564450F828303D683244E8
:103FA0000EEB03045BF8222040F8284005FB02FEDC
:103FB000324A334D1268334E01F10807023250F88D
:103FC000273055F822504FEAD95903EB8505019B5C
:103FD00036F919202B447344D50303EB050E254411
:103FE000ED0D4FEADE5440F8273036F9143036F93B
:103FF000150003FB00F393EA430048BFC3F10043FD
:104000005B1403FB03F0C012C0F5C03003FB00F3E8
:104010005B14DB0002FB03F393EA430248BFC3F1E6
:1040200000435B1403FB03F2D212C2F5C03203FB60
:1040300002F3154A5B14DB0042F8213003B0BDE8FF
:10404000F08F0A48114A50F8219052F821204A4531
:104050007FF668AF63E700BF206A0220DCE1FF1F44
:1040600020E0FF1FF4AAFF1FA8700220686402204E
:1040700034550020985F002038550020B864022095
:1040800094540020C8E40300ECD4FF1F24CEFF1F8B
:1040900040D0FF1F9CAFFF1FB8B8FF1F00DCFF1F01
:1040A000664A674B67492DE9F04F1468664EE2B2E5
:1040B0009B5C56F823301D68002DD4BF00200120E2
:1040C00002EB800285EAE573A3EBE57351F82270F9
:1040D00037FB03F75D4AC3F5FF437F3352F82420D3
:1040E00032FB03F25A4BDFF87C811878594958F8B3
:1040F00020300968DFF870C1DFF87091DFF870E1F7
:10410000DFF870A15B01CDB25CF80330DAF800A0F3
:10411000C5EB45152B4417444FEA810B0BF47F7B0D
:1041200087EAE7724900A2EBE772584456F8237019
:1041300059F8243001F4FF710844D31849F82430A9
:104140003A685EF8200002FB00F243480AF10207D9
:1041500050F8277002EB072282F31802DFF818915B
:104160003E4F99F8009057F82A7058F829804FEA86
:10417000481859445CF808C06544894456F825102D
:104180005EF829600968C2F34F1501FB06F150F88B
:104190002A60481000EB0620A0F310204FEAC70C5D
:1041A000520D0CEB07011144DFF8D0E01E093EF878
:1041B000111006FB01F191EA410848BFC1F100412D
:1041C000491401FB01F84FEAE828C8F5C03801FBA3
:1041D00008F1674401323A4449143EF8122006FBC4
:1041E00002F292EA420648BFC2F10042521402FBB8
:1041F00002F6F612C6F5C03602FB06F2C1EB6242C9
:1042000005FB02F201EB224193EA430248BFC3F1EE
:1042100000435B1403FB03F2D212C2F5C03203FB6E
:1042200002F35B14C91A00FB01F103EB21430C4AB2
:10423000DB0042F82430BDE8F08F00BF206A022086
:10424000DCE1FF1F20E0FF1FF4AAFF1F40D0FF1F8B
:1042500038550020985F002070D0FF1F40E0FF1FFE
:10426000ECD4FF1F9CAFFF1FB8B8FF1F686402208B
:1042700000DCFF1FB864022034550020E404040071
:10428000754A764B116876482DE9F04FCAB2DFF8CF
:10429000F8E19B5C734C5EF8233001F1040B1E685F
:1042A00050F82B5085B0002E039550F82150029500
:1042B000D4BF0025012502EB850286EAE67301F1F1
:1042C000080CA3EBE67354F8222032FB03F9664A8C
:1042D000C3F5FF437F3352F8212032FB03F3634AD7
:1042E000DFF8A8811478624A58F824501268614EA9
:1042F0006F01D5B256F807A05F4E4B44C5EB45158C
:104300009700002BAA4407F47F774FEA4202B8BF18
:104310005B423C4402F4FF725EF82AA0019314440D
:10432000564B3668DAF8009053F8244009FB04F93C
:10433000DFF85CA15AF826404FEA692909EB5404DA
:1043400084F30F04DFF84C914A4B99F8009058F829
:1043500029804FEA48183A444A4453F80870474BBA
:104360003D4453F82270019B5EF825505A1404FB1B
:1043700002FE2D6804EBEE2405FB07F506F1020EA4
:104380006D125AF82E7005EB570585F30F053C4F5B
:10439000DFF80481DFF804E158F826803E445EF837
:1043A000287036795EF8266006FB03FE50F82C3044
:1043B00003EB1E1E019B07FB03F69EEA4E0305FB63
:1043C00002F24CBFCEF10048F04605EBE22536097B
:1043D0004FEA684808FB08F2D212C2F5C03208FB67
:1043E00002F8039B33441E461F464FEAA83896EA5C
:1043F000460305FB08F848BFC6F100474FEAE80846
:104400007F1407FB07F2D212C2F5C03207FB02F796
:10441000BF13019B029A04FB07F403EBE40343443C
:10442000134493EA43041A4648BFC3F100425214AE
:1044300002FB02F4E412C4F5C03402FB04F2114C96
:1044400040F82130921340F82B6044F8212040F8C6
:104450002CE005B0BDE8F08F206A0220DCE1FF1FF0
:104460006864022020E0FF1F40D0FF1F3455002069
:10447000985F0020B8B8FF1FB864022000DCFF1F5F
:1044800004A8FF1FECD4FF1FF4AAFF1F9CAFFF1F5F
:1044900070D0FF1F3855002040E0FF1FEC5206008F
:1044A0006B4B6C4A19686C482DE9F04FCBB2DFF8C2
:1044B000D0E1D25CDFF8CC915EF8222059F821409F
:1044C000166883B0002E25460194D4BF0024012431
:1044D00003EB840386EAE672A2EBE67250F823301F
:1044E00033FB02F3C2F5FF427F3235FB02F25B4839
:1044F000DFF8948190F800A0594858F82A500468D1
:10450000584E59486D015FFA84FC75594FEA4C16B4
:1045100013444FEA440BCCEB06070BF4FF722F4415
:1045200083EAE37BA500ABEBE37B05F47F7550F8F2
:1045300021305EF82770AA440BEB030492444B4BE6
:1045400040F821403F6853F82AA007FB0AFA0F1DE4
:1045500059F8279050F8273009EB8A0A9A449AEACA
:104560004A03D14648BFCAF1004940F827A04FEAA4
:10457000694A0AFB0AF94FEAE929C9F5C0390AFB79
:1045800009F9DFF808A1374B9AF800A058F82A80FB
:104590004FEA4818CCEB060653F808C0334B664484
:1045A0002A4492445EF826504FEA69492A6853F833
:1045B0002A504FEA890902FB05FE2D4ADFF8D0C0D8
:1045C000156801F10806023550F826205CF82550E0
:1045D00002EB451202EB8E0595EA45032A4648BFD9
:1045E000C5F1004240F82650521402FB02F5ED12CC
:1045F000C5F5C03502FB05F21E4DDFF898C04FEA45
:10460000146E521435F81EE05CF8215009EB82025A
:104610004FEA6E0E0EFB02F2AC424FEAA232164D8A
:1046200001D36C5C64B9019B00245B444FF0010E24
:1046300040F827404CF8213005F801E040F82640CA
:104640000E4B521043F8212003B0BDE8F08F00BF9D
:10465000206A0220DCE1FF1F20E0FF1F345500200C
:10466000985F0020B8B8FF1F6864022000DCFF1FBD
:10467000B864022060A50300A8700220ECD4FF1FDC
:10468000F4AAFF1F40D0FF1F9CAFFF1F385500202A
:104690009454002024CEFF1F444B454A196892F8D9
:1046A00000C0444B44481A68444B2DE9F04F444D38
:1046B000444EDFF828A156F821B0434F55F8216049
:1046C0005AF82C40DFF818E1DFF81891DFF818816C
:1046D00007FB06F73B4464013C4F45F82130D6B256
:1046E0003C59D8F800807501AF1B2744940050F85E
:1046F0002770374804F47F7450F821001B0C5200D7
:10470000A44402F4FF72A3F5FF4383447F3B944427
:104710002F484EF8213040F821B03F6859F82C005E
:1047200007FB00F7DFF8C4C008F1020083EAE37B6F
:104730005CF820000009C0F5FF407F30ABEBE37B65
:10474000A0EB67305845234800785AF82070A5EB55
:1047500006054FEA47171D4EF65922443544164CBC
:1047600084BF00234EF8213054F8254002442068CD
:1047700059F8222000FB02F25CF82800921202EBAA
:10478000900282F30E02144D55F8214003FB02F310
:10479000C2F580409A1304FB00F302EBA33345F803
:1047A00021304EF82130BDE8F08F00BF206A022092
:1047B00038550020985F0020F4AAFF1F6B6319365C
:1047C00028A7FF1F40D0FF1F3584B30BB8B8FF1FC9
:1047D0006864022034550020207202209CAFFF1F25
:1047E000ECD4FF1F00DCFF1FB864022070D0FF1F55
:1047F0004D4BDFF870C11B784C4A5CF823104C48D5
:104800002DE9F04F15684B4A4B4C12684901EEB246
:10481000675850F822107401C6EB0408A8006D0018
:1048200005F4FF7E4744454D00F47F7055F827702E
:10483000034403EB0E0583B03B68414F019057F8EA
:10484000255003FB05F33F4D3F4FD5F800A03F4DEA
:104850000AF1020902F1040857F8297055F82800F6
:104860005B1303EB573355F82270CF1900FB03732A
:10487000994245F822303DD8DFF8ECB0344D2E484F
:104880002D785CF825707F01A41BC6590198314F23
:104890003444DB0D294E704456F8246037F9134038
:1048A000336805442648E41050F8250003FB00F364
:1048B000294850F82A0000EB632304FB03F3C1F1FD
:1048C00000411B1353FB01F121444B0493EA814146
:1048D00048BFC3F100435B1403FB03F1C912C1F5E8
:1048E000C03103FB01F35B14DB004BF8223003B053
:1048F000BDE8F08F19481A4F50F82200DFF86C908D
:10490000DFF864B007FB00F7B9444FEA1947A7F591
:10491000FF4712487F3F40F822904FEAA70945F829
:1049200028904BF82270A9E738550020985F0020A6
:1049300040D0FF1F206A0220B8B8FF1FF4AAFF1F53
:1049400000DCFF1FB8640220945400206864022039
:1049500034550020C8E4030070D0FF1F28A7FF1FB4
:104960003584B30B9CAFFF1FECD4FF1F6B6319366C
:104970002C4A2D4B10682D4953F8202051F8203037
:1049800013449A42F0B541F8203045D9284E294BBE
:1049900056F82010284A294C294D03FB01F31A44EC
:1049A000110CA1F5FF417F3946F8202044F8201072
:1049B000244B254A1E78254B52F826201B68244F8D
:1049C000DFF89CE05201BF58DAB2C2EB4212174442
:1049D0009A0002F47F725B00164403F4FF735EF8E2
:1049E00027201C4F1268334457F8233002FB03F290
:1049F000194E1A4B366853F82630921302EB931374
:104A000083F30B03C3F5806301FB03F39B1245F8AB
:104A1000203044F82030F0BD094D084C55F82010E6
:104A2000C6E700BF206A022040D0FF1F6864022052
:104A300028A7FF1F3584B30B6B631936ECD4FF1F17
:104A400020720220345500209CAFFF1F985F002089
:104A5000B8B8FF1F00DCFF1FB864022070D0FF1F32
:104A6000F4AAFF1F6D4B2DE9F04F1C686C4DDFF869
:104A7000E09155F8243059F824E087B073449E45FE
:104A8000039345F8243000F2AB8004F1080304F1ED
:104A9000040C644A049355F8233055F82C10029303
:104AA00052F82420604B019105936049DFF8A481FE
:104AB00009785F4858F8216000685E4BDFF898B1CC
:104AC0007701C6B253F807A05B4BC6EB46168700CA
:104AD000B24407F47F774000394400F4FF7053F884
:104AE0002AA00144DAF800A05BF821100AFB01F1CA
:104AF000DFF868A1514BDAF800A00AF1020A53F876
:104B00002AA00AEB612102FB01F151FB0EFE4C4A87
:104B1000484B127859F82C1058F822804FEA481860
:104B2000384453F80870444B3E44104453F8262050
:104B30005BF82060106800FB06F201EB8202019B2B
:104B4000964473441A4600FB06F0029B01EB800179
:104B5000194492EA4203164648BFC2F10046761451
:104B600006FB06F0C012C0F5C03006FB00F091EA6B
:104B700041030E4648BFC1F100464014761406FBBF
:104B800006F7FF12C7F5C03706FB07F6A0EB664035
:104B900000F30E0000FB00F6039BF61300FB06F685
:104BA00000EB6000A0EBA63093EA430648BFC3F1D8
:104BB00000435B1403FB03F6F612C6F5C03603FB95
:104BC00006F35B1400FB03F3059845F82C209B12B9
:104BD00040F82430049B45F8231007B0BDE8F08F5F
:104BE000184E194856F8242018490F4B0D4F0593BD
:104BF00000FB02F211440A0CA2F5FF427F3A43F88F
:104C0000242000230293019304F1080346F82410A2
:104C100047F8242004F1040C049346E7206A02209C
:104C20006864022020720220ECD4FF1F3855002057
:104C3000985F0020B8B8FF1FF4AAFF1F70D0FF1FB5
:104C40003455002028A7FF1F3584B30B6B6319363A
:104C500040D0FF1F9CAFFF1F00DCFF1FB864022085
:104C6000514A524B11781B68514A52481268DFF87A
:104C700068C12DE9F04FDFF864E14F4E5EF8215036
:104C80004E4C4F4FDFF85881DFF858B1DFF858A18C
:104C90004FEA451956F8235004FB050046F8230057
:104CA000060C57F8094058F823505FFA82F9A6F528
:104CB000FF46C9EB49107F3E00EB04094BF8236027
:104CC00094005CF823605AF8299004F47F74520031
:104CD0002E44214402F4FF7248F823601144394EF7
:104CE000D9F8008056F8211008FB01F103F10408FF
:104CF00049015CF828C001EB4C0181F31E01DFF88B
:104D0000ECC09CF800C05EF82CE04FEA4E1E224436
:104D100057F80E40204462445AF8200056F82220EA
:104D20000068490000FB02F0274A284C1268023252
:104D3000082854F82220D4BF0020012000EB4200B4
:104D400080F31100224EDBB2C0F5223056F823204A
:104D5000B7304000D40354FB10F05BF823405700F9
:104D6000201A51FB17F41B4F57F823502C4447F8D7
:104D70002340041B51FB14F10A4446F8232002F39C
:104D80000E0202FB02F0C01302EB620102FB00F212
:104D9000A1EBA2324FF2584101FB02F2D2134BF8C1
:104DA0002320BDE8F08F00BF34550020206A022088
:104DB000985F00206B63193628A7FF1F3584B30B5B
:104DC000B8B8FF1F00DCFF1FB864022070D0FF1FBF
:104DD0008CD7FF1FC454002040D0FF1F9CAFFF1F83
:104DE00068640220ECD4FF1FF4AAFF1F385500208E
:104DF000424BDFF828C1424A2DE9F04F1F78414B62
:104E00005CF8270019681268DFF81491DFF814E1E4
:104E100059F821603C4D3D4BDFF80C81DFF80CB1B7
:104E20004001D4B25EF800005BF821B0C4EB44143A
:104E300005FB06FA2044364E5344950056F82000F0
:104E400049F8213005F47F75520007EB050A02F49A
:104E5000FF7292440068DFF8D89058F82170064637
:104E600059F82A00DFF8CCA05F4448F82170DAF83E
:104E7000007006FB00FADFF8C08058F8270000EB4E
:104E80006A20A0F35000DFF8B4A09AF800A05CF804
:104E90002AC04FEA4C1C2A445EF80C5092442C4421
:104EA0001B4A52F8242059F82A40126802FB04F4E5
:104EB000023758F8272002EB6424A4F350141A0C8C
:104EC000A2F5FF437F3B002BC0F5FF42114DB8BF59
:104ED000644203FB00F37F3204FB02F4D81355F85D
:104EE000212000EBE433134403F30F030A4A45F88F
:104EF000213042F82130BDE8F08F00BF345500204A
:104F0000985F0020206A02203584B30B6B6319364A
:104F1000F4AAFF1F04CDFF1FECD4FF1F9CAFFF1F9F
:104F200028A7FF1FB8B8FF1F6864022040D0FF1FEA
:104F300000DCFF1FB864022070D0FF1F385500202E
:104F4000704700BF38B50D4B0D4A1C680D4B52F829
:104F5000242053F824300C4D9A42296802D80129A4
:104F600000D038BD40F6FF71084823F0E3FF084B3E
:104F7000C00043F8240000232B6038BD40CEFF1F43
:104F8000286A0220D06A02203055002001F0FFFF7D
:104F90001C6D02202DE9F0411D4F1E4E3B681E4D39
:104FA00056F823201D4CAA5C54F823108A4203D0E3
:104FB00032B91B4919440A7144F82320BDE8F08135
:104FC000184A194802EB43137F21D3F8C43250F832
:104FD00023301B68002083EAE378A8EBE37823F012
:104FE000A9FF4FEA282880453B680AD90C4956F8A2
:104FF000232019440120AA5C087144F82320BDE84D
:10500000F08156F82320AA5C44F82320BDE8F08103
:10501000E06B0220EC6E0220A0700220C0D7FF1FC0
:10502000BC540020B8B8FF1FF4AAFF1F38B5054CC8
:10503000A4F1F0052046103C24F0C4F8AC42F9D1AC
:1050400038BD00BF58D7FF1F38B5054CA4F1600527
:10505000103C204624F0B6F8AC42F9D138BD00BF70
:1050600010540020F8B50D4A0D4B0E4F0E4E0F494F
:105070000F48002401253C70347014701D700D4FD2
:105080000D4E24F003F90D480D490E4A0E4B3C60BD
:10509000357004600D7015701C60F8BD806A0220C8
:1050A00034D5FF1FACD7FF1F1C65022054CC030072
:1050B000805F0020F0540020D4CFFF1F0462002046
:1050C0005C640020106A02208053002008301DF02C
:1050D000EDB800BF00B583B002AB012203F8011D9B
:1050E000083019461DF0E2F803B05DF804FB00BF7C
:1050F00038B5044600F10805D4F8B430284698477E
:105100004FF6FD73984201D9012038BD0346B4F82B
:10511000BA20B4F8B81028461BF0F6F994F890308D
:10512000032BF1D8DFE803F0140E0802B4F8BA300C
:10513000181AA4F8BA00E7E7B4F8B830181AA4F8B7
:10514000B800E1E7B4F8BA301844A4F8BA00DBE7D5
:10515000B4F8B8301844A4F8B800D5E710B5044640
:1051600023F09CFC204610BD08301DF041B800BF64
:10517000074B1B782BB9074A074912680A44137179
:105180007047044B044A1B68134401221A7170478C
:10519000285C0020E06B0220BC540020564B1B789A
:1051A000002B6BD02DE9F041544ADFF8A8E11768D5
:1051B000DEF800205249534E0F60974258D8524AA9
:1051C000306812681044514CDFF88C812178DFF888
:1051D0008CC14F4DCEF800708A0088FB02820131ED
:1051E0009CF800703060C9B2520621702A6037B155
:1051F000DFF86CE10027CEF800208CF80070454FF6
:105200003A780132D2B2052A3A7038D9DFF820E173
:10521000414A9EF92BE01278AEF1010CBCFA8CFCED
:105220004FEA5C1C944555D8DFF814C13B4A106026
:10523000DCF800203A4801324FF00108CCF8002099
:10524000002280F800803A7032600120354A86459D
:10525000107045D03448354E027803705F2923EA38
:105260000203337027D82C4B00221A70BDE8F0815E
:1052700025493068BA1A0A601044A4E77047022A28
:1052800036D92B4B274893F92B200023012A037092
:10529000E0D12848284A03711361234A234816782D
:1052A00013705F2923EA06030370DCD923491A4AE5
:1052B00001230B701370224A224E234823490023F6
:1052C00002271360237001222B60376002700A707E
:1052D000BDE8F0811E4A4FF0010C82F800C0A3E740
:1052E0001448154A80F804E04FF400401061D4E7F8
:1052F0000F4A92F92BE0A8E734D5FF1F80CFFF1F9C
:10530000E0E1FF1F5CD6FF1FBC6A0220ACD7FF1F85
:1053100004620020806A022091530020D4DDFF1F28
:1053200068DCFF1F40560020176B0220EC6B022048
:1053300084A6FF1FA070022020640020D4CFFF1F8E
:1053400004CEFF1FD0E1FF1F88D7FF1F7C5F002026
:1053500034DDFF1F68D0FF1F56555555D4E1FF1FA0
:1053600080530020704700BF0F48104AF0B4046813
:105370000F4D104F40F2EE2613783BB12B78DB0730
:1053800004D5036839685B1A0E2B06D803681178B8
:105390001B1B21B1B3F5FA6FEED9F0BC7047B342D5
:1053A000EAD9F0BC704700BF987602201C78022032
:1053B00034780220047902208842A8BF084670474A
:1053C0008842B8BF08467047884238BF08467047D1
:1053D000114B1B685B0415D570B41048104B114A73
:1053E00006681968104D13780160891B0F4C2960FD
:1053F00043F002030E4913700320012320600B6069
:1054000070BC7047074A0A49137803F0FD03137014
:1054100001230B60704700BF10F00F409C65022015
:1054200080CFFF1F98E1FF1F0C560020D0E1FF1F27
:10543000646402206FF07E43984228BF184670478C
:10544000B94ABA4BBA482DE9F04F1468B94ABA4E76
:1054500050F82400E5B285B05B5D52F823301B683C
:10546000002BD4BF0027012705EB8705002BB8BF11
:105470005B4256F8256036FB03F6B04DC3F5FF439B
:105480007F3355F8245035FB03F33344002BB8BF6A
:105490005B4210EB030B80F0C580A948A94BDFF8F5
:1054A000D8C2D3F80090A84D02900646A748A84A53
:1054B0005CF8243015F80980DFF8C0E250F8245079
:1054C000A44812F80970019056F8242000205E1CB0
:1054D000BBEB424F72D85EF824204FEA48187F0198
:1054E000DFF89CE207EB030A3744434446445EF886
:1054F00027705EF82AC05EF826605EF82380C5F546
:10550000FF4E07FB05F70EF17F0E0CFB05F53F1272
:105510002D1208FB0EF806FB0EF605EB282507EB0F
:105520002626D8B98C498D4F51F8298057F8230089
:105530004146FFF749FF8A49034657F82A0051F8C8
:1055400024704146FFF740FFC7F5FF4100FB07F01D
:105550007F31C70B03FB01F107EBD1314FEADB10C1
:10556000C0F100700001FFF765FFC2EB5B42761BE4
:1055700096FBF1F101FB02558001AD0155FB10F0E6
:105580006B4A42F824B0019A431142F82430801348
:1055900000F30E0000FB00F2D21300EB600300FBEF
:1055A00002F0A3EBA0304FF2584303FB00F06D4B29
:1055B000C01343F8240005B0BDE8F08F6649674B7F
:1055C00051F829A04CF824604FEA481808EB06016E
:1055D0004EF8242053F821005146FFF7F5FE7F01D5
:1055E00003905F49B81953F8200051F82430514610
:1055F000FFF7EAFE00FB03F0C3F5FF41C30B03987E
:105600007F3100FB01F003EBD031881847F6FF73C0
:1056100040F085800123029840F824300120334671
:1056200006445DE7504BDFF85C811D784F4B58F81E
:1056300025101B68DFF850C1424EDFF850E1D6F864
:1056400000904801D9B25CF80070C1EB41119E0096
:105650000F4406F47F765B00354403F4FF7352F881
:1056600027001D4400685EF8255000FB05F5404FFB
:1056700009F10200AD1257F8200005EB500585F343
:105680000F053C48DFF8C4A000784AF8245058F8C9
:1056900020804FEA481833445CF8086031441844CD
:1056A00052F821305EF820201B6803FB02F357F804
:1056B00029109B1203EB510383F30F032449224A61
:1056C00011F8097012F80980254A24491C4842F84B
:1056D0002430FA0102904FEAC8108A581D4E0196F4
:1056E000C3F5FF4A0E58DFF890C01548DFF88CE08C
:1056F00002FB03F30AF17F0ADB1306FB0AF1154EE6
:1057000003EBE131002346F82430012640F8241051
:105710004CF824304EF824300A463046D8E683420E
:1057200028BF034677E700BF206A0220DCE1FF1FA5
:1057300068640220F4AAFF1F20E0FF1F40D0FF1F73
:10574000D8D4FF1FB864022050DCFF1F48DDFF1FC4
:10575000748DFF1F20720220ECE2FF1F788DFF1F67
:1057600078D7FF1FECD4FF1F38550020985F00202A
:1057700070D0FF1F34550020F0550020206C02200F
:105780007899FF1F9CAFFF1FB8B8FF1F00DCFF1FF9
:10579000024A034B904288BF18467047BFD40100AD
:1057A000C0D40100002900FB01F00E4A0CDB00F11F
:1057B0003F0382FB03201844DA17002BC2EBA01032
:1057C00000DB704701387047A0F13F0382FB0320E4
:1057D0001844DA17002BC2EBA01001DB0130704730
:1057E000704700BF09040281314B324932482DE92C
:1057F000F0411C680B5D50F8242013B1013240F8D1
:105800002420DFF8D8E0DFF8D8C01EF804305BBBF6
:105810005CF82430DFF8CC80284F58F82450284E0C
:10582000AB424FF0000524BF0EF8045001259A4208
:10583000244B53F82430FA5C56F82430A4BF0025DA
:105840000D559A4204D0AAB9012340F824200B55E3
:105850001D4A1E4B2244234492F925201D71BB5C36
:1058600046F82430BDE8F0815CF8243001334CF870
:105870002430CFE7164B174A174903EB4413096846
:10588000D3F8C43252F8232000234CF8243040F8D7
:10589000243010680028B8BF4042012300120909D3
:1058A0000EF80430FFF77EFF48F82400D0E700BF71
:1058B000E06B0220086C022068DDFF1FA070022050
:1058C000C0D7FF1FEC6E022084A6FF1FBC5400202F
:1058D000B8B8FF1FF4AAFF1FACA7FF1FF06B022090
:1058E000F0D7FF1F40DFFF1F20EAE070704700BFC6
:1058F000C1F164030138002B03FB00F00E4A0EDBFC
:1059000000F2FF7382FB03021A44D817C0EBE220B7
:10591000002B014401DB08467047481E7047A0F287
:10592000FF7382FB03021A44D817C0EBE220002B5E
:105930000144F0DB481C704701021080002900FB85
:1059400001F00DDB00F14002002A1346B8BF00F160
:10595000BF03002A4FEAE31000DB704701387047AD
:10596000A0F14002002A1346B8BF00F13F03002A0D
:105970004FEAE31001DB0130704770476428B8BF7D
:1059800064207047002808BF0120704740F2FF33B1
:105990009842A8BF18467047D6237F21074A00FBCC
:1059A000031082FB00320244C317C3EBE21200284B
:1059B000ACBFA2F16B00A2F16C00704781808080C7
:1059C000C1F5FF437F339BB1401A03EBD3725210F2
:1059D000A0EBC030C2EB400000FB03F2002A90FBBA
:1059E000F3F0BABF00F5FF407F3000F5004070478C
:1059F000184670474FF4AA620149024823F000B8E4
:105A00005508FF1F7C6E022044F6FF220149024820
:105A100022F0F6BF11E70100F8D7FF1F22F044BDC6
:105A200022F07EBD38B5054C0146204623F0BCF877
:105A30000546204623F010F9284438BD74C2FF1FE4
:105A400041EC100BD1B2014823F072B948CDFF1FD1
:105A5000014600230A22014823F028B948CDFF1F40
:105A60000146014823F0A0B848CDFF1F014600239E
:105A70000A22014823F01AB974C2FF1F014600230D
:105A80000A22014823F012B948CDFF1F0146014800
:105A900023F02EBC04E0FF1F61B101EBD1735B105A
:105AA000682202FB003000FB01F3002B90FBF1F0B9
:105AB00002DB7047342070470138704731B17C23D6
:105AC0004A1013FB002090FBF1F070473E20704716
:105AD00091B101EBD1735B10C0EBC03003EB400020
