:1000000000000320D101000021860100D9850100F4
:10001000D9850100D9850100D9850100D985010064
:10002000D9850100D9850100D9850100218601000B
:1000300021860100D985010089AF0100D9B10100F5
:100040002186010021860100218601002186010010
:100050002186010021860100218601002186010000
:1000600021860100218601002186010021860100F0
:1000700021860100218601002186010021860100E0
:1000800021860100218601002186010021860100D0
:1000900021860100218601002186010021860100C0
:1000A000D57F01000D81010021860100218601001C
:1000B000218601002186010021860100119701009F
:1000C0002186010061C00100218601008DC101006F
:1000D0002186010085C201002186010021860100E0
:1000E0002186010021860100218601002186010070
:1000F0002186010021860100218601002186010060
:10010000B9B30100CDB30100E1B30100F5B30100C3
:1001100021860100F199010021860100218601005C
:10012000218601002186010021860100218601002F
:10013000218601002186010021860100218601001F
:1001400021860100218601007DC301002186010076
:1001500021860100218601002186010021860100FF
:1001600021860100218601004582010021860100CF
:1001700021860100218601002186010021860100DF
:1001800021860100556001002186010021860100C1
:10019000218601002186010075C40100218601002D
:1001A00021860100218601002186010021860100AF
:1001B000218601002186010021860100218601009F
:1001C000218601002186010021860100218601008F
:1001D0005C4B4CF2205210B51A804DF628121A8052
:1001E00000BF00BF18F020FA574B4FF030621A6082
:1001F000564A9A60564ADA60564B4FF470021A60BB
:10020000554B564A1A60564B1A78110703D51A787F
:1002100042F008021A70534B5349AA221A70534AEB
:10022000534B8B4204D252F8040F43F8040BF8E707
:10023000504B514900228B4202D243F8042BFAE77B
:100240004E494F4A002352F8230041F8230001335E
:10025000742BF8D14B4B4C4A802103F8011B93427D
:10026000FBD14A4B454A1A60494B8A221A70A3F5C2
:10027000805324225A70A0221A709A799207FCD5D2
:100280009A79D406FCD4434A937903F00C03082BE3
:10029000FAD1414B60221A7002331A78802AFCD1BD
:1002A0003C4B00221A7150225A719A799006FCD563
:1002B0009979384A4906FBD5384B394919600021EC
:1002C000596020231370937903F00C030C2BFAD19F
:1002D000344B354A1A60354A354C136813F4807331
:1002E00003D123604FF4A8531360324B324A1A6093
:1002F00000225A60072243F8042C304AC3F80C2D20
:1003000062B618F095FA2368DA0705D52C4818F07C
:100310007DFA2C4B2C4A1A602C4B1B785B0609D5B6
:10032000284C294B22689A4204D1254818F06EFACD
:10033000002323601FF01AFD18F07CF91BF02EFD3E
:10034000FEE700BF0E20054030800440823F0400DD
:100350000100002B88ED00E0002008E0030000858C
:1003600002D0074000E00740305FFF1FFC4206005C
:10037000400CFF1F305FFF1F805402200002FF1F50
:100380000000000000E400E064E400E008ED00E0AC
:10039000005006400040064001E007404480044011
:1003A0000000070304800440C010070010D0034081
:1003B00014D0034014E000E0FFE703000000202019
:1003C0006411975E1CE00340A5C3945A00F00740F7
:1003D000FFFFFFFFFFFFFFFFFFFFFFFFFFFFFFFF2D
:1003E000FFFFFFFFFFFFFFFFFFFFFFFFFFFFFFFF1D
:1003F000FFFFFFFFFFFFFFFFFFFFFFFFFFFFFFFF0D
:10040000FFFFFFFFFFFFFFFFFFFFFFFFDEF9FFFF23
:1004100010B5054C237833B9044B13B10448AFF33E
:1004200000800123237010BD305FFF1F000000001B
:10043000F8420600084B10B51BB108490848AFF355
:1004400000800848036803B910BD074B002BFBD0A0
:10045000BDE81040184700BF00000000345FFF1FD8
:10046000F8420600305FFF1F0000000000207047C8
:10047000704700BF704700BF154A164B1168164AF7
:1004800053F82100154B30B452F820401448154A57
:10049000256853F821300468134852F8211050F8A9
:1004A000242003FB05F301EBE33302FB03F31B12F0
:1004B00003F30E0303FB03F1C91303EB630203FB16
:1004C00001F3A2EBA3335B0040F8243030BC70474B
:1004D000843F0220C06A0120CC4BFF1FC847022086
:1004E000E86A0120883F022054640120194B1A4A0F
:1004F00070B41C68194B52F82410194A53F8211093
:10050000184B086852F8242053F8243002FB00F0FE
:1005100003EB604080F30800134B144C1D68144E2D
:1005200054F8253003F500418911C0F1FF0236F976
:1005300011100912403103FB01F1891103FB02F391
:100540001A1200FB01F302EB232344F8253070BCA0
:10055000704700BF843F0220C06A0120CC4BFF1FC0
:10056000C8470220883F0220E86A01205464012025
:100570000C5804001D4B1E4A1B681E4952F82300EC
:100580001D4A51F820101D4852F82320096850F8E0
:10059000233002FB01F2DB0170B403EBE222A2F391
:1005A000CF121749174B0C68174813405111002BF5
:1005B00001F1080601F1070550F8241011DB41FA9A
:1005C00006F2B240294103FB02F2A940C3F1200325
:1005D000521103FB01F302EB631340F8243070BCAB
:1005E0007047013B63F01F030133E8E7843F0220BB
:1005F000C06A0120CC4BFF1FC8470220883F022061
:10060000E86A01201F000080546401201B4B1C4A33
:100610001B681C4952F823001B4A51F820101B4844
:1006200052F82320096850F8233002FB01F2DB0165
:1006300030B403EBE22282F30F02154B154C1D6818
:1006400054F8251045F2F05303FB01F302EBE333BA
:1006500003F30E0303FB03F0C01303EB630103FB7F
:1006600000F3A1EBA333A3EBA20303FB02F203EB22
:10067000A23344F8253030BC704700BF843F0220CD
:10068000C06A0120CC4BFF1FC8470220883F0220D0
:10069000E86A012054640120234A244B1068244A4C
:1006A00053F82010234B52F82110234A096853F8BD
:1006B000203052F8202003FB01F3920470B402EBC7
:1006C000C30383F31D031D4A1D4C116854F82120F8
:1006D0001A44934244F821201ED91A4B1A4D53F85C
:1006E000203055F82140194E5B11083344FA03F2CB
:1006F00002FA03F346F82130154A52F8202003FB92
:1007000002F3C2F1FF001A1204FB00F302EB2323F1
:1007100045F8213070BC70470B4D0C4B55F821400B
:1007200053F82130E8E700BF843F0220C06A01206F
:10073000CC4BFF1FC8470220943F0220E86A0120EB
:1007400048460220A03F0220546401208C49022028
:10075000883F0220184B194A1B68194952F8230098
:10076000184A51F82000184952F8232030B4174C89
:1007700005680868164954F8234051F8203002FBF8
:1007800005F204EBE23203FB02F203EB6212930385
:1007900093EAC23248BFC3F100435B1403FB03F288
:1007A000D212C2F5C03203FB02F35B14DB0041F846
:1007B000203030BC704700BF843F0220C06A012057
:1007C000CC4BFF1FC8470220E86A0120883F022067
:1007D00054640120424B434A4349444809682DE987
:1007E000F0471C68424B52F8242053F82220414B1A
:1007F000176850F8212053F824300132B2F5006F09
:1008000028BF002240F821203B4803FB07F350F8A3
:1008100024701B143B44032B5FDD40F2FF779F42A3
:10082000A8BF1F463846DFF8E0E0344D5EF821608F
:1008300055F82130DFF8D4C0DFF8D4804FEAC12961
:10084000101A76104A44C6EB6306C0F30A004CF84F
:1008500022604844DFF8BC9058F824205CF820C09F
:10086000274E59F82400DFF8B0804FEA421A58F8B2
:100870002440DFF8A88000FB0CF2CAF5FF5956F8B7
:10088000210048F821C009F11F09D2110AFB02FA20
:1008900000FB09F004FB0CF2C4F1FF0403FB04F3BA
:1008A0001212184C401300EB6A3002EB23234EF86F
:1008B000210046F821005B10276003F30E0303FBC1
:1008C00003F0C01303EB630203FB00F3A2EBA333BB
:1008D0005B0045F82130BDE8F08704200746A2E719
:1008E000843F0220C06A0120E86A0120586F01207D
:1008F000CC4BFF1FC8470220943F022054640120C4
:100900008C49022070370220C05FFF1FE074012075
:10091000AC3F0220A03F0220883F0220A8680120AF
:10092000214B224A22491068F0B5D3F800E0214D4E
:10093000214B55F8206053F82E20204B51F82070A1
:1009400053F822201E4BD2F800C053F82E2086EA1E
:10095000E674A4EBE67401342744A30A02FB0CF20C
:100960000833B7FBF3F3FF1AA3F57F5341F8207068
:100970003F3B911203F30E03124A52F82E2001EB73
:10098000022282F30F02C2F5004106FB01F65B0072
:1009900002FB03F30C49F21302EBE33345F820307A
:1009A00041F82040F0BD00BF843F0220E86A0120EA
:1009B0008C49022054640120C06A0120CC4BFF1FE7
:1009C000C8470220883F0220706F01204D4A4E4BDD
:1009D0004E482DE9F04F16684D4A53F826104D4BFE
:1009E00052F821504C494D4A4D4CD5F800E053F88F
:1009F000263050F82650086852F826102468DFF890
:100A000034A1484A5AF8247052F8262003FB0EF30A
:100A100000FB05F589059B0101EB052585F31E0506
:100A200023F0784000F10060C00050FB10F03E4918
:100A300050FB11F00139DB1601EBC000C3F10603D6
:100A400040FA03F355FB13F33849DFF8ECC051F8D3
:100A5000260037495CF824508B42C0F5006EA8BFD1
:100A60000B4605FB0EFE4FEAA508190208EB2E35D2
:100A700051FB17F0DFF8C48058F82430184452FBBB
:100A800017FEDFF8BC9059F824302B44C0EB630309
:100A9000CEEB030351FB13FEBE4451FB1EF707448C
:100AA00052FB1EF2C7EB050BC2EB0B0251FB12F11E
:100AB000DFF890B05BF82660803E86F307061A44A4
:100AC00006FB02F2C6F17F033844921200FB03F3E7
:100AD000C2EBA32303F30E0303FB03F0C01303EBEA
:100AE000630203FB00F3A2EBA33371445B004AF8FB
:100AF000241049F8245048F824704CF82430BDE8FC
:100B0000F08F00BF843F0220C06A0120AC3F02206A
:100B1000CC4BFF1FC847022074740120883F02207D
:100B2000E86A0120306A0120ABAAAA2A943F022079
:100B3000E7105200A074012054640120586801207D
:100B4000D0480220A03F0220044B054A1968054BFB
:100B500052F8212053F82230184700BFD8650120F1
:100B60001C460220F8430400574B584A186858495D
:100B70002DE9F04FC3B2574FD25C574C57F82220A3
:100B800054F82040166883B0002E25460194D4BF47
:100B90000024012403EB840386EAE672A2EBE672EA
:100BA00051F8233033FB02F3C2F5FF427F3235FBAD
:100BB00002F24A49DFF838910D78494919F805C021
:100BC0000978DFF83081DFF830E1DFF830A14FEA53
:100BD0004C1CCC0058F80C60DEF800C0C1EB040ED1
:100BE00001EB8E0EB64401EB410B9E1886EAE673CC
:100BF0004FEA4B02A3EBE67357F82E6005EB020EAB
:100C00005AF8205036682B44364D4AF8203055F8B3
:100C10002E5006FB05F6DFF8E8E00CF102055EF861
:100C2000255005EB662686F31006DFF8D8A05AF8A3
:100C30002050760005FB063393EA430548BFC3F115
:100C400000435B1403FB03F6F612C6F5C03603FB44
:100C500006F3254D2D7819F805607601641A58F8C9
:100C6000066001EB840131442A4457F821401D49B4
:100C700051F8221022685C1404EBE3434AF8203058
:100C800002FB01F25EF82C10019B01EB622204FBD7
:100C900002F21213C3F1004352FB03F31C4463043A
:100CA00093EA844248BFC3F100435B1403FB03F2A1
:100CB000D212C2F5C03203FB02F30C4A9B1342F876
:100CC000203003B0BDE8F08FCC6A0120946A012087
:100CD00038740120CC4BFF1F08740120286B0120C1
:100CE0007074012098660120246B01205464012057
:100CF00000C00200104DFF1FD8650120A83A022055
:100D00008874012034680120694B6A491B7809788E
:100D10006948DFF8C4C100682DE9F04FDFF8BC91E5
:100D2000DFF8BC8119F80320644E5201C1EBC10504
:100D300058F8022001EB85052A4401EB41014900E6
:100D40000B44044656F822005CF82320036883B065
:100D500003FB02F2DFF88CB10194A31C92015BF853
:100D6000233002EBC33282F31F025548554B04680F
:100D7000DFF874E15FFA84FA520013F80A0056F8BB
:100D800020000368002BD4BF0027012783EAE3700B
:100D90000AEB8707A0EBE3704B4B53F8277037FB48
:100DA00000F74A4BC0F5FF407F3053F8243033FB47
:100DB00000F0474B93F800A019F80A904FEA491940
:100DC0008A4458F809105CF82A30294456F8211052
:100DD000096801FB03F5019B5BF823106D1205EB1D
:100DE000510585F30F05C31983EAE370A0EBE370A7
:100DF0005EF82430C010034400EB030803F1804A7E
:100E0000190C4FEA1A4A00EB0803A1F5802100EB08
:100E1000030BAAF5802A01EB184108F180480AEB80
:100E2000184903F1804C00EB0B0A01EB134109EB6D
:100E30001C4802EB0A0600EB0A0901EB1B410BF10F
:100E4000804C02EB090A08EB1C4C01EB164100EB4D
:100E5000090806F180460CEB164701EB1A410AF12E
:100E60008043404402EB080C07EB1346171801EBD4
:100E70001C420CF1804106EB114302EB174207F1D3
:100E8000804103EB114152424942D210C91005FB87
:100E900002F2C5F50043D21303FB01F30D494EF8EE
:100EA000240002EBE33341F8243003B0BDE8F08FB7
:100EB000286B012070740120D8650120CC4BFF1FE6
:100EC000CC6A0120946A0120387401200874012042
:100ED000246B0120546401209866012000C00200A8
:100EE000104DFF1F88740120A83A0220664BDFF8DE
:100EF000C8C11B7865491CF8032009782DE9F04F1B
:100F00005201DFF8B8E1624C5EF802002268614FDE
:100F100083B0CE0014460092721A01EB82020244A2
:100F200001EB410557F822006D005A1903685A4831
:100F300050F8222003FB02F22346DFF884B102338B
:100F400092015BF8233002EBC33282F31F0252009E
:100F5000B2F1806FC0F093806FF0806800234FF093
:100F60000009904579EB0300C0F28C804B4B4C4854
:100F70001C684C4BDFF84C915FFA84FA10F80A00B9
:100F800057F82000006801900028D4BF4FF00008F7
:100F90004FF001080AEB88080028B8BF404253F818
:100FA000283033FB00F8404BC0F5FF407F3053F84A
:100FB000243033FB00F008EB000383EAE378A8EB6E
:100FC000E37859F824304FEAE808434408EB03007B
:100FD00093428CBF012300239042404488BF0133D9
:100FE0009042404488BF01339042404488BF01335F
:100FF0009042404488BF01339042404488BF01334F
:101000009042404488BF01339042284A49F8240066
:1010100012781CF802004FEA4010A6EB01065EF8B9
:10102000000001EB86010144154457F821201A49BC
:10103000126851F8251088BF01335B0302FB01F2EF
:1010400000995BF82110921202EB910282F30E02DA
:101050001748184D50F82410C832A3F5004302FB7E
:1010600003F3C2F580429B1301FB02F203EBA232B1
:1010700040F8242045F8242003B0BDE8F08F4FF05D
:10108000806273E7424671E7286B0120707401208B
:10109000D8650120CC4BFF1F98660120CC6A012047
:1010A000946A01203874012008740120246B012007
:1010B000B84302205464012000C00200104DFF1FFD
:1010C00088740120A83A0220914B92491A78087836
:1010D000DFF86CC22DE9F04FDFF868B2DFF868A2E4
:1010E0001BF802308C4E8D4C5B01C5005AF8031082
:1010F000D4F800E02B1A00EB83030B4400EB400113
:10110000490056F823300A441B685CF8222003FB90
:1011100002F2834F0EF10203920157F8233002EBE3
:10112000C33282F31F025200B2F1805FC0F0BB8075
:101130006FF08058002390454FF0000979EB0304CD
:10114000BCBF42464B464FEA524848EAC338444681
:10115000744B1B781BF8032052012D1A5AF80220F9
:1011600000EB85001044194456F820305CF821202B
:101170001B6803FB02F36C4A57F82E7010686B492A
:10118000DFF8C8C16A4D5FFA80FE7F0811F80E20B3
:1011900056F8222011680029D4BF002201220EEB4C
:1011A000820E07F6F41202EBA32781EAE173A3EBA8
:1011B000E1735CF82E6036FB03F65E4AC3F5FF432D
:1011C0007F3352F8202032FB03F3334483EAE37683
:1011D000A6EBE37655F82030B1105E18730C43454A
:1011E00080F08780C3EBC3335B0093FBF4F3A3F57C
:1011F000FF437F3B0E44720C90456ED8121BC2EB2E
:10120000024E02EBCE3E02EB4E02C4F5004E92FBC4
:10121000FEFE0EF5FF4E0EF17F0E73440E44720C6F
:1012200090454FD8121BC2EB024E02EBCE3E02EBB2
:101230004E02C4F5004E92FBFEF202F5FF427F32F1
:1012400002EB030E0E44730C984530D81B1BC3EB06
:10125000034C03EBCC3CC4F5004203EB4C0393FB83
:10126000F2F202F5FF417F3101EB0E02921007FB13
:1012700002F3C3F3CF3383F400432F4A45F82060D1
:10128000191202EB410532F91120B5F902102B4C6D
:10129000DBB2891A03FB01F302EB23231BB244F8F0
:1012A0002030BDE8F08F4FF40064A04650E7C3EB58
:1012B000C331490091FBF4F1A1F5FF417F3901EB06
:1012C0000E02D3E7C2EBC232520092FBF4F2A2F557
:1012D000FF427F3A02EB030EB4E7C2EBC23E4FEA95
:1012E0004E0E9EFBF4FEAEF5FF4EAEF17F0E734444
:1012F00094E71B1BC3EB034E03EBCE3E03EB4E0305
:10130000C4F5004E93FBFEF303F5FF437F3371E713
:10131000286B012070740120CC4BFF1FD865012081
:1013200088740120246B0120CC6A0120946A01207A
:10133000A83A022008740120AC88040054640120FB
:101340009866012000C00200104DFF1F3874012074
:101350002DE9F04F8F4B90491B78904A91F800E0AF
:10136000D25C8F4885B04FEACE010C465201039102
:101370008C498958026801921546CEEB04020EEBA7
:101380004E000EEB82020A44410008460291864953
:1013900051F822101A180B68844951F8220003FBF7
:1013A00000F0834B53F82530C00000EB033080F38E
:1013B0001E00804A804BD2F800C07B49DFF81492AF
:1013C0007E4F5FFA8CF60CF1040A9B5D59F82A20D7
:1013D00051F8233059F82C101D68002DD4BF00237C
:1013E000012306EB8303002DB8BF6D4257F823306D
:1013F00033FB05F8724FC5F5FF457F3557F82C4094
:1014000034FB05F4444484EAE473A3EBE47357F833
:101410002A709B1090424FEA83082CBFBF10002710
:10142000414538BF00223A44194490424FEA1144E2
:1014300040F29680884588BF002202253A449042B7
:10144000194498BF00274FEA114B98BF3D46884585
:1014500088BF00223A44C4F5003419449042CBEBD3
:10146000040B4FEA114440F286800135884588BF5D
:1014700000223A441944C4EB0B0B9042ABEB114BE6
:1014800074D9013D4FEA85384E48444C0078039F9B
:10149000245C444D6401CEEB07072C59434D0EEB01
:1014A000870EA644029C044420463F4C55F8207009
:1014B00054F82E40206800FB07F0019C3C4D02349C
:1014C000801255F8244000EB540080F30F004710C1
:1014D0004FEAAB0B00F50040C7F57E5700FB0BFB56
:1014E0002C37C7EB2B4BD845374F4546B8BF5D4629
:1014F00047F82C5003F31205344B354C53F826E0D3
:101500006D034FEACE3050FB14F857F826404FEAEF
:101510004E00C8EB040455FB10FBDFF8BC8058F804
:101520002600584448F82600241A55FB14F5754443
:1015300043F82650831003F30E0303FB03F4E41374
:1015400003EB630003FB04F3A0EBA3335B0049F858
:101550002C1047F8263049F82A2005B0BDE8F08F56
:10156000884511D900273A46012567E74DB1033D6B
:101570004FEA853888E715B1013D002776E72F4609
:1015800074E7DFF858807FE7194400274FEA114BD2
:101590003D465CE7246B01207074012000C002000E
:1015A000D8650120104DFF1FCC4BFF1F986601200E
:1015B00088740120CC6A0120946A012038740120CB
:1015C00008740120286B0120546401202C6C012038
:1015D000E0220200A83A02207C6501200080FFFF83
:1015E000044B054A1968054B52F8212053F8223064
:1015F000184700BFD86501201C4602207818030058
:10160000854A864B86491B7886482DE9F04FD2F8EB
:101610000080854A854C32F9132031F913305FFA86
:1016200088F1C1EBC10A01EB8A0A524403F58063D9
:1016300054F8222030F91350136885B05B0103FB86
:1016400005F37B4A156833FB15F37A48DFF820E28F
:101650000078794E1EF80050784C794F54F82840A5
:101660003F6800976D0101EB410175596F4E55447C
:1016700049000844029156F82510724D096855F842
:1016800020709D0005EB440501FB07F76E4B0098A9
:1016900053F8203003EB670787F318076B4B196883
:1016A0003F0152F8214054FB07F4694B694FDFF8C2
:1016B000C4911B7840014FEA411C3A581E4659F824
:1016C0000C301EF806E0CDF80CE02A4438441344F0
:1016D00049F80C306711031D08FB174793E81841C0
:1016E0000196D0F814B08669C069AB442B442C44F1
:1016F000A844AE442E440544C7EBC700C0EBC0006D
:10170000ABEBA01B07EB870007EBC00004EBA014BA
:101710002B2000FB07F0A8EBA01807EB4700C7EB56
:1017200000100EEBA01E352000FB07F009EB0C02A9
:1017300006EBA016C7EB0710DB1BC7EB8007A5EB7A
:10174000A715576850693B4497685360584404EBA9
:10175000070BD76894695061B84426441769D46967
:10176000C2F808B077442544C2F80C80176196612E
:10177000D56159F80CE0039C374ADB0C03EBDE43E0
:101780004FEA441C03EBDB432B4C03EBD84854F8E3
:101790000C4008EBD74808EBD040A24400EBD646FB
:1017A000224C06EBD54554F82A3002982B4C019E6A
:1017B0001B68C5F5FF457F35304444F82150214C66
:1017C00042F8215054F8202003FB02F3009A2448E9
:1017D00002329B1250F8222003EB920383F30E0394
:1017E000204F214E214C56F8210003FB05F5C3F58F
:1017F0008042AB1357F8215005FB02F503EBA535EA
:10180000A842B8BF284647F8215044F8215046F86E
:10181000210005B0BDE8F08F70740120DC5FFF1F70
:10182000BC3AFF1F540E0500683AFF1FCC4BFF1F48
:1018300008740120246B0120104DFF1F7C490220F9
:10184000D865012098660120BC740120CC6A012073
:10185000286B012008640120346801202C6B0120D2
:1018600088740120B84302206C490220546401208E
:1018700000C00200E8480220664BDFF8C0C11B78B8
:1018800065491CF8032008782DE9F04F5201DFF874
:10189000B0E1624E5EF80210C5002A1A00EB820227
:1018A0000A4483B000EB400779000C46019156F8DA
:1018B00022101A190B685A4951F8222003FB02F230
:1018C000584B59491B680233920151F8233002EBFF
:1018D000C33282F31F025200B2F1806FC0F09580D4
:1018E0006FF0806800234FF00009904579EB030109
:1018F000C0F28E804D494E4B0C68DFF848A1DFF8EE
:1019000048815FFA84FB04F1040913F80B3058F89E
:10191000291056F823301B680093002BD4BF0027F2
:1019200001270BEB8707002BB8BF5B425AF82770E3
:1019300037FB03FADFF814B1C3F5FF437F335BF8DD
:10194000247037FB03F33B4F3F781CF807C04FEA86
:101950004C1C2D1A5EF80CE000EB850501987544CF
:101960003844074656F825002D4D006855F8275095
:1019700000FB05F003EB0A0585EAE57358F82460DF
:10198000A3EBE5735BF829509B10F7182844BB4282
:1019900088BF002180100144914203EB07058CBFF2
:1019A0000126002697428CBF01270027954288BF59
:1019B0000137AB4288BF0021014491421D4488BFDA
:1019C0000136954288BF0137AB4288BF00210144F0
:1019D0001D44914288BF0136954288BF0137AB4212
:1019E00088BF00210144914288BF01367603124B23
:1019F00048F82450C6F50046A6EB473648F82910AB
:101A000043F8246003B0BDE8F08F4FF0806271E7C7
:101A100042466FE7286B012070740120CC4BFF1FFA
:101A200098660120D865012088740120CC6A0120C5
:101A3000946A0120246B01205464012000C002003C
:101A4000104DFF1F38740120A83A022008740120AD
:101A5000304B31491A78314B09681B783048DFF830
:101A6000DCC02DE9F04D2F4EDFF8D480B55C50F886
:101A70002140DFF8D0A0DFF8D0E02B4F6D01C3EBA1
:101A8000C30003EB800058F805503F6803EB4303A5
:101A90005B0005441A445EF825B05CF822505AF801
:101AA0002120DBF800B014444AF821400BFB05F27A
:101AB0001E4CBD1C54F8255002EB452222F3972200
:101AC0001B4D2D78765D76012B4458F806505CF856
:101AD000236028445EF820301B6803FB06F354F8AB
:101AE00027009B1203EB900383F30E03114C124D5E
:101AF00054F8210003FB02F2C3F58043921300FB6C
:101B000003F302EBA33344F8213045F82130BDE85C
:101B1000F08D00BF286B0120CC6A01207074012079
:101B20000874012000C00200D865012088740120DB
:101B3000246B0120B84302205464012098660120E0
:101B4000104DFF1FA83A0220CC4BFF1F414BDFF87E
:101B500030C141482DE9F04F1C78DFF828813F4B18
:101B600018F80410D3F800903D4B3E4F1A68DFF888
:101B700018B150F82250DFF814A13BF81260DFF8DA
:101B800010E149015FFA89F35CF80110C3EBC3006F
:101B900003EB8000014483B057F8211003EB4303AB
:101BA000096801915B005AF8221001361C442BF899
:101BB00012602D4E5EF824400D444AF822500199DF
:101BC000356801FB04F1294EAC1C56F8244001EBAA
:101BD000141101F30E01264C54F8294004FB01F1C5
:101BE000891201F30E01234C247818F804804FEA7F
:101BF000481823445CF808405EF823E0204457F876
:101C000020301B6803FB0EF356F825009B1203EBF4
:101C1000900383F30E03184D184E55F8220001FB74
:101C200001F7FF1301EB610401FB07F1A4EBA13104
:101C3000C3F5804700FB07F04900801303FB01F365
:101C400000EBA33345F8223046F8223003B0BDE85C
:101C5000F08F00BF286B01200874012070740120F0
:101C6000CC6A0120CC4BFF1FD8650120887401206D
:101C70000C6B0120246B0120B84302205464012026
:101C8000104DFF1F00C00200B8670120A83A0220D3
:101C900098660120044B054A1968054B52F821202B
:101CA00053F82230184700BFD86501201C46022097
:101CB000E40605006D4B6E4A1B781278DFF8E0C130
:101CC0006C496D48096800682DE9F04FDFF8D48150
:101CD0006A4E18F803706A4CDFF8CCE17F01C2EB62
:101CE000C2055CF8077085B002EB850502EB420285
:101CF0002F445200134403920A1D56F82790029273
:101D000054F822205EF823700192D9F8003003FBCA
:101D100007F35C4F57F8207007EBE30383F31803D6
:101D2000594F9B0157F8219059FB03FB574B5FFA22
:101D300081FA13F80A3056F823301A68002AD4BF03
:101D40000027012782EAE2730AEB8707A3EBE2731D
:101D50004F4A52F8277037FB03F7C3F5FF437F3331
:101D600039FB03F3DFF8449199F800A018F80A80D2
:101D70004FEA48181F445CF808301D44039B534445
:101D80001A46002F56F825305EF822201B68B8BF8F
:101D90007F4203974FEAA70E03FB02F33D4A851CDF
:101DA0005B1052F8252003EB022383F3180354F849
:101DB0002170DFF8FC909D0C3A0E6E1C019F3602DC
:101DC0004FEA176CC00302EB06082D0280446644FC
:101DD0002A446544024406442844C3F38F0339F976
:101DE000185039F9166039F912C039F91080C3F565
:101DF0007F4003FB05F5373000FB0CFC03FB06F3CB
:101E00002D1454F821600EEB0B0A05EB2C4200FB5D
:101E100008F01B14039D03EB204006EB4E0B07EB71
:101E20004A0302442F13F3440AEB030087F30E071F
:101E3000194B1A4D53F82160521007FB02F2C7F5F7
:101E40008047921306FB07F702EBA737029A43F885
:101E500021700EEB0B06504444F8216045F82170C8
:101E600044F8220005B0BDE8F08F00BF246B0120CC
:101E700070740120CC6A0120D8650120CC4BFF1F73
:101E8000A83A0220BC74012008740120946A012041
:101E900038740120887401202C6B012054640120C7
:101EA000104DFF1F00C0020098660120286B012022
:101EB000F05FFF1F044B054A1968054B52F82120BB
:101EC00053F82230184700BFD86501201C46022075
:101ED0002C740400924B93491B7893482DE9F04FE2
:101EE000DFF864920C7819F80320DFF86082DFF8DD
:101EF00060E206685201E70058F802103A1B04EB52
:101F0000820283B00A4404EB440B4FEA4B010B44BA
:101F100001915EF822208549126851F8230002FBE6
:101F200000F0834B834A1D68DFF828C2824B5FFABA
:101F300085FB001112F80B205EF82220D2F800A0D9
:101F40005CF82620BAF1000FD4BF002101210BEB71
:101F5000810100EB02108AEAEA72A2EBEA7253F8FE
:101F6000211031FB02F37549C2F5FF427F3251F86F
:101F7000251031FB02F1DFF8E0A10B4483EAE371A5
:101F8000A1EBE3715AF8253089100B4493EA430B17
:101F90004CBFC3F100421A464FEA624B0BFB0BF2F7
:101FA000D212C2F5C0320BFB02F2DFF8B0B19BF8DF
:101FB00000B019F80B904FEA49193F1B58F80980F7
:101FC00004EB8707019C47445C44A3465EF8274026
:101FD000564F246857F82B7004FB07F4B71C5CF8C5
:101FE000277004EB072484F31804DFF874E1544FDE
:101FF000DFF87081DFF8709176444FEA245EB6789E
:102000000EF1010C06EB0616B4445214764400FBA4
:10201000023257F82CE057F82670D20D0B443EF9E7
:1020200012B037F912C0C8F80070C4F30F12C2F52D
:102030007F4602FB0BFBFF3693EA43081C464FEA40
:102040002B4B06FB0CFC48BFC3F10044C9F800E071
:102050000BEB2C4C641404FB04F84FEAE828C8F599
:10206000C03804FB08F4641400FB0434E40D0B4492
:102070003EF9148037F9149002FB08F84FEA28441F
:1020800006FB09F804EB2848E04493EA430C1C469D
:1020900048BFC3F10044641404FB04FC4FEAEC2C79
:1020A000CCF5C03C04FB0CFC4FEA6C4C00FB0C3C38
:1020B0004FEADC5C0B443EF91C4037F91C104AF82F
:1020C000253002FB04F4241406FB01F104EB21414A
:1020D000884493EA43011C4648BFC3F1004464149A
:1020E00004FB04F1C912C1F5C03104FB01F464140E
:1020F00000FB0430C00D134B3EF9104037F91010AF
:1021000002FB04F2121406FB01F602EB2646B04471
:102110004FEAA80643F8256003B0BDE8F08F00BF82
:10212000246B012070740120D8650120986601207D
:10213000CC6A0120946A01203874012008740120BF
:102140009C49FF1F5464012000C00200104DFF1F76
:10215000CC4BFF1F88740120A83A0220286B012075
:10216000D040FF1FAC470220D8430220684A694B89
:1021700069492DE9F04F1468DFF8C0E1E2B29B5CD9
:102180005EF823301B68002BD4BF0020012002EB37
:102190008002002BB8BF5B4251F8220030FB03F1F4
:1021A0005E4AC3F5FF437F3352F8240030FB03F04F
:1021B0005B4B5C4D1E785C4AAF5D12785B4BDFF881
:1021C00080C1DFF880917F01C2EBC20A53F807801B
:1021D000D9F8007002EB8A0AD04402EB42025200A6
:1021E00008445EF8288016440028B8BF4042D8F85A
:1021F00000105CF8266001FB06F14D4E07F1020865
:1022000056F8286001EB062181F31801494EDFF8EA
:1022100038B13678DFF8349115F806800BEB0705F6
:102220004FEA4818AD7853F80830DFF824814FEAB8
:10223000215B9A4405EB051532440BF10106AB44D2
:1022400035445EF82A30DFF80CE159F82B6059F874
:1022500025501B685CF82220C8F80060C1F30F11FC
:10226000CEF8005003FB02F3334A52F8272002EB6A
:10227000E30383F31803DB0150FB03F3DFF8D8E03B
:10228000DFF8D8C05EF824201F183A444EF8242006
:1022900004F10408C31A5EF828703B444EF8283055
:1022A00004F10808DB0D5EF8287036F913A035F943
:1022B00013B0D20D3844C70D36F9129036F91730E5
:1022C00035F9122035F917504EF828004FEA690900
:1022D0004FEA6A0AC9EB6202CAEB6B0B5B1001FBA7
:1022E00002F201FB0BFBC3EB650501FB05F109EBFA
:1022F00022490AEB2B4A03EB2143CA44534445F2DB
:10230000555101FB03F3DB134CF82430BDE8F08F8B
:10231000CC6A0120946A01203874012008740120DD
:10232000286B012000C0020070740120104DFF1FB7
:1023300088740120246B0120BC740120CC4BFF1F4A
:1023400098660120D8650120D040FF1F9C49FF1FDF
:10235000AC470220D8430220A83A0220546401204E
:102360008B4A8C4BDFF860C28B492DE9F04F156822
:10237000EAB287B09B5C5CF823301B68002BD4BFAB
:102380000020012002EB8002002BB8BF5B4251F815
:10239000227037FB03F7DFF83492C3F5FF437F3336
:1023A00059F8252032FB03F37C4ADFF824821478A5
:1023B0007B4A18F804607B481278DFF818B2009561
:1023C000760150F8255001955BF806607649C2EB1E
:1023D000C20502EB85052E4402EB420252005CF876
:1023E00026601444366851F8244006FB04FE6F4E04
:1023F0006F4C3678246818F8068032444FEA481843
:1024000051F82210009A5BF80880161D454459F8CF
:1024100026905CF8255050F826202D68CE444FEACF
:10242000AE0E05FB01FA634D04F1020C55F82C5079
:102430000AEB052585F318055F49DFF89CC13B448D
:10244000002B0C44B8BF5B420199A7789B10C918B8
:102450004FEA255828BF002272445C1807EB071783
:1024600008F101090191B9444FEAD25128BF002275
:102470000291724413EB040B49464FEAD25A28BF2B
:102480000022474413EB0B0902EB0E035CF82120FA
:1024900001995CF82770DFF844C14FEAD3584FEA3E
:1024A000915128BF00239E4440F826E03CF911607A
:1024B000029903964FEA9B5B32F9116037F91110CC
:1024C00001913CF91B100291009932F91A3040F841
:1024D0002190A40D4FEA99513CF914403CF91100A8
:1024E0000494C5F30F1537F91AA00590C5F57F447C
:1024F000049832F91810FF3404FB0AFC4FEADE5E40
:102500004FEA600A019832F91E9037F91EB037F988
:1025100018E004FB00F8039805FB03F305FB06F63F
:1025200005FB01F11B1405FB09F54FEA6009029850
:1025300003EB2C43361404FB0EFE0AFB03F306EBFD
:1025400028464FEA600A0914059804FB0BF401EBD6
:102550002E41DB1309FB06F62D1405EB244503EB96
:10256000E6360AFB01F94FEA600C144C1449154B8E
:1025700027600CFB05F006EBE93909EBE030009C25
:102580001A60401041F8240007B0BDE8F08F00BF8A
:10259000CC6A0120946A012038740120246B012048
:1025A00070740120A83A022098660120286B01204F
:1025B000D865012088740120D040FF1FAC4702205D
:1025C00054640120D8430220CC4BFF1F0874012023
:1025D00000C00200104DFF1F9C49FF1F0C58040053
:1025E000044B054A1968054B52F8212053F8223054
:1025F000184700BFD86501201C460220F4B702002E
:10260000524A534B106853492DE9F04FC2B2524F12
:102610009B5C57F823301D68002DD4BF0024012493
:1026200002EB840285EAE57383B0A3EBE57351F80E
:10263000221031FB03F1DFF848C1C3F5FF437F33BC
:102640005CF8202032FB03F3444A19440029145C4F
:10265000B8BF49420191002C6FD1414C54F8203051
:102660000199012515543F4ADFF8189116783E4A22
:1026700019F806A01278DFF81081DFF810E14FEAB0
:102680004A1AC2EBC20558F80AA002EB8505AA4413
:1026900002EB4202520057F82AB0164401EB030A3B
:1026A00044F820A0DBF800305EF8266003FB06F358
:1026B0002E4E96F800B019F80B60760100F104096F
:1026C00058F806805CF82960454401EB060C9344F9
:1026D00054F8292057F8255063449E1844F829607F
:1026E0002B685EF82B2003FB02F2214BDFF8A0C021
:1026F0001F68204D00F1080E023754F82E305CF8A8
:10270000277003EB8707F60D4FEADA53394411447B
:1027100044F82E1035F9132035F9163002FB03F377
:10272000C90DDB1335F9112003FB02F3124ADB1349
:1027300042F8203003B0BDE8F08F094C0F4D54F83B
:10274000203055F820509D428AD88CE7CC6A012071
:10275000946A012038740120CC4BFF1F506D01207A
:10276000A83A0220246B012070740120286B0120FC
:10277000D865012070E00200546401206C490220F9
:102780000874012000C00200104DFF1F9866012050
:10279000BC740120524A534BDFF878C152492DE9ED
:1027A000F04F1468E2B283B09B5C5CF823301D6884
:1027B000002DD4BF0020012002EB800285EAE573E2
:1027C000A3EBE57351F8220030FB03F0DFF84891EA
:1027D000C3F5FF437F3359F8242032FB03F3434A08
:1027E000434E115D18440028B8BF404201900029B3
:1027F0006DD156F824500198012313553D4BDFF855
:102800001CE193F800A03C4A1EF80A1012783B4BDA
:10281000DFF80C814901C2EBC207595802EB870768
:1028200007EB010B02EB420251008A445CF82B20BB
:1028300058F82AA01268054446F8245002FB0AF210
:10284000DFF8E0A09AF800A01EF80AB004F1040E28
:102850004FEA4B1B59F82E9053F80B301F4400EBF6
:102860000903134456F82E205CF827705144134492
:1028700058F821103A6846F82E3002FB01FC204A35
:102880002049D2F80090204A204FED0D04F1080EA7
:1028900031F915A009F1020503EBCA3352F82550AE
:1028A00056F82E20DB0D02EB850531F91320034687
:1028B0002B441846604400EBC232D20D46F82E007D
:1028C00031F9123047F8243003B0BDE8F08F104BD7
:1028D00056F8245053F82430AB428CD88EE700BF12
:1028E000CC6A0120946A012038740120506D0120C7
:1028F000A83A0220246B012070740120104DFF1FA4
:10290000D865012070E00200BC74012054640120ED
:102910006C490220CC4BFF1F0874012000C002004C
:1029200098660120286B0120624A634B1168634856
:102930002DE9F04FCAB2DFF8B0E19B5C5EF82330BE
:102940001D68002DD4BF0024012402EB840285EA17
:10295000E57383B0A3EBE57350F8220030FB03F07E
:10296000DFF88881C3F5FF437F3358F8212032FB1D
:1029700003F3534A534D545C0344002BB8BF5B42EE
:102980000193002C40F08C8055F82140019B0120E0
:1029900050544D4ADFF858A117784C4A1AF80700EE
:1029A0001278DFF85091DFF850C14001C2EBC20647
:1029B00059F8000002EB860606EB000B02EB420220
:1029C000500007445EF82B205CF8277012681C4406
:1029D00045F8214002FB07F23D4F97F800B01AF886
:1029E0000B707F0101F1040A59F8079058F82A701A
:1029F0004E4403EB070855F82A305EF826608344FE
:102A000008EB0200C71832685CF82B0045F82A7002
:102A100002FB00FC2F4A30481268304E01F1080ECC
:102A2000023255F82E3050F82200E40D03EB8000FE
:102A3000019B36F9142003446344D0031C18384426
:102A4000E40DC00D45F82E3036F9100036F914307B
:102A500003FB00F393EA430048BFC3F100435B1458
:102A600003FB03F0C012C0F5C03003FB00F35B149E
:102A7000DB0002FB03F393EA430248BFC3F10043C8
:102A80005B1403FB03F2D212C2F5C03203FB02F364
:102A9000134A5B14DB0042F8213003B0BDE8F08F2D
:102AA000104855F8214050F82100A0427FF671AF40
:102AB0006CE700BFCC6A0120946A012038740120C1
:102AC000506D0120A83A0220246B0120707401206F
:102AD000286B0120D8650120BC74012070E0020041
:102AE000546401206C490220CC4BFF1F0874012064
:102AF00000C00200104DFF1F98660120614B624A22
:102B000062492DE9F04F1C68614DE3B2D25C55F883
:102B100022201668002ED4BF0020012003EB800382
:102B200086EAE672A2EBE67251F8237037FB02F7F1
:102B3000584BC2F5FF427F3253F8243033FB02F288
:102B4000554BDFF8709193F800E0544B19F80E00E4
:102B50001978DFF86481524E524BDFF860C14001B2
:102B60003A4458F800B01F6856F82430C1EBC10051
:102B700001EB8000834401EB4101490082EAE27AE3
:102B8000AAEBE27A8E4455F82B20534446F82430C1
:102B900012685CF82E6002FB06F2DFF824E1BE1C2E
:102BA0005EF8266002EB062282F318023E4E36786B
:102BB00019F806904FEA4919314458F809605CF851
:102BC00021C03044C2F34F1655F82010096801FBAC
:102BD0000CF55EF827106D1005EB0125A5F3102507
:102BE0003249DFF8E0E011F827704FEAC70C520DC8
:102BF0000CEB0700104419093EF8100001FB00F02F
:102C000090EA400848BFC0F10040401400FB00F8C3
:102C10004FEAE828C8F5C03800FB08F067440132E5
:102C20003A4440143EF8122001FB02F292EA4201BB
:102C300048BFC2F10042521402FB02F1C912C1F5B1
:102C4000C03102FB01F2C0EB624206FB02F200EB74
:102C5000224093EA430248BFC3F100435B1403FBE5
:102C600003F2D212C2F5C03203FB02F35B14C01AA6
:102C700005FB00F003EB20430D4ADB0042F8243053
:102C8000BDE8F08FCC6A0120946A012038740120DD
:102C9000CC4BFF1F08740120286B012070740120A9
:102CA000A83A0220D8650120246B01201C4602208E
:102CB0005464012000C00200104DFF1F98660120DF
:102CC0008874012060960300724A734B1068734940
:102CD0002DE9F04FC2B2724F9B5C724C57F8233013
:102CE00085B0051D1E68039554F825500295002EE9
:102CF00054F820500195D4BF0025012502EB850230
:102D000086EAE67300F1080EA3EBE67351F8222081
:102D100032FB03FB644AC3F5FF437F3352F82020A4
:102D200032FB03F3614ADFF89CA192F800C06049CE
:102D30001AF80C200978DFF89091DFF890815D4D4A
:102D40005201C1EBC10659F802202D6801EB86063D
:102D5000324401EB41015B44490057F822208C4486
:102D6000002BB8BF5B420093126858F82CC002FBDE
:102D70000CF2DFF85CC15CF82530521202EB530212
:102D800082F30F02DFF84CB1009B9BF800B01AF8F9
:102D90000BA04FEA4A1A594459F80A9058F82110E2
:102DA0004E444FEA634857F8266002FB08F736683E
:102DB00002EBE72206FB01F1AF1C49125CF8276029
:102DC00001EB560181F30F013B4EDFF80CC13B4F85
:102DD0005CF825C0354457F82C602D7957F82570DC
:102DE0001D4607FB03F754F82E3003EB171797EA3D
:102DF000470301FB08F806FB05F54CBFC7F1004C83
:102E0000BC4601EBE8212D094FEA6C4C0CFB0CF69B
:102E1000F612C6F5C0360CFB06FC029B2B441D4681
:102E20001E464FEAAC3C95EA450301FB0CFC48BF4B
:102E3000C5F100464FEAEC0C761406FB06F1C91208
:102E4000C1F5C03106FB01F6B613009B02FB06F28A
:102E500003EBE203019A6344134493EA43021946E5
:102E600048BFC3F10041491401FB01F2D212C2F57F
:102E7000C03201FB02F1124A44F82030039B89134F
:102E800044F8235042F8201044F82E7005B0BDE8F5
:102E9000F08F00BFCC6A0120946A012038740120B1
:102EA000CC4BFF1FA83A022008740120246B01209C
:102EB00070740120D8650120D040FF1F74590200B2
:102EC0005464012000C00200104DFF1F98660120CD
:102ED00088740120286B01201C460220784A794B17
:102EE0001168DFF810C278482DE9F04FCAB2DFF858
:102EF00008829B5C58F821405CF823301B6883B043
:102F0000002B25460194D4BF0024012402EB840247
:102F100083EAE37BABEBE37B50F8223033FB0BF32C
:102F2000CBF5FF4B0BF17F0B35FB0BFB674ADFF853
:102F3000CCA192F800E0664A1AF80E601278DFF829
:102F4000C09164487601D50059F806700095AE1A14
:102F500002EB8606374403EB0B0550F821405CF882
:102F6000277002EB420685EAE5737600A3EBE57372
:102F70002344B6443C68584F40F8213057F82E702F
:102F800004FB07FB01F1040E58F82E4050F82E7098
:102F900004EB8B04274497EA47053C4648BFC7F13A
:102FA000004440F82E70641404FB04F7FF12C7F5C8
:102FB000C03704FB07F7494C474D94F800B0009C1C
:102FC0001AF80BA04FEA4A1AA41A59F80A9002EB11
:102FD00084044C445E445CF8244055F82660246820
:102FE0007F14BF0004FB06F93D4CDFF818B12468DC
:102FF00001F1080604F1020A50F826505BF82A4055
:1030000005EB441404EB8904A14640F8264099EAF4
:10301000490448BFC9F100494FEA694909FB09F46D
:10302000E412C4F5C03409FB04F4DFF8DCA0DFF8D7
:10303000DC904FEA136B64143AF81BA007EB84078B
:1030400059F821404FEA6A0A0AFB07F7A3424FEA00
:10305000A737244C01D3635C5BBB234B009D1B78DB
:10306000DFF8ACA0AD1A3AF913A002EB8505554480
:103070001E4A5CF8255032F91320DFF898A02B681F
:1030800002F5806200254FF0010C40F82E505B01E4
:103090003AF9122004F801C040F8265003FB02F36D
:1030A000D8F8002033FB12F3019A02EB830349F8AE
:1030B00021300F4B7F1043F8217003B0BDE8F08F33
:1030C000CC6A0120946A012038740120246B01200D
:1030D00070740120A83A022098660120286B012014
:1030E000D8650120506D0120DC5FFF1FBC3AFF1F37
:1030F00054640120CC4BFF1F0874012000C0020063
:10310000104DFF1FBC740120D03B05006C4902200C
:10311000683AFF1F540E0500044B054A1968054B19
:1031200052F8212053F82230184700BFD8650120FB
:103130001C460220883803002DE9F04F434A444BD7
:103140001578444E1A68444FDFF8308156F82260F3
:10315000424B18F80500424C1978424BDFF820B179
:10316000DFF820E1DFF8209183B04001019657F8A5
:10317000226004FB06FA3C4ECC00305859F822601D
:10318000C1EB040C534401EB8C0C47F8223084440F
:103190001B0CA3F5FF435BF82C70DFF8F0C07F3BFE
:1031A0004EF8223001EB4100D7F800A0019F40000B
:1031B000374405442D4E49F822705CF82550376895
:1031C0000AFB05FA2A4EBD1C83EAE37956F825501E
:1031D0002D09C5F5FF457F35A5EB6A3A254D2D78BC
:1031E00018F80580A9EBE379CA454FEA4818C1EB06
:1031F00004091D4C54F8088001EB8901414484BF47
:1032000000234EF8223028445BF821105CF820009F
:10321000096801FB00F156F82700891201EB9001C3
:1032200081F30E01144D55F82240C1F5804003FB97
:1032300001F3991304FB00F301EBA33345F82230AB
:103240004EF8223003B0BDE8F08F00BF286B01209C
:10325000CC6A0120087401202449FF1F70740120EA
:103260003584B30B6B631936104DFF1FD8650120F1
:1032700088740120246B01202C6B012000C0020007
:10328000CC4BFF1F54640120A83A0220986601200D
:103290004D4B4E4A4E481278DFF860C12DE9F04F91
:1032A00093F800B0DFF85891DFF8588119F80B1047
:1032B000484B494F1B68DFF850A1484C50F8230099
:1032C000D50083B049012E46019558F80150B11A36
:1032D00002EB810157F823602944414D5CF821102D
:1032E00005FB06FE02EB42056D00AB443D4E744407
:1032F00056F82BB05AF8236047F82340DFF80CE16A
:103300000968DEF800E006EB60004AF8230001FBE4
:103310000BF1DFF8FCA00EF1020BCE015AF82BA046
:1033200086EAE671A1EBE67101EBCA118C4245D247
:103330002B4E2A4906FB04F421440C0CA4F5FF444F
:103340004FEA106A7F3C284847F8231024B220F83F
:103350001A402649019E097819F801004001B61A61
:1033600058F8000002EB860202440D445CF822206B
:103370001C49126851F8251002FB01F21C4951F852
:103380002E10921202EB910282F30E02194D1A4E88
:1033900055F8230056F823100444C2F58040641009
:1033A00001FB00F102FB04F2891301EBA23246F8A3
:1033B000232045F8232003B0BDE8F08F000E0A4912
:1033C00031F91040C5E700BF286B0120707401205F
:1033D00008740120CC6A01202449FF1F6B63193651
:1033E0003584B30B98660120F4340220246B01204D
:1033F00088740120546401202C6B0120CC4BFF1FEA
:1034000000C00200104DFF1FA83A0220D86501201D
:10341000BC7401204D4BDFF86CC11B784C4A1CF882
:1034200003004C49127809682DE9F04F4001DFF89C
:1034300058E1494E5EF8004056F82100474FD5004C
:10344000AE1A02EB8606264402EB420457F82670B9
:1034500064001E1983B03B68414F019457F8266001
:1034600003FB06F33F4E404FD6F800A03F4E0AF153
:10347000020901F1040857F8297056F828405B1337
:1034800003EB573356F82170C71904FB03739842B6
:1034900046F821303FD8DFF8F4B0354E019C36783D
:1034A0001CF806707F01C2EB050C5EF80750314F27
:1034B00002EB8C0226442A44284CDB0D54F82220CF
:1034C00037F913401368264AE41052F8262003FB0C
:1034D00002F3294A52F82A2002EB632304FB03F388
:1034E000C0F100401B1353FB00F02044430493EA57
:1034F000804248BFC3F100435B1403FB03F2D212C6
:10350000C2F5C03203FB02F35B14DB004BF8213041
:1035100003B0BDE8F08F194C194F54F82140DFF883
:103520007090DFF868B007FB04F7B9444FEA194719
:10353000A7F5FF47114C7F3F44F821904FEAA709B8
:1035400046F828904BF82170A7E700BF286B0120B0
:1035500070740120CC6A012008740120CC4BFF1F3D
:1035600098660120D8650120BC740120A83A022089
:10357000246B012070E00200887401202449FF1FA1
:103580003584B30B00C00200104DFF1F54640120AE
:103590006B6319362E4A2F4B11682F4853F82120A0
:1035A00050F8213013449A42F0B540F8213049D9FF
:1035B0002A482B4A50F821602A4B2B4D2B4C02FBFA
:1035C00006F213441A0CA2F5FF427F3A40F821306C
:1035D00045F8212044F82120254B26481D78264B0C
:1035E000465D1B78254F2648DFF8A4E07601BE59DA
:1035F000C3EBC30703EB8707374450F8216003EBA5
:103600004303324405EB43035EF8276040F8212072
:103610001C4D55F82350336803FB05F31A4E1B4D20
:10362000366855F826509B1303EB951383F30B0371
:10363000C3F5806392FBF3F3D21A40F8212044F8DB
:103640002130F0BD084B094C53F82120C4E700BFDE
:10365000CC6A012008740120A83A02202449FF1FE7
:103660003584B30B6B6319362C6B01205464012035
:10367000246B012000C0020070740120104DFF1F58
:103680006C49022098660120D865012088740120C9
:10369000CC4BFF1F6C4B2DE9F04F18686B4CDFF8DB
:1036A000D8A154F820305AF8206087B033449E42A5
:1036B000039344F8203000F2A78000F1080300F1E2
:1036C000040C634A059354F8233054F82C100293E9
:1036D00052F820205F4B019104935F49DFF89C91E1
:1036E0000F785E4919F807E009785D4BDFF890B173
:1036F000DFF890814FEA4E1EC1EBC10553F80EE092
:1037000001EB8505AE4401EB410149000F445BF834
:103710002EE058F82770DEF800E00EFB07F7DFF820
:1037200068E1504BDEF800E00EF1020E53F82EE097
:103730000EEB672702FB07F757FB06F64A4A484B92
:1037400012785AF82C7019F802E04FEA4E1E114414
:1037500053F80E2058F8211015445BF82520156801
:1037600005FB01F207EB8202019B16441E4405FB98
:1037700001F1029B07EB81071F4496EA460331469D
:1037800048BFC6F10041491401FB01F2D212C2F553
:10379000C03201FB02F297EA4703394648BFC7F13E
:1037A00000415214491401FB01F5ED12C5F5C03575
:1037B00001FB05F1A2EB614202F30E0202FB02F1F2
:1037C000039BC91302FB01F102EB6202A2EBA132DF
:1037D00093EA430148BFC3F100435B1403FB03F1C9
:1037E000C912C1F5C03103FB01F35B1402FB03F303
:1037F000049A44F82C609B1242F82030059B44F850
:10380000237007B0BDE8F08F184F194D57F82020EE
:103810001849104BDFF838E0049305FB02F211441D
:103820000A0CA2F5FF427F3A43F8202000230293BE
:10383000019300F1080347F820104EF8202000F112
:10384000040C059349E700BFCC6A0120A83A022086
:103850002C6B012054640120286B0120707401201E
:10386000104DFF1F88740120246B01202449FF1F85
:103870003584B30B6B6319360874012000C0020055
:10388000CC4BFF1F98660120D86501202DE9F04F31
:10389000574B584A1D685848584F92F8008050F8C6
:1038A0002500DFF87CC1564A56491CF80840564BA3
:1038B0001278DFF870E1DFF87091544E83B0640144
:1038C000019057F8250001FB00F10B4447F8253023
:1038D000C2EBC2075EF804104D4C019802EB87075B
:1038E00002EB420252001B0C07EB010A08EB020B31
:1038F000A3F5FF43DFF8348159F825107F3B46F8E4
:10390000253054F82A3058F82BA0DFF824B11B6872
:10391000014449F82510DBF8001003FB0AF0DFF83A
:10392000149159F82130C00100EBC33080F31F001F
:10393000384B1B781CF803C04FEA4C1C1A445EF845
:103940000C3058F822201F4454F827301B6803FB22
:1039500002F4023159F82130092CD4BF1C465C1CFA
:1039600084F310042C4BDFF8D0E003FB04F4002CAC
:10397000B8BF04F57F44EFB2B8BFFF345EF827301C
:10398000241404F57A44D903640051FB14F156F869
:1039900027204FEA430C511A50FB1CFC1F4C54F8D3
:1039A0002720624444F827208A1A50FB12F213445D
:1039B0004EF8273003F30E0303FB03F1C91303EBA7
:1039C000630203FB01F3A2EBA3335B0046F827304D
:1039D000031456F82520C3F5FF437F3302FB03F39E
:1039E00002EBE3335B1046F8253003B0BDE8F08FFF
:1039F000CC6A0120246B0120087401202449FF1F98
:103A0000707401203584B30B6B6319365464012044
:103A1000CC4BFF1F286B012041A2FFFF7C650120DA
:103A200000C00200104DFF1FA83A02209866012036
:103A3000D8650120887401202C6C0120784B794ACC
:103A40007949DFF814C22DE9F04F1E78774B945D69
:103A5000774A1B781268DFF804B251F82200DFF8C9
:103A600000A287B0640103905BF80470C3EBC3004D
:103A700003EB80000744141D03EB43035B0002F1DA
:103A8000080E06EB030851F824505AF827600495F5
:103A900051F82E5036685CF82870059506FB07F53E
:103AA000644E019596F800805E4DDFF8B89115F8E8
:103AB000086059F82270604D760105FB07F55BF848
:103AC00006705E4E38442E44350C5AF820A05C4FE8
:103AD0005C4849F82260A5F5FF4BABF17F0B019DD7
:103AE00057F8247040F822B04344AE105CF823C06D
:103AF000DAF8003006EB271703FB0CFC524B534E51
:103B00001B6802338BEAEB7556F82360360AC6F55C
:103B1000FF437F33A5EBEB75A3EB6C43AB424C4EFD
:103B20005AD2B35C002B4BD0B3181D79002D46D070
:103B30001B7A002B72D0039D3D44B5F1005F84BF1A
:103B40000023B35406EB020C9CF80430002B4DD13B
:103B500006EB020C049B9CF80860002E55D1059ED4
:103B600041F82250DFF800C141F82430394F41F8C4
:103B70002E60C3F34848DB0C3CF9184037F913308A
:103B8000C5F34841ED0C04FB03F4C6F34843F60CBF
:103B90003CF911E037F915103CF9135037F916309C
:103BA000E4130EFB01F104EBE13105FB03F301EB40
:103BB000E3339B1040F8223007B0BDE8F08F0123BB
:103BC0009B00F5180DF1180C63444FF0010C05F83B
:103BD00002C0002543F80C5CB35C002BABD106EBB4
:103BE000020C039D9CF80430002BB1D0049B3B4495
:103BF000B3F1005F84BF4FF000088CF8048006EB3F
:103C0000020C9CF80860002EA9D0059E3E44B6F137
:103C1000005F84BF00278CF80870A1E70223CFE77C
:103C2000246B012000C00200A83A02207074012019
:103C3000CC6A0120286B01203584B30B6B631936E5
:103C40000874012054640120D86501208874012083
:103C5000386F01200C58040098660120104DFF1F9A
:103C6000CC4BFF1F2449FF1F70E00200704700BFCC
:103C700038B5054CA4F1F0052046103C17F0F2FED3
:103C8000AC42F9D138BD00BFBC48022038B5054C64
:103C9000A4F16005103C204617F0E4FEAC42F9D1D7
:103CA00038BD00BF40420220083010F0A7BC00BF62
:103CB00000B583B002AB012203F8011D083019469C
:103CC00010F09CFC03B05DF804FB00BF38B504465F
:103CD00000F10805D4F8A430284698474FF6FD7344
:103CE000984201D9012038BD034694F8A92094F8E0
:103CF000A81028460EF0A0FE94F88230032BF1D8CD
:103D0000DFE803F0140E080294F8A930181A84F8BA
:103D1000A900E7E794F8A830181A84F8A800E1E7AA
:103D200094F8A930184484F8A900DBE794F8A83087
:103D3000184484F8A800D5E710B5044617F01AFB1C
:103D4000204610BD10B588B00C4604A80C4917F0E9
:103D500077FD2146684617F0CBFD694604A817F0A9
:103D600069FF0146074817F09BFE684617F07AFE88
:103D700004A817F077FE044B01221A7008B010BD9A
:103D8000582E0500C8430220896F012070B5012913
:103D9000154602BF244B6A011A60244B0C469979E0
:103DA00018BF5201A14204BF21490A60D979A1423A
:103DB00004BF1F494A60197A5B7AA14204BF1C49BB
:103DC0008A60A3428CB008BF194B1A4908BFDA6059
:103DD00004A817F035FD2146684617F089FD6946AD
:103DE00004A817F027FF144917F064FF2946064678
:103DF00008A817F07DFD08A9304617F01BFF014603
:103E00000E4817F04DFE08A817F02CFE684617F074
:103E100029FE04A817F026FE094A0A4B0121117059
:103E20001C700CB070BD00BFFC6B0120186C012031
:103E3000D06A01205C2E0500642E0500C8430220D4
:103E4000896F0120A8490220083010F08BBB00BF09
:103E50000D4B1B787BB10D4A0D4910680A6810B4F0
:103E60000C4C2368821A0133B2F5FA6F236003D831
:103E70005DF8044B08607047002BF9D0064C074BE7
:103E8000246843F82420F3E739670120D465012032
:103E90003C6B0120E4650120C8660120985FFF1F8C
:103EA00010B4354B1B78834202D05DF8044B704749
:103EB000002931DD314B3248B3F9042090F901403B
:103EC000304BDFED315A314803EB820203EB8403C0
:103ED00092ED0C7AD3ED0C7A06EE101AF7EE006A2A
:103EE000B8EEC66A37EE667A77EEE67A27EE067A9D
:103EF00067EE867A87EE256A87EEA57A76EE267AD1
:103F000077EE266AC0ED007AC0ED016A204B5DF8BD
:103F1000044B491019607047F8D01E4B1E4893F9A6
:103F20000130B0F90440174ADFED1C5A1748C3F1BD
:103F30000C0302EB830302EB840293ED007AD2EDD3
:103F40000C7A06EE101AF7EE006AB8EEC66A37EE83
:103F5000667A77EEE67A27EE067A67EE867A87EE5D
:103F6000256A87EEA57A76EE267A77EE266AC0ED88
:103F7000017AC0ED006AC9E7A839FF1F683AFF1F40
:103F80007041FF1F90A7020000F0FF45FC37FF1FA4
:103F9000F03402200041FF1FBC3AFF1F00F0FFC5B4
:103FA0002DE9F04105461CF02BFF804638B31E4E2C
:103FB0000446374601E0013C21D0D6F8A43015F87C
:103FC000011B1A4898474FF6FD739842F3D80346F1
:103FD00097F8A92097F8A81014480EF02DFD97F82F
:103FE0008230032BE7D8DFE803F019130D0296F8AF
:103FF000A930013CA3EB000086F8A900DDD14046C2
:10400000BDE8F08196F8A830181A86F8A800D2E723
:1040100096F8A930184486F8A900CCE796F8A8309D
:10402000184486F8A800C6E7EC650120F465012075
:104030002DE9F0471546002A4ED004460F46DFF81A
:104040009C90002600F108084FF6FD7A03E001205D
:10405000013D064425D0236817F8011B1B684B451A
:1040600037D1D4F8A430404698475045EFD803469E
:1040700094F8A92094F8A81040460EF0DDFC94F8BE
:104080008230032BE3D8DFE803F01D160F0294F80B
:10409000A930181A84F8A900013D4FF00100064428
:1040A000D9D13046BDE8F08794F8A830181A84F8C2
:1040B000A8000120CCE794F8A930184484F8A9009E
:1040C0000120C5E794F8A830184484F8A80001201E
:1040D000BEE720469847BBE71646E2E7CD3C000026
:1040E0002DE9F8433F4C404B226919683F4863690A
:1040F00090F90B0001FB02F503FB01F1A2EBE532A5
:10410000A3EBE1332261636100284BD13848394980
:10411000006851F82000016801FB02F2D21322610D
:10412000026802FB03F3DB136361DFF8E490324EB5
:1041300099F80230314D324F56F8233004224FF0B7
:1041400002082A60C7F80080984799F80230C7F83B
:10415000008056F8233005222A609847294B2A4AC6
:10416000596C9B6C52F8212028491268096825690E
:10417000666903FB02F31B1283EAE370A0EBE370B2
:10418000C0F5FF407F3001FB03F2D31305FB00F5C0
:1041900006FB00F003EBE53503EBE03325616361DB
:1041A000BDE8F88312481349006851F82050296887
:1041B00001F30F0101FB01F0C01301FB00F1C91372
:1041C00002FB01F2D21322612A6802F30F0202FB02
:1041D00002F1C91302FB01F2D21303FB02F3DB135A
:1041E0006361A2E7546401203C430220746801200B
:1041F00064470220383BFF1FD43D0500E86A0120D8
:10420000843F0220104DFF1FCC4BFF1F4837022078
:10421000306F01202DE9F04FC849C94C01F1280544
:1042200085B0284611F8012F10F8013F8D4203EBAD
:10423000022324F8023FF5D1C24BC34A03F1280000
:1042400013F8011F22F8021F9842F9D1BF4CC04950
:10425000A36FE76FD4F88060D4F88450D4F8880056
:10426000BC4A0B604F60D4F88C30D4F890708E60EC
:10427000CD60D4F89460D4F898500861D4F89C00CC
:104280004B618F61D4F8A030D4F8A470CE610D6278
:104290004862D4F8AC50D4F8B000D4F8B410D4F8D4
:1042A000A86013605760AC4BD56010615161966097
:1042B000D4F8B860D4F8BC50D4F8C00094F8C41056
:1042C00094F8C5709661D56194F8C66094F8C850AA
:1042D000106282F8241094F8C90094F8CA1082F889
:1042E000257094F8CBE082F8266094F8CC7094F8AE
:1042F000CD601D60586094F8CE5094F8CF0099605E
:1043000094F8D12094F8D010C3F80CE01F615E61DE
:104310009D61D8615A62196294F8D210996294F83A
:10432000D37094F8D46094F8D55094F8D60094F8EB
:10433000D710DF621E6394F8D87094F8D9605D637B
:10434000986394F8DA5094F8DB00D96394F8DC10A1
:104350001F645E6494F8DD7094F8DE609D64D86438
:1043600094F8DF5094F8E000196594F8E1105F6567
:104370009E65DD651866596694F8E210996694F8B2
:10438000E60094F8E71094F8E37094F8E46094F889
:10439000E5509867D96794F8EB0094F8EC106F4AF1
:1043A000DF661E6794F8E87094F8E9605D67C3F80B
:1043B0008C0094F8EA5094F8F000C3F8901094F848
:1043C000F110C3F88070C3F8846094F8ED7094F82D
:1043D000EE60C3F8885094F8EF50C3F8947082E808
:1043E0000300C3F89860C3F89C5094F8F25094F816
:1043F000F30094F8F41094F8F53094F8F67094F80B
:10440000F7609560D06094F8F85094F8F900116165
:10441000536194F8FA1094F8FB309761D66194F8E0
:10442000FC7094F8FD601562506294F8FE5094F8A8
:10443000FF009162D36294F8001194F80131176380
:1044400056639563D0635364116494F802119164C8
:1044500094F8037194F8046194F8055194F80601F6
:1044600094F80711D764166594F8087194F80961F7
:104470005565906594F80A5194F80B01D16594F84C
:104480000C111766566694F80D719566D06694F80F
:104490000F5194F81001116794F80E6194F81111FE
:1044A0002F4B5767D567C2F88000C2F88410966713
:1044B00094F8126194F8135194F8140194F81511BA
:1044C00094F81671C2F88860C2F88C5094F817619D
:1044D00094F81851C2F89000C2F8941094F8190199
:1044E00094F81A1194F81BE1C2F89870C2F89C6015
:1044F00094F81C7194F81D611D605860996094F8DF
:104500001F0194F8201194F8212194F81E51C3F84A
:104510000CE01F615E61D86119625A629D6194F876
:10452000225194F8230194F8241194F8252194F849
:10453000267194F827619D62D86213E00360012020
:10454000BA3AFF1F53600120663AFF1F0460012042
:10455000746801205C3BFF1FFC36FF1F7050FF1F7B
:10456000F43CFF1F94F8285194F8290119635A6309
:1045700094F82A1194F82B219F63DE6394F82C7130
:1045800094F82D611D645864996494F82F0194F88F
:104590003011DA6494F82E5194F831211F655E656C
:1045A000D86519665A669D6594F8325194F833219E
:1045B00094F8347194F835619D66DA6694F8365152
:1045C00094F837211F675E6794F8387194F8396161
:1045D0009D67DA6794F83A5194F83B21C3F88070EC
:1045E0004FF4A07194F83C71C3F88460C3F888500C
:1045F00094F83D6194F83E51C3F88C20834894F8B8
:104600003F21C3F89C20C3F89070C3F89460C3F8AE
:10461000985016F01FFF7D48039416F073FF7C49F5
:104620007C4A23464FF0000BBBF11A0F5FD0BBF161
:10463000100F5CD093F84C01019093F8450193F86A
:10464000495193F8428193F843C193F84BE193F8B1
:104650004471029093F8419193F84A41019893F87C
:10466000486193F840A104EB082400EB07200EEB0F
:104670000C2805EB092993F846C193F84E51029F87
:1046800093F84DE10EEB072E05EB0C2793F84F51F5
:1046900093F847C106EB0A2A166805EB0C2C5568FF
:1046A0005645A8BF56464D45A8BF4D464D60956836
:1046B0000E60D668AC42A8BF2C464645A8BF464609
:1046C000CE60166955698C60B042A8BF3046AE45D1
:1046D0007646A8BF2E469569D4690861BD42A8BF39
:1046E0003D466445A8BF64464E618D61CC610BF1C7
:1046F000010BBBF11B0F01F1200103F1100302F1CB
:10470000200291D14FF43C71404816F0A3FE3F487F
:1047100016F0F8FE039E404B96F8F01296F8F3223E
:1047200096F8F15296F8F242197038485D704FF4DD
:104730003D719C70DA7016F08DFE344816F0E2FE82
:10474000364A374B92E80300186099802F4840F2B0
:10475000FA2116F07FFE2D4816F0D4FE35460421CE
:10476000304816F07BFA294816F0CCFE96F8003354
:1047700095F8022396F8FA7295F8FC4296F8FBE257
:10478000039596F8016395F8031395F8FD0295F8E3
:10479000FE5203EB072702EB0424234B039A1F80EE
:1047A00006EB0E26174692F8FFE25E8001EB002032
:1047B0001E4E92F8041392F805239C80002402EB0D
:1047C0000E22D88001EB0525346040F20631B4801A
:1047D0000E481D815A8116F03DFE0C48144E16F00D
:1047E00091FE1449144B97F8065397F807230C7061
:1047F00012481D700124032134705A7016F02EFAED
:10480000024805B0BDE8F04F16F07CBE7854FF1F9B
:10481000104DFF1FF4060500BC41FF1FF862012088
:10482000D040FF1F682E0500B45FFF1FDC6501202C
:10483000C9670120256F012044460220702E050023
:104840002DE9F84FC44BC54803F12805294630F936
:10485000022F141203F8014F9D4201F8012FF6D1E7
:10486000BF4BC04A03F1280032F8021F03F8011FB2
:104870009842F9D1BC4ABD4CBD499668D568C4F888
:10488000806092E88100A067E767106957699669C0
:10489000C4F88450C4F88800D569106AC4F88C70D4
:1048A000526A0F68B34BC4F89060C4F894504E68D5
:1048B0008D68C4F89800C4F89C20C8680A69C4F8D8
:1048C000A0704F69C4F8A850C4F8AC00C4F8B02078
:1048D000C4F8B470C4F8A4608E69C4F8B860CD6937
:1048E000086A4F6A5E681968C4F8BC50C4F8C00012
:1048F0009D68D868C4F8C47084F8C8101F695969E5
:1049000084F8C9609E6984F8CA5084F8CB00DD69D8
:10491000186A84F8CC7084F8CD105F6A996A84F8BC
:10492000CE60DE6A84F8CF5084F8D00084F8D1706D
:1049300084F8D36084F8D210196B186C5F6B9E6B8F
:10494000DD6B84F8D41084F8D800596C586D84F865
:10495000D57084F8D6609F6CDE6C84F8D75084F8EC
:10496000D9101D6D996D84F8DD00986E84F8DA70A9
:1049700084F8DB60DF6D1E6E84F8DC5084F8DE1096
:104980005D6ED96E84F8E20003F1780084F8DF7080
:1049900084F8E15084F8E31084F8E0601E6F764AF2
:1049A0005D6F84F8E46083C8D3F8846084F8E550D0
:1049B00084F8E600D3F88850D3F88C0084F8E71028
:1049C000D3F89010D3F894E084F8E87084F8E960A4
:1049D000D3F89870D3F89C6084F8EA50D3681568CF
:1049E00084F8EB0084F8EC105068916884F8EDE0EE
:1049F00084F8EE7084F8EF6084F8F05084F8F100E9
:104A000084F8F33084F8F210116984F8F4105769CF
:104A10009669D569106A516A84F8F57084F8F66071
:104A2000976AD66A84F8F75084F8F800156B506BD3
:104A300084F8F910916B84F8FA7084F8FB60D76BF6
:104A4000166C84F8FC5084F8FD00556C906C84F86A
:104A5000FE10D16C84F8FF7084F8006184F8015175
:104A600084F8020184F80311116D106E576D966D74
:104A7000D56D84F8041184F80801516E506F84F8E4
:104A8000057184F80661976ED66E84F8075184F834
:104A90000911156F916F84F80D01D2F8880084F820
:104AA0000A7184F80B61D76FD2F8806084F80C51DA
:104AB00084F80E11D2F88450D2F88C1084F81201C8
:104AC00002F1940084F80F7184F8106184F81311D6
:104AD00084F81151D2F89050284B84F8145107C82B
:104AE00084F81501D8681F685E689D6884F81611FF
:104AF00084F8172119695A6984F81B01586A84F8E7
:104B0000187184F819619F69DE6984F81A5184F874
:104B10001C111D6A996A84F81D2184F82101DA6A42
:104B200084F81E7103F1340084F81F6184F82211A7
:104B300084F8232184F820511D6B84F8245187C800
:104B40005E6C9D6C84F8250184F82611D86C196D73
:104B500084F827215A6D13E003600120BA3AFF1F41
:104B600053600120663AFF1F746801200460012031
:104B70005C3BFF1FFC36FF1F7050FF1FF43CFF1F04
:104B800084F8287184F829619F6DDE6D84F82A51BC
:104B900084F82B011D6E586E84F82C1184F82D2199
:104BA000996EDA6E84F82E7184F8305184F83101F0
:104BB00084F8321184F8332184F82F611E6F5D6F01
:104BC0009A6FDF6F84F8346184F83551D3F88060D0
:104BD000D3F8845084F83621D3F8882084F83771CC
:104BE0004FF4A071D3F88C7084F8386184F839518F
:104BF000D3F89060D3F8945084F83A216448D3F8FD
:104C00009820DFF8A891D3F89C3084F83E2184F8EE
:104C10003F3184F83B7184F83C6184F83D5116F0D3
:104C200019FC5B4816F06EFC23464A46002002F150
:104C3000080898E8005159F81010D2F804A05769F4
:104C40009669D56983F8481109124FEA2A2B83F82F
:104C5000401110304FEA282183F849A183F841B16F
:104C60004FEA2C2A83F84A8183F8421183F84BC11A
:104C70004FEA2E2B4FEA272831124FEA252CB0F5A8
:104C8000D87F83F843A183F84CE183F844B183F8DB
:104C90004D7183F8458183F84E6183F8461183F89E
:104CA0004F5183F847C102F1200203F11003BED136
:104CB0004FF43C71364816F0CDFB354816F022FC17
:104CC000344B334819789A785D7884F8F012DB78A1
:104CD00084F8F2224FF43D7184F8F33284F8F152F3
:104CE00016F0B8FB2A4816F00DFC2B4B93E8030096
:104CF000C4F8F402A4F8F812254840F2FA2116F09C
:104D0000A9FB234816F0FEFB0421244815F0A6FF5A
:104D10001F4816F0F7FB224B1D489E68D9681D6995
:104D200084F8026393E884005B6984F8002312121C
:104D300084F8FA2232124FEA272E84F8017384F89D
:104D4000FC220F121A1284F803132E1240F20631BD
:104D500084F8FBE284F8053384F8FF2284F8FD72BE
:104D600084F8045384F8FE6216F074FB084816F0C9
:104D7000C9FB0C4B0C480CCB032184F8062384F8A8
:104D8000073315F06BFF0248BDE8F84F16F0BABBC9
:104D90007854FF1FBC41FF1FD040FF1F682E050045
:104DA0005C6E01201C460220702E0500104DFF1F76
:104DB000514B524A1B68524852F8231050F8232096
:104DC0000A4491422DE9F04340F8232040F29080BC
:104DD0004C484D4950F823504C4A4D4C01FB05F1CD
:104DE0000A44110CA1F5FF417F3940F8232044F813
:104DF0002310484ADFF840911478474819F80450C6
:104E0000464A40F823101278DFF83081DFF830E1AD
:104E1000DFF830C1424E6901C2EBC20558F80110FB
:104E200002EB8505294402EB4202520014445EF86D
:104E300021105CF824700968346801FB07F1394ED1
:104E400056F82470C90101EBC73181F31F01364FB9
:104E50003F7819F807904FEA49193A4458F8097011
:104E60005CF822C03D445EF82520126802FB0CF27B
:104E7000023456F82440092AD4BF2246621C82F329
:104E800010062A4A2A4D02FB06F2002AB8BF02F594
:104E90007F42DCB2B8BFFF3255F82470121402F51D
:104EA0007A42FE03520056FB12F250F824607B0057
:104EB000B61A51FB13FE1F4A52F82430734442F8CD
:104EC0002430F61A51FB16F1394445F824109B1092
:104ED00003F30E0303FB03F1C91303EB630203FBAC
:104EE00001F3A2EBA3335B0040F82430BDE8F0836C
:104EF000074A52F823107CE7CC6A0120087401208D
:104F0000A83A02202449FF1F3584B30B6B6319367E
:104F10002C6B0120246B012054640120707401204B
:104F2000D865012088740120286B012041A2FFFF71
:104F30002C6C01207C65012000C00200104DFF1F79
:104F4000CC4BFF1F986601202DE9F04F584B594A72
:104F500018685949594E92F8008051F82010DFF82E
:104F600084C1574A574D1CF80870574B1278DFF828
:104F700078E1DFF87891554C83B07F01019156F8C4
:104F8000201005FB01F52B4446F82030C2EBC20689
:104F90005EF807504E4F59F8201002EB860602EBE0
:104FA000420252001B0C06EB050A08EB020BA3F5AC
:104FB000FF43DFF83C81019D7F3B44F8203057F8E8
:104FC0002A3058F82BA0DFF82CB11B680D4449F8A3
:104FD0002050DBF8005003FB0AF1DFF81C9159F870
:104FE0002530C90101EBC33181F31F01394B1B7817
:104FF0001CF803C04FEA4C1C1A445EF80C3058F8F9
:1050000022201E4457F826301B6803FB02F30235AA
:1050100059F82550092BD4BF2B466B1C83F3100283
:105020002D4B2E4E03FB02F3002BB8BF03F57F433D
:10503000C5B2B8BFFF3356F825701B1403F57A4389
:105040004FEAC73E5B005EFB13FE54F825207B0051
:10505000CEEB020E51FB13FC214A52F8253063447B
:1050600042F82530C3EB0E0251FB12F23A4446F8E7
:1050700025209B1003F30E0303FB03F6F61303EB4B
:10508000630203FB06F3A2EBA3335B0044F8253075
:105090000B1454F82020C3F5FF437F3302FB03F3C6
:1050A00002EBE33344F8203003B0BDE8F08F00BFDB
:1050B000CC6A0120246B0120087401202449FF1FC1
:1050C000707401203584B30B6B631936546401206E
:1050D000CC4BFF1F286B012041A2FFFF2C6C01204D
:1050E0007C65012000C00200104DFF1FA83A02207D
:1050F00098660120D8650120887401205B4B5C48CC
:105100001A785C4B2DE9F047DFF894A11B781AF868
:105110000210DFF89091584DDFF88CE12F68DFF82E
:105120008C810468554E4901C3EBC30559F8011041
:1051300003EB8505294403EB43035B001A445EF847
:10514000210058F82210026802FB01F14C4850F887
:105150002720890101EBC231A1F3DF41494A1278CE
:105160001AF802A04FEA4A1A134459F80A2058F8CC
:10517000239005EB02085EF828301B6803FB09F258
:1051800007F10208930150F8282003EBC232A2F382
:105190005F423D4BDFF818C11B783C483CF913C017
:1051A00030F9138065445EF825301B6803FB08F373
:1051B000374DDFF800C155F82400DFF8FCE0354D2D
:1051C000034456F82400181802EB1062FF03114440
:1051D00000F1004839444FEA98581744820D3CF9D1
:1051E00011103EF918803CF917703EF9122001FBAE
:1051F00008F1C91307FB02F201EBE232DB1045F8BC
:10520000242003F31302DFF8B4C0234FE1B24FEAC6
:10521000C22E5CF821804FEAC83353FB17F755F8CC
:1052200021204FEA4803D71B5EFB13F91B4A52F8B3
:1052300021304B4442F82130FF1A5EFB17F2424402
:105240004CF821209B1003F30E0303FB03F7FF131D
:1052500003EB630203FB07F3A2EBA3335B0046F807
:10526000240045F82130BDE8F08700BF246B012001
:10527000CC6A012070740120D8650120A83A022070
:1052800088740120286B0120DC5FFF1FBC3AFF1FE0
:10529000087401205464012060E401007C65012051
:1052A00000C00200104DFF1FCC4BFF1F986601206D
:1052B000683AFF1FF05FFF1F0C5804002C6C0120A0
:1052C000704B714A1978714B71481B78D0F800C047
:1052D0002DE9F04FDFF8E8A1DFF8E8811AF8016066
:1052E0006C4FDFF8E4916C4C59F82C00246876017F
:1052F000C3EBC30558F8066003EB85052E4403EBAA
:1053000043034FEA430B594452F8263057F8211013
:105310001B6803FB01F3614E56F8241003EB412395
:10532000A3F31F1E5E4B1B781AF8031049015B4460
:1053300058F8011057F823700D4452F825301B68B7
:1053400003FB07F1A51C8B0156F8251003EBC131B7
:1053500081F31F01534B544E5FFA8CF549005B5D9E
:1053600052F823301A68002AD4BF0023012305EB2A
:105370008303002AB8BF524256F8233033FB02F3AE
:105380004A4EC2F5FF427F3256F82C6036FB02F2DD
:105390001344002BB8BF5B429B121844E4031A1855
:1053A0000844434F434E04EB904001EB02081A447B
:1053B00037F910B004EB984001EB02081A4401EBF6
:1053C000020A04EB984837F9100037F9188004EB0B
:1053D0009A4A1A4437F91AA0584401EB020B1A44AE
:1053E00004EB9B4B404401EB02081A4404EB984841
:1053F000504403EB020A0A4437F91BB037F918800E
:1054000049F82CA004EB9242514404EB914137F946
:1054100012205844404437F911B010440BEB0002FD
:10542000D210734446F82C2003F31303224F234970
:1054300057F82500DB02C20352FB11F456F8251081
:105440004200091B53FB12F4DFF880E05EF82520D0
:1054500022444EF82520891A53FB11F3034447F8E0
:105460002530931003F30E0303FB03F1C91303EB81
:10547000630203FB01F3A2EBA3335B0046F8253084
:10548000BDE8F08F246B0120CC4BFF1F707401200E
:10549000CC6A012098660120D8650120887401201B
:1054A000286B0120946A01203874012008740120BF
:1054B000F05FFF1F546401202C6C012060E40100A8
:1054C00000C00200104DFF1FA83A02207C65012099
:1054D000744A754B7549DFF8FCC12DE9F04FD2F8DD
:1054E00000E0734F5FFA8EF55B5D57F82330186864
:1054F0000028D4BF0022012205EB820280EAE0737B
:10550000A3EBE07351F8222032FB03F8694AC3F59C
:10551000FF437F3352F82E2032FB03F3664ADFF855
:10552000B8B1127865491BF802000978DFF8ACA120
:10553000DFF8AC91624E4001C1EBC1045AF80000A3
:10554000366801EB8404204401EB410143444900E7
:1055500057F8200002EB0108002BB8BF5B4202683D
:1055600059F828009B1002FB00F2DFF8788158F808
:105570002600521002EB002282F3180251480078F4
:105580001BF800B04FEA4B1B01445AF80B0059F8C6
:105590002190044457F82410096801FB09F0B11C5C
:1055A000401058F8211000EB012080F318005CF83F
:1055B0002E10DFF834B14FEA5258440D090E08F1AD
:1055C0000109671C01EB0929FF02E4024FEAC63A10
:1055D00001EB082804EB090609EB07014444DFF856
:1055E0000C915144474456445744A24439F9111090
:1055F00039F9166039F9174039F91A80C2F34F1298
:105600004FF63777C2EB070902FB01F102FB06F206
:10561000C0F34F1A09FB04F409FB08F8091412142B
:1056200002EB284201EB2441CAEB07000AFB01F11F
:1056300000FB02F05CF82E20091402EB830201EB60
:1056400020404CF82E204BF82E0003F312031E4E80
:105650001E4856F82540D902E30353FB10F35BF8CC
:1056600025006200C01A51FB12F3194F57F825208C
:105670001A4447F82520801A51FB10F1214446F8BE
:105680002510931003F30E0303FB03F1C91303EB7F
:10569000630203FB01F3A2EBA3335B004BF825305D
:1056A000BDE8F08FCC6A0120946A01203874012093
:1056B000CC4BFF1F08740120246B01207074012063
:1056C000D8650120286B01202C6C0120A0860100E8
:1056D0007C650120A83A022000C00200104DFF1F87
:1056E000986601208874012054640120F05FFF1F38
:1056F0002DE9F041DFF818813A4D98F802303A4C24
:105700003A4E55F82330042202272260376098472A
:1057100098F80230376055F82330354D0522226065
:105720009847344A2B6910686A69334C00FB03F1CF
:1057300002FB00F0A2EBE03294F90B402F486A61C3
:10574000A3EBE13129612E4B00686CBB53F82000BC
:10575000036803FB01F3DB132B61046804FB02F213
:10576000D2136A61274928484C6C896C50F8240090
:10577000264C0068246801FB00F1091281EAE176F9
:10578000A6EBE176C6F5FF467F3604FB01F0C113B8
:1057900003FB06F302FB06F201EBE33301EBE2311C
:1057A0002B616961BDE8F08153F82040236803F361
:1057B0000F0303FB03F0C01303FB00F3DB1301FB38
:1057C00003F3DB132B61216801F30F0101FB01F0EF
:1057D000C01301FB00F1C91302FB01F2D2136A618D
:1057E000C0E700BFD43D0500E86A0120843F0220E5
:1057F000546401203C430220746801206447022065
:10580000383BFF1F104DFF1FCC4BFF1F48370220B6
:10581000306F01203B4B3C4A586C996C52F8202069
:105820003A4B10682DE9F04101FB00F0384E394D3C
:1058300096F90B701C682A69374B69691B6800125E
:1058400080EAE076A6EBE076C6F5FF467F3604FBFD
:1058500000F0C01302FB06F200EBE23201FB06F19E
:1058600000EBE13102FB03F0A2EBE03201FB03F3BA
:105870002A482A61A1EBE3336B61294900681FBB09
:1058800051F82000016801FB02F2D2132A6102687C
:1058900002FB03F3DB136B61DFF89480214D98F872
:1058A0000230214C214E55F8233004220227226079
:1058B0003760984798F802303760052255F8233052
:1058C0002260BDE8F041184751F82040216801F3FB
:1058D0000F0101FB01F0C01301FB00F1C91302FB32
:1058E00001F2D2132A61226802F30F0202FB02F1D5
:1058F000C91302FB01F2D21303FB02F3DB136B614A
:10590000CAE700BF104DFF1FCC4BFF1F48370220D6
:1059100074680120546401203C4302206447022043
:10592000383BFF1FD43D0500E86A0120843F022078
:10593000306F01202DE9F8433F4B404A596C9B6C76
:1059400052F821203E4912683E4C09686669256973
:10595000DFF80C813C4FDFF80C9103FB02F31B12C4
:1059600083EAE370A0EBE370C0F5FF4001FB03F2B4
:105970007F30D31305FB00F598F8022006FB00F0FA
:1059800003EBE535314E57F82220256103EBE03378
:105990000225636104233360C9F80050904798F8EA
:1059A0000230C9F80050052257F82330326098477A
:1059B000274B226919682748636990F90B0001FB9E
:1059C00002F503FB01F1A2EBE532A3EBE133226127
:1059D000636180B920482149006851F820000168BE
:1059E00001FB02F2D2132261026802FB03F3DB1314
:1059F0006361BDE8F88318481849006851F82050E1
:105A0000296801F30F0101FB01F0C01301FB00F154
:105A1000C91302FB01F2D21322612A6802F30F02BA
:105A200002FB02F1C91302FB01F2D21303FB02F3E2
:105A3000DB136361BDE8F883104DFF1FCC4BFF1FE4
:105A40004837022054640120D43D0500E86A012053
:105A50003C4302207468012064470220383BFF1F4A
:105A6000306F0120843F02202DE9F0473D4A3E4D32
:105A700010682B696A693D4C00FB03F102FB00F0E2
:105A8000A2EBE03294F90B4039486A61A3EBE131B3
:105A90002961384B0068002C46D153F82000036878
:105AA00003FB01F3DB132B61046804FB02F2D21346
:105AB0006A61314931484C6C896C50F82400304C93
:105AC00000682468DFF8C4802E4FDFF8C49001FB23
:105AD00000F1091281EAE176A6EBE176C6F5FF4610
