:1000000000000320D10100007D49020035490200B3
:1000100035490200354902003549020035490200E0
:100020003549020035490200354902007D49020088
:100030007D49020035490200716D0200B56D020074
:100040007D4902007D4902007D4902007D49020090
:100050007D4902007D4902007D4902007D49020080
:100060007D4902007D4902007D4902007D49020070
:100070007D4902007D4902007D4902007D49020060
:100080007D4902007D4902007D4902007D49020050
:100090007D4902007D4902007D4902007D49020040
:1000A00031430200694402007D4902007D4902009B
:1000B0007D4902007D4902007D490200B15A0200DB
:1000C0007D4902007D4902007D4902007D49020010
:1000D0007D4902007D4902007D4902007D49020000
:1000E0007D4902007D4902007D4902007D490200F0
:1000F0007D4902007D4902007D4902007D490200E0
:10010000A96F0200BD6F0200D16F0200E56F02000F
:100110007D490200715D02007D4902007D490200B7
:100120007D4902007D4902007D4902007D490200AF
:100130007D4902007D4902007D4902007D4902009F
:100140007D4902007D4902007D4902007D4902008F
:100150007D4902007D4902007D4902007D4902007F
:100160007D4902007D490200A14502007D4902004F
:100170007D4902007D4902007D4902007D4902005F
:100180007D490200B12302007D4902007D49020041
:100190007D4902007D4902007D4902007D4902003F
:1001A0007D4902007D4902007D4902007D4902002F
:1001B0007D4902007D4902007D4902007D4902001F
:1001C0007D4902007D4902007D4902007D4902000F
:1001D0005C4B4CF2205210B51A804DF628121A8052
:1001E00000BF00BF24F0CEFB574B4FF030621A60C7
:1001F000564A9A60564ADA60564B4FF470021A60BB
:10020000554B564A1A60564B1A78110703D51A787F
:1002100042F008021A70534B5349AA221A70534AEB
:10022000534B8B4204D252F8040F43F8040BF8E707
:10023000504B514900228B4202D243F8042BFAE77B
:100240004E494F4A002352F8230041F8230001335E
:10025000742BF8D14B4B4C4A802103F8011B93427D
:10026000FBD14A4B454A1A60494B8A221A70A3F5C2
:10027000805324225A70A0221A709A799207FCD5D2
:100280009A79D406FCD4434A937903F00C03082BE3
:10029000FAD1414B60221A7002331A78802AFCD1BD
:1002A0003C4B00221A714E225A719A799006FCD565
:1002B0009979384A4906FBD5384B394919600821E4
:1002C000596020231370937903F00C030C2BFAD19F
:1002D000344B354A1A60354A354C136813F4807331
:1002E00003D123604FF4A8531360324B324A1A6093
:1002F00000225A60072243F8042C304AC3F80C2D20
:1003000062B624F043FC2368DA0705D52C4824F0B4
:100310002BFC2C4B2C4A1A602C4B1B785B0609D506
:10032000284C294B22689A4204D1254824F01CFC11
:10033000002323602BF04AF824F02AFB27F0C6FAAA
:10034000FEE700BF0E20054030800440823F0400DD
:100350000100002B88ED00E0002008E0030000858C
:1003600002D0074000E00740E87EFF1F2CD50600C2
:100370003007FF1FE87EFF1F448702200002FF1F97
:100380000000000000E400E064E400E008ED00E0AC
:10039000005006400040064001E007404480044011
:1003A0000000070304800440C010050010D0034083
:1003B00014D0034014E000E07FA9030000002020D7
:1003C00032BB40611CE00340A5C3945A00F00740D3
:1003D000FFFFFFFFFFFFFFFFFFFFFFFFFFFFFFFF2D
:1003E000FFFFFFFFFFFFFFFFFFFFFFFFFFFFFFFF1D
:1003F000FFFFFFFFFFFFFFFFFFFFFFFFFFFFFFFF0D
:10040000FFFFFFFFFFFFFFFFFFFFFFFFDEF9FFFF23
:1004100010B5054C237833B9044B13B10448AFF33E
:1004200000800123237010BDE87EFF1F0000000044
:1004300028D50600084B10B51BB108490848AFF392
:1004400000800848036803B910BD074B002BFBD0A0
:10045000BDE81040184700BF00000000EC7EFF1F01
:1004600028D50600E87EFF1F00000000002070472E
:10047000704700BF0A4B0B4A1B680B480B4902EB45
:10048000431251F82310D2F8C42250F822201268E7
:100490008A42074A1344CCBF012200221A717047D6
:1004A000B4620020146DFF1F905EFF1F447F022086
:1004B00020650020084B094A1B680949094802EBDE
:1004C00043120344D2F8C42251F822201268C2F326
:1004D00040321A71704700BFB4620020146DFF1FD4
:1004E000905EFF1F20650020094A0A4B12680A48E7
:1004F00002F1160103EB411359681B7A415C9942E2
:10050000064B1A440CBF012300231371704700BF30
:10051000B4620020146DFF1F5C7F02202065002064
:10052000164B174A1B6830B41A4492F92500032869
:1005300018DC144A52F82010090F134D134C45F8DB
:10054000231003EB8301124A014452F8232014F8CC
:100550002110CA4012F0010209D10E490B4430BCEF
:100560001A7170470C490D4A09681278E5E7094A83
:100570000B4913440A5C1A7130BC7047B462002006
:10058000A85AFF1FC07A0220D886FF1FF07A0220E7
:10059000A48CFF1F20650020F47FFF1F0C7A02202F
:1005A000547F0220134B144A1B68144803F11601B0
:1005B00002EB411230B45568114C50F8231054F836
:1005C0002540926825680F4C491B0029B8BF494255
:1005D00091420D4A1A44CCBF01210021117154F8F7
:1005E00023202A449111521A44F8232040F8231062
:1005F00030BC7047B4620020146DFF1F2088FF1FBD
:10060000905EFF1F5888FF1F20650020034B0449A0
:100610001B68044A0B4412781A717047B4620020B8
:10062000206500209C6600201B4B1C4A1B681C494F
:1006300070B41A441B4C92F9252051F82300A25C97
:1006400082421DD002B3184C184E194D04EB4314CE
:1006500055F82300D4F8C44256F824402468002CEE
:1006600000F10100B8BF6442B0EBE42F45F823006D
:1006700006DD104800241844012645F82340067181
:1006800041F8232070BC70470A4841F823201844E1
:1006900070BC0271704700BFB4620020A85AFF1FEF
:1006A0002088FF1F547F0220146DFF1F905EFF1FE4
:1006B000E08DFF1F206500203F4BDFF824C11B6841
:1006C0002DE9F0431CF803203C4C54F8230012B1F0
:1006D000013044F823003A4FDFF808E1FA5C002AC1
:1006E0004DD15EF82320374E374D56F823108A42FD
:1006F0004FF0000124BFF95401218242334A3448AB
:100700001A44D8BF002192F92520D8BF0CF8031055
:10071000825C55F8230082422AD0B2B32D48DFF81C
:10072000C880DFF8C89000EB431CD9F80000DCF863
:10073000C4C258F82C804FF0000C4EF823C044F887
:1007400023C0D8F80040000984EAE47CACEBE47CE8
:100750004FF0010E7E284FEA2C2407F803E020D842
:1007600000FB0444002CB8BF7F34E01146F823009E
:10077000194845F8232003441971BDE8F0835EF859
:10078000232001324EF82320ADE701200CF80300AE
:10079000114844F8232045F8232003441971BDE88B
:1007A000F0830E4F00FB04F487FB04700719E01779
:1007B000C0EBA710DAE700BFB4620020E08DFF1F96
:1007C000047C0220188FFF1F2088FF1FA85AFF1FDC
:1007D000547F0220146DFF1F206500200904028150
:1007E000087C02205888FF1F905EFF1FCC5BFF1F14
:1007F000094B0A4A1B78107082B08342019109D1DB
:1008000007EE901A064B0749F8EEE77A0122C1ED90
:10081000007A1A7002B07047E46AFF1F2490FF1F2D
:10082000158FFF1F287C0220014B01221A70704790
:10083000B885FF1F194A1A4B11681A4A53F821004C
:10084000194B52F82020194853F82130126850F8FB
:100850002110174803FB02F310B401EBE3330068E7
:1008600003F30E02134C54F8203003FB02F3DB12A7
:1008700003F30E0303FB03F1C91303EB630203FB52
:1008800001F3A2EBA3334FF2584202FB03F3DB1355
:1008900044F820305DF8044B704700BF4C88FF1FC0
:1008A000407A0220905EFF1F0C7C022070620020C4
:1008B000408EFF1F7085FF1F174A184B126818499A
:1008C00053F82200174B51F82010174853F82230E4
:1008D000096850F8222003FB01F170B402EB61417A
:1008E00081F30801114B124C1D68124E54F825304B
:1008F00003F50040C010C1F1FF0236F9100003FB00
:1009000002F3C0001A1201FB00F302EB232344F8A8
:10091000253070BC704700BF4C88FF1F407A022012
:10092000905EFF1F0C7C022070620020408EFF1F33
:100930007085FF1F20CA0300254B264AF0B51E68AC
:10094000254B52F82610254A53F82110244B0968EC
:1009500052F8262053F8263002FB01F15B0103EB2D
:10096000213181F30D001F4BDFF888E01C681E4D1C
:100970001E4A5EF824301E4F55F8241052F82620E7
:1009800057F82460C91A00FB01F1C2F5FD4206EBDD
:10099000E131743202FB01F203EB6243D2134EF8F1
:1009A000243047F824209B1003F30E0303FB03F1CC
:1009B000C91303EB630203FB01F3A2EBA3334FF272
:1009C000584202FB03F3DB1345F82430F0BD00BFAF
:1009D0004C88FF1F407A0220905EFF1F0C7C022093
:1009E00070620020408EFF1F7085FF1F7C62002018
:1009F000187D022010750220134B14491868144BFF
:100A0000F0B4144C144D54F820201F6855F82060A1
:100A100051F8271082EAE273A3EBE273B34204DCDD
:100A2000C1F1FF0189100131731A83F30F034FF0F5
:100A3000804191FBF3F102FB01F2D21345F8203023
:100A400044F82020F0BC7047408EFF1F70620020E9
:100A50004C88FF1F7085FF1F10750220124B134931
:100A60001A68F0B4124C8B5C54F82250002DD4BF9D
:100A700000200120834213D00E4B0F4E1F680F4BF6
:100A800056F827700E4E53F827301B6846F8223070
:100A900003FB05F3DB1344F822308854F0BC7047A5
:100AA000074B53F82230F3E7408EFF1F8C65002080
:100AB0007085FF1F4C88FF1F407A0220905EFF1F49
:100AC000107502201B4B1C4A1B681C4952F823005E
:100AD0001B4A51F820101B4852F82320096850F88F
:100AE000233002FB01F2DB0130B403EBE22282F39C
:100AF0000F02154B154C1D6854F8251045F2F053A4
:100B000003FB01F302EBE33303F30E0303FB03F0F8
:100B1000C01303EB630103FB00F3A1EBA333A3EBCF
:100B2000A20303FB02F203EBA23344F8253030BCEE
:100B3000704700BF4C88FF1F407A0220905EFF1F65
:100B40000C7C022070620020408EFF1F7085FF1F0A
:100B5000234A244B1068244A53F82010234B52F8A0
:100B60002110234A096853F8203052F8202003FB53
:100B700001F3920470B402EBC30383F31D031D4A17
:100B80001D4C116854F821201A44934244F8212046
:100B90001ED91A4B1A4D53F8203055F82140194EE2
:100BA0005B11083344FA03F202FA03F346F82130EA
:100BB000154A52F8202003FB02F3C2F1FF001A127B
:100BC00004FB00F302EB232345F8213070BC70478F
:100BD0000B4D0C4B55F8214053F82130E8E700BF8E
:100BE0004C88FF1F407A0220905EFF1F0C7C022081
:100BF0007C620020408EFF1FFC7FFF1F8862002068
:100C00007085FF1F1075022070620020184B194A72
:100C10001B68194952F82300184A51F82000184956
:100C200052F8232030B4174C05680868164954F868
:100C3000234051F8203002FB05F204EBE23203FBC3
:100C400002F203EB6212930393EAC23248BFC3F18C
:100C500000435B1403FB03F2D212C2F5C03203FB64
:100C600002F35B14DB0041F8203030BC704700BF5A
:100C70004C88FF1F407A0220905EFF1F0C7C0220F0
:100C8000408EFF1F706200207085FF1F4A4B4B4A49
:100C9000D3F800C04A4B52F82C204A4953F822207E
:100CA000494B106853F82C3009682DE9F047474C40
:100CB00003FB00F3464854F8212050F82C00013281
:100CC0001B14B2F5006F034428BF0022032B44F825
:100CD00021206FDD40F2FF709842A8BF18463D4CBE
:100CE0003D4EDFF80CE154F8213056F821703B4DB1
:100CF00046F821305EF8216047F69919C7EB0308E2
:100D0000101A09FB06F74FEAC12955F8216008EBD4
:100D1000E737C0F30A0009EB0208314A4EF82170A8
:100D20003E444844DFF8CC9042F828602D4E59F8F4
:100D30002C9052F8200056F82C802B4A2B4E52F85B
:100D40002C2056F82170DFF8B0E04FEA4919C9F5B8
:100D5000FF5A08FB00FC0AF11F0AC2F1FF0807FB5B
:100D60000AF702FB00F24FEA2C2C09FB0CFC03FBF8
:100D700008F312127F1302EB232307EB6C324EF8B9
:100D800021005B1045F8212046F8212003F30E03D3
:100D900003FB03F0C01303EB630203FB00F3A2EBBE
:100DA000A3334FF2584202FB03F3DB1344F8213024
:100DB000BDE8F087042092E74C88FF1F407A0220AC
:100DC000905EFF1F408EFF1F0C7C0220AC8DFF1F2A
:100DD0007C6200207085FF1FA47A0220BC86FF1F62
:100DE0003C92FF1F88620020706200201075022074
:100DF000187D022094620020E480FF1F214B224ACC
:100E000022491068F0B5D3F800E0214D214B55F888
:100E1000206053F82E20204B51F8207053F82220E8
:100E20001E4BD2F800C053F82E2086EAE674A4EBDD
:100E3000E67401342744A30A02FB0CF20833B7FB23
:100E4000F3F3FF1AA3F57F5341F820703F3B911253
:100E500003F30E03124A52F82E2001EB022282F312
:100E60000F02C2F5004106FB01F65B0002FB03F333
:100E70000C49F21302EBE33345F8203041F82040EF
:100E8000F0BD00BF4C88FF1F408EFF1F1075022071
:100E90007085FF1F407A0220905EFF1F0C7C0220AD
:100EA000706200204C80FF1F4F4A504B50482DE984
:100EB000F04F16684F4A53F826104F4B52F8212036
:100EC00053F8263011680468DFF84CA14B4A5AF8F1
:100ED000247052F8262003FB01F35B0183F31D030A
:100EE000474D4848484955F82650006851F82610A3
:100EF00000FB05F5890501EB052585F31E0523F0AB
:100F0000784000F10060C00050FB10F03F4950FBFA
:100F100011F00139DB1601EBC000C3F1060340FA02
:100F200003F355FB13F33A49DFF8F0C051F82600FC
:100F300038495CF824508B42C0F5006EA8BF0B46C0
:100F400005FB0EFE4FEAA508190208EB2E3551FBF2
:100F500017F0DFF8CC8058F82430184452FB17FE05
:100F6000DFF8C09059F824302B44C0EB6303CEEB7C
:100F7000030351FB13FEBE4451FB1EF7074452FB13
:100F80001EF2C7EB050BC2EB0B0251FB12F1DFF8AF
:100F900098B05BF82660803E86F307061A4406FB8D
:100FA00002F2C6F17F033844921200FB03F3C2EB56
:100FB000A32303F30E0303FB03F0C01303EB63024D
:100FC00003FB00F3A2EBA3334FF2584202FB03F3FF
:100FD0007144DB134AF8241049F8245048F824706F
:100FE0004CF82430BDE8F08F4C88FF1F407A022077
:100FF000408EFF1F905EFF1F0C7C02203C7502207C
:10100000946200205465002070620020ABAAAA2AD6
:101010007C620020E71052002092FF1F7085FF1FA6
:10102000607A0220D07A0220886200200B4A0C4BA2
:10103000116853F8213093EA430248BFC3F10043DB
:101040005B1403FB03F2D212C2F5C03203FB02F3BE
:10105000044A5B14DB0042F8213070472C80FF1FEC
:10106000C07A0220707C0220084A094B12680949A4
:1010700053F82230DB0BA3F58033002BB8BF5B4263
:10108000A3F5004341F82230704700BF2C80FF1FBA
:10109000C07A0220707C0220054A064B126806497D
:1010A00053F822301B0CA3F5004341F8223070475F
:1010B0002C80FF1FC07A0220707C0220054A064B5C
:1010C0001268064953F822301B0CC3F5004341F85F
:1010D000223070472C80FF1FC07A0220707C0220D3
:1010E0000E4A0F4B116853F821305B0803F100439F
:1010F00093EA430248BFC3F100435B1403FB03F2CE
:10110000D212C2F5C03203FB02F39B13054A002B37
:10111000B8BF5B4242F82130704700BF2C80FF1FF0
:10112000C07A0220707C0220134A144B116853F8D5
:1011300021305B0803F1804393EA430248BFC3F1C7
:1011400000435B1403FB03F2D212C2F5C03203FB6F
:1011500002F39B13002BB8BF5B42C3F5FF437F3301
:1011600003F30F0303FB03F2D21303FB02F3044A5E
:10117000DB1342F8213070472C80FF1FC07A022019
:10118000707C0220044B054A1968054B52F8212057
:1011900053F82230184700BFA87402200890FF1FA0
:1011A000285E0500704700BF5A4B5B4A5B485C49AC
:1011B0002DE9F04F1C68DFF888E150F82400E3B215
:1011C00083B0D25C01905EF822201668002E05469E
:1011D000D4BF0020012003EB800386EAE672A2EB75
:1011E000E67251F8233033FB02F3C2F5FF427F323F
:1011F00035FB02F24B48DFF84C9190F800B04A49B9
:1012000019F80BC00968494D494ED5F80080DFF840
:1012100038A1C8B24FEA4C1CC70056F80CC03D1AA2
:101220009E1800EB8505AC4486EAE6738D0005F454
:101230007F754900A3EBE6735AF8246001F4FF724E
:10124000AB4433445EF82C103A4E4AF824309344B1
:10125000096856F82B6001FB06F6DFF8F0C008F1CC
:1012600002015CF8211001EB662686F31006DFF818
:10127000E0A05AF82410760001FB063393EA4301FC
:1012800048BFC3F100435E1406FB06F3DB12C3F54F
:10129000C03B06FB0BF32849254E91F800B019F826
:1012A0000B1049013F1A715800EB87070F444FEAB2
:1012B00063492A4409EBE34393445EF827104AF854
:1012C00024301C4A0B6852F82B2003FB02F35CF815
:1012D000282002EB632309FB03F31A13019BC3F1DC
:1012E000004352FB03F399444FEA494393EA89428E
:1012F00048BFC3F100435B1403FB03F2D212C2F5F3
:10130000C03203FB02F30D4A9B1342F8243003B0B2
:10131000BDE8F08F1C7A0220C091FF1F0081FF1FE3
:10132000E88FFF1F9C6500205C6F0020A8740220DE
:10133000146DFF1F688CFF1F986500207085FF1FCC
:10134000905EFF1FCC360400CC6300203481FF1F69
:10135000247FFF1F6E4B6F4A1B7812682DE9F04FF8
:10136000DFF8D8916C4C19F803002468DFF8D081BD
:101370006A4F4001D1B258F800002546C1EBC104C4
:1013800001EB84042044960057F8200006F47F7691
:101390005100334401F4FF715A180368604883B068
:1013A00050F8222003FB02F22B46DFF898B101959A
:1013B000023392015BF8233002EBC33282F31F0247
:1013C0005848594B0568DFF880C15FFA85FA52002A
:1013D00013F80A0057F820000368002BD4BF4FF021
:1013E000000E4FF0010E83EAE3700AEB8E0EA0EBC5
:1013F000E3704E4B53F82E3033FB00FE4C4BC0F5E0
:10140000FF407F3053F8253033FB00F0494B93F811
:1014100000A019F80A904FEA4919314458F80960B8
:101420003444514457F824603D4C54F8214031680D
:1014300001FB04F4019B5BF82310641204EB5104DC
:1014400084F30F0400EB0E0383EAE370A0EBE37078
:101450005CF82530C010034400EB030803F1804A18
:10146000190C4FEA1A4A00EB0803A1F5802100EBA2
:10147000030BAAF5802A01EB184108F180480AEB1A
:10148000184903F1804E00EB0B0A01EB134109EB05
:101490001E4802EB0A0600EB0A0901EB1B410BF1A7
:1014A000804E02EB090A08EB1E4E01EB164100EBE1
:1014B000090806F180460EEB164701EB1A410AF1C6
:1014C0008043404402EB080E07EB1346171801EB6C
:1014D0001E420EF1804106EB114302EB174207F169
:1014E000804103EB114152424942D210C91004FB22
:1014F00002F2C4F50043D21303FB01F30E494CF88A
:10150000250002EBE33341F8253003B0BDE8F08F4E
:101510009C6500205C6F0020A8740220905EFF1F75
:10152000688CFF1F1C7A0220C091FF1FE88FFF1FED
:101530000081FF1F986500207085FF1FCC360400D6
:10154000146DFF1F3481FF1FCC630020694BDFF84F
:10155000D8C11B78684A1CF8030012682DE9F04FC7
:10156000664D674F2D68D4B2400183B0E60038580D
:101570000195311B2F4604EB81019500520002F4C6
:10158000FF7E01445F4A05F47F7552F821102B4419
:1015900003EB0E020B685C4951F8222003FB02F2B8
:1015A0003B46DFF888B1023392015BF8233002EB4F
:1015B000C33282F31F025200B2F1806FC0F09580F7
:1015C0006FF0806000230021904271EB0307C0F2AE
:1015D0008F804E4B4E4918684A4F4E4BDFF8509162
:1015E0005FFA80FA11F80A1057F821100F68002FDF
:1015F000D4BF4FF000084FF001080AEB880887EAD3
:10160000E771A1EBE77153F8283033FB01F8424B47
:10161000C1F5FF417F3153F8203033FB01F108EB76
:10162000010383EAE378A8EBE37859F82030344FDC
:101630004FEAE808434408EB030193428CBF0123BF
:1016400000239142414488BF01339142414488BF05
:1016500001339142414488BF01339142414488BFE4
:1016600001339142414488BF01339142414488BFD4
:1016700001339142294A49F8201012781CF80210CF
:101680004FEA4111A6EB0406795804EB86040C449A
:101690001C4951F82410754415440A681A4988BF3A
:1016A00001335B0351F8251002FB01F201995BF84D
:1016B0002110921202EB910282F30E02184C194D86
:1016C00054F82010C832A3F5004302FB03F3C2F51F
:1016D00080429B1301FB02F203EBA23244F820206C
:1016E00045F8202003B0BDE8F08F4FF0806270E72E
:1016F00002466EE79C6500205C6F0020A874022003
:10170000146DFF1F905EFF1F688CFF1F1C7A022064
:10171000C091FF1FE88FFF1F0081FF1F9865002009
:101720008C91FF1F7085FF1FCC3604003481FF1F92
:10173000CC630020934B944A1B781068DFF874C286
:101740002DE9F04FDFF870B2DFF870A21BF803103C
:101750008E4D8F4FD5F800E0C4B24901E6005AF82B
:101760000110321B04EB820285000A4405F47F75E8
:1017700040002B4400F4FF7057F822101A180B6831
:101780005CF8222003FB02F282490EF1020392016F
:1017900051F8233002EBC33282F31F025200B2F140
:1017A000805FC0F0BC806FF0805800234FF00009CC
:1017B000904579EB0301BCBF42464B464FEA524984
:1017C00049EAC339C846744B1B781BF80320520101
:1017D000361B5AF8022004EB86041444284457F8B8
:1017E0002420034412685CF8233002FB03F36B4AA5
:1017F0006B4D1068674ADFF8C8C152F82E60694C1B
:101800005FFA80FE760815F80E2054F8205057F83D
:10181000222011680029D4BF002201220EEB820E83
:1018200006F6F41202EBA32681EAE173A3EBE1735F
:101830005CF82E1031FB03F15B4AC3F5FF437F33A5
:1018400052F8202032FB03F319440029B8BF494263
:1018500089100D446B0C4B4580F08380C3EBC33380
:101860005B0093FBF8F3A3F5FF437F3B0D446A0C49
:1018700091456CD8C8EB0202C2EB024702EBC737B6
:1018800002EB4702C8F5004792FBF7F707F5FF4761
:101890007F373B440D446A0C91454ED8C8EB020299
:1018A000C2EB024702EBC73702EB4702C8F500471D
:1018B00092FBF7F202F5FF427F32D7180D446B0C12
:1018C000994530D8C8EB0303C3EB034E03EBCE3E80
:1018D000C8F5004203EB4E0393FBF2F202F5FF4121
:1018E0007F31CA19921006FB02F3C3F3CF3383F49E
:1018F00000432E4A44F82050191202EB410432F9F9
:101900001120B4F902102A4EDBB2891A03FB01F34D
:1019100002EB23231BB246F82030BDE8F08F4FF4D2
:101920000068C1464FE7C3EBC331490091FBF8F1B2
:10193000A1F5FF417F39CA19D4E7C2EBC232520088
:1019400092FBF8F2A2F5FF427F3AD718B6E7C2EB56
:10195000C2377F0097FBF8F7A7F5FF477F3F3B446F
:1019600098E7C8EB0303C3EB034703EBC73703EB6D
:101970004703C8F5004793FBF7F303F5FF437F33B5
:1019800074E700BF9C6500205C6F0020A8740220F3
:10199000905EFF1F3481FF1F986500201C7A022093
:1019A000C091FF1FCC6300200081FF1F647F0400F3
:1019B0007085FF1F688CFF1FCC360400146DFF1F5D
:1019C000E88FFF1F524BDFF878C11878514B2DE993
:1019D000F041DFF870811A6818F800104E4D4F4E34
:1019E0002F68DFF864E14901D3B25CF80140C3EB32
:1019F000C30103EB810195000C4405F47F7553008E
:101A0000284403F4FF7356F82420184412685EF843
:101A1000204002FB04F44248BA1C240150F8222062
:101A200004EBC23484F31E043E4A127818F8028094
:101A30004FEA48182B445CF8085029441A4456F8D9
:101A400021305EF822201B6803FB02F250F8273099
:101A500003EB6220A0F35000334A344B156834493D
:101A6000EAB29B5C56F823301B68002BD4BF0026DB
:101A7000012602EB8602002BB8BF5B4251F8221010
:101A800031FB03F12B4AC3F5FF437F3352F8252086
:101A900032FB03F3284F1944002957F82520B8BF1B
:101AA00049420A4404F100444FEA520E013C6FF0EF
:101AB0000043A6181C46CEEB03034FEA610E7345A4
:101AC0004FEA560C47F82520CCEB0404B7BF4A1464
:101AD000120C93FBF2F222F0FF027445B6BF4914D8
:101AE000340C94FBF1F4A2F50042B8BF24F0FF04DB
:101AF00000FB02F2A4F50044C0F50043D21303FB3F
:101B000004F30E4902EBE33341F82530BDE8F081E0
:101B10009C6500205C6F0020A8740220905EFF1F6F
:101B20003481FF1F986500201C7A0220C091FF1F9E
:101B3000E88FFF1F0081FF1FCC6300207085FF1F0F
:101B4000146DFF1FCC360400688CFF1F6A4BDFF852
:101B5000D0C11B78694A2DE9F04F12681CF8034088
:101B6000DFF8C0E1664ED0B26401C5005EF8044003
:101B7000291A00EB81012144970085B007F47F7496
:101B800056F8211001945200234402F4FF7202928D
:101B90009A180B685B4951F8222003FB02F25A4B5A
:101BA0005A491B680233920151F8233002EBC332C9
:101BB00082F31F025200B2F1806FC0F097806FF085
:101BC000806800234FF00009904579EB0301C0F2D3
:101BD00090804F494F4B0C68DFF84CA1DFF84C81E7
:101BE0005FFA84FB04F1040913F80B3058F829104C
:101BF00056F823301B680393002BD4BF002701271E
:101C00000BEB8707002BB8BF5B425AF8277037FBF6
:101C100003FADFF81CB1C3F5FF437F335BF8247090
:101C200037FB03F33C4F3F781CF807C04FEA4C1CCE
:101C30002D1A5EF80CE000EB850501987544864688
:101C4000029856F825508644774428682D4D55F85B
:101C5000275000FB05F003EB0A0585EAE57358F809
:101C60002460A3EBE5735BF829509B10F718284418
:101C7000BB4288BF002180100144914203EB07055D
:101C80008CBF0126002697428CBF01270027954272
:101C900088BF0137AB4288BF0021014491421D44F7
:101CA00088BF0136954288BF0137AB4288BF00210B
:101CB00001441D44914288BF0136954288BF0137D7
:101CC000AB4288BF00210144914288BF01367603B0
:101CD000124B48F82450C6F50046A6EB473648F8A4
:101CE000291043F8246005B0BDE8F08F4FF0806202
:101CF0006FE742466DE700BF9C6500205C6F0020E7
:101D0000905EFF1F688CFF1FA87402203481FF1FA4
:101D10001C7A0220C091FF1F986500207085FF1F6C
:101D2000CC360400146DFF1FE88FFF1FCC6300202A
:101D30000081FF1F044B054A1968054B52F821200A
:101D400053F82230184700BFA87402200890FF1FE4
:101D5000DC9C03008C4B8D4A1B6812788C488D49A3
:101D600031F9121030F91220D8B22DE9F04FC0EB42
:101D7000C00700EB870739448748884C50F821009A
:101D800002F5806287B034F912100268520102FB3A
:101D900001F2834D296832FB11F1824A824C92F89C
:101DA00000E0DFF82CC214F80E60804ADFF82482CD
:101DB00052F82390DCF8002076014FEA830A58F8A5
:101DC000066010460AF47F724FEA430B3E440292CB
:101DD0009644714A0BF4FF7B52F82660744A3668C9
:101DE000DE44890052F82EE001EB490206FB0EF1B9
:101DF000704E019000F1020E56F82E6006EB610164
:101E000081F318016C4ED6F800A0090155F82A504C
:101E100055FB01F1694DDFF8C0C12E7803964501ED
:101E200014F806E066485CF805604FEA4A1400942E
:101E30000459164426444C1103FB1411009C6544BC
:101E40004FEA4E1E0651061905F1140058F80EC04F
:101E5000D5F80890D5F804E0D5F80C802B6931C886
:101E60006744964404971344C1EB0E07104414448E
:101E700091449044C1EBC10E2A444FF02B0C029DBB
:101E800002970CFB01FCCEEBCE0E5D44A0EBAE1E28
:101E9000A8EBAC18C1EB011001EB410C4FF0350B76
:101EA0000595C1EB0C1C01EB81050BFB01FBC1EBA4
:101EB000800001EBC50504EBAB1B03EBAC1C059CE0
:101EC000049B3549A2EBA010039A51F82370B16826
:101ED000A318374AB46952F82320029B09EBA519CD
:101EE00075682B44F568A84435698944AC44756924
:101EF000F1697360084475445C44C6F80890C6F8FC
:101F00000C80C6F810C07561B461F061396801FBDE
:101F100002F22C49019E51F82610921202EB910216
:101F200082F30E02264E0099274F7158274EDFF894
:101F3000ACB0DB0C03EBD14303EBD94909EBD84838
:101F400008EBDC4C0CEBD54E0EEBD44457F82A10C2
:101F500004EBD040C2F58043C0F5FF4001FB03F124
:101F60007F3056F82A3002FB00F0891301EBA030D5
:101F70008342B8BF034647F82A004BF82A0046F8C8
:101F80002A3007B0BDE8F08F5C6F0020787A02201D
:101F90004C65FF1FF064FF1F905EFF1FEC450600BD
:101FA0000081FF1F9C650020CC3604006485FF1F64
:101FB000688CFF1FF86400201C7A022098650020BE
:101FC000107402203481FF1F8C91FF1F1480FF1FAB
:101FD000A8740220146DFF1F587502207085FF1F22
:101FE000714B724AD3F800C071492DE9F04F5FFA86
:101FF0008CF3DFF8E481D25C58F822201268002AC2
:10200000D4BF0020012003EB8003002A87B0B8BFB3
:10201000524251F8235035FB02F5664BC2F5FF42A0
:102020007F3253F82C3033FB02F26349634B0C7858
:10203000DFF8A89162491E68624819F804300968FF
:1020400001915B0150F82C105F4FF0B24FEAC00BCA
:10205000FF582A44C0EB0B03019D4FEA860A00EBB0
:1020600083030AF47F7E002A4FEA460A3B44574E18
:1020700058F8233005F1020574440AF4FF77B8BF1D
:10208000524256F825501B683C440A4450492D04DE
:1020900051F8241003FB01F305EB43139D4277D95C
:1020A0006FF0050305936FF0040304936FF00303CF
:1020B00003936FF0010302936FF007066FF00605BC
:1020C0006FF002044FF0FF33DFF814A13E499AF895
:1020D00000A019F80A904FEA4919C0EB0B0B51F810
:1020E00009903B4900EB8B004844F24458F820002B
:1020F000BA44006851F82A8000FB08F03349019F78
:1021000051F82780C00000EB883000F31E000499CE
:102110001144C0EB0108029911448E464FEAD84899
:1021200086440599134408EBDE4E11440EEBD34E62
:102130001444039B4FEA600904448A46154413443F
:102140004C44CA44C0EB05080EEBD444C0EB0A056E
:102150004FEAA00E1F4604EBD54193190744CEEB7E
:102160000805A3EB400301EBD5454F4405EBD346EF
:1021700007EB0E0306EBD34316491248C3F5FF43A2
:102180007F3340F82C2041F82C3007B0BDE8F08FA9
:102190005900CC180291990065000391DE001944A2
:1021A00005950491F51A8FE71C7A0220C091FF1F54
:1021B000E88FFF1F0081FF1F9C6500205C6F0020DF
:1021C000A8740220CC630020146DFF1F3481FF1F10
:1021D000688CFF1F7085FF1F905EFF1FCC360400C8
:1021E00098650020044B054A1968054B52F82120D8
:1021F00053F82230184700BFA87402200890FF1F30
:10220000C03D06004D4B4E4A4E492DE9F04F1D682A
:102210004D4FEBB2D25C57F822201468002CD4BF8B
:102220000020012003EB800384EAE472A2EBE47255
:1022300051F8231031FB02F1444BC2F5FF427F32CB
:1022400053F8253033FB02F3414ADFF8149192F83A
:1022500000E0404A19F80E401268DFF808813E4E4F
:10226000DFF804C16401D0B258F804A03468C0EBB0
:10227000C00600EB86009600824406F47F7652008A
:10228000B64402F4FF720B4457F82AA0964483EA3E
:10229000E37BABEBE37BDAF800105CF82EE001FBAC
:1022A0000EF1DFF8C8E05EF82430890001EB8321ED
:1022B00081F31C01DFF8B8A09AF800A019F80A9081
:1022C0004FEA4919324458F809603044924457F8AB
:1022D00020205CF82A00126802FB00F2023492000F
:1022E0005EF8240002EB802282F31C021B4EDFF812
:1022F00084E0DFF884C05EF825306C01371930596E
:102300000844584430517868BC684FEAD20808EB5A
:1023100091010BEB030601445944F00F80EAD170A0
:1023200000042244A0F500400BEB02034EF82560A8
:102330004CF825007960BB60BDE8F08F1C7A022064
:10234000C091FF1FE88FFF1F905EFF1F0081FF1FDE
:10235000986500205C6F0020A87402201074022091
:10236000CC360400146DFF1F688CFF1F3481FF1FE3
:102370009C650020CC6300207085FF1F9A4BDFF81E
:10238000A4C29A492DE9F04F1E78DFF89C82984B41
:1023900018F806201868974DDFF890E20968520196
:1023A000C3B25CF80270C3EBC30203EB8202840089
:1023B000174404F47F744300264403F4FF7355F874
:1023C00027001E4400685EF8266000FB06F08A4F76
:1023D00057F82160801200EB560080F30F00874E03
:1023E000367818F806804FEA481823445CF808400D
:1023F00022441E4455F822305EF826201B6803FB59
:1024000002F302311B1357F8212003EBD20383F3AD
:102410000D037B4B7B4A19687B4F7C4ECBB256F841
:102420002140D25C55F822201268002AD4BF002532
:10243000012503EB8503002AB8BF524257F8233029
:1024400033FB02F3724DC2F5FF427F3255F8215043
:1024500035FB02F21344002BB8BF5B42E41853D2A1
:10246000DFF8CC816B4D58F82120DFF8C8C1B4EB00
:10247000424F26D9DFF8A8E1DFF8A0915EF821707D
:1024800007F1010A21374EF821A059F827E059F841
:102490002A70DFF8A491C0F5FF4A0EFB00FE0AF196
:1024A0007F0A4FEAEE3E07FB0AF70EEBE73749F8E3
:1024B0002120BA1847F6FF7E40F09080012248F8AC
:1024C00021205B1003EB5403B3F1004F41D90022EC
:1024D0000CF80120134645F8212046F8214003F36B
:1024E0000E0303FB03F0C01303EB630203FB00F3D3
:1024F000A2EBA3334FF2584202FB03F3464ADB132D
:1025000042F82130BDE8F08F444ADFF82CE1D2F8E0
:1025100080701268DFF81881DFF80491DFF814C1C9
:10252000C0F5FF457F3507FB00F7FF1302FB05F2FF
:1025300007EBE232374D48F8212000274EF8217092
:102540004FF0010E49F8217045F821700CF801E0B8
:102550008DE71CF80130002B44D0314BDFF8DCB0A4
:1025600053F821C0DFF8B4805BF82CE058F82C90C9
:10257000DFF8C4A00CF120020CF121070CF1010CD2
:102580005BF822305BF8277058F822205BF82CC0EB
:102590005AF82180C0F5FF4A03FB00F30AF17F0AD5
:1025A00007FB00F74FEAA32B02FB00F00EFB0AFE2D
:1025B000BF120CFB0AF30BEBAE2E07EBA32309FBB8
:1025C0000AF9C013C8EB5448CEEB030300EBE93023
:1025D00093FBF0F008FB00E2D3117CE7724528BFC3
:1025E00072466CE71A4676E798650020A8740220C8
:1025F0005C6F0020905EFF1F3481FF1F9C650020F0
:102600001C7A0220C091FF1FE88FFF1FCC630020BF
:102610000081FF1F588002207085FF1FF062FF1F9E
:10262000D091FF1F146DFF1FCC360400688CFF1F74
:102630006491FF1F347502205491FF1FF063FF1F48
:10264000C74AC84B1168C8482DE9F04FCAB2DFF835
:102650003CE39B5C5EF823301D68002DD4BF002452
:10266000012402EB840285EAE573A3EBE57350F8DD
:10267000222032FB03FCBD4AC3F5FF437F3352F8EF
:10268000212032FB03F3BA4ADFF8049392F800B03A
:10269000B84A19F80B401268DFF8F882DFF8F8A2A0
:1026A000B54D5AF821602D689C446401D0B28CEA83
:1026B000EC7358F80440C0EBC007A3EBEC7300EBDD
:1026C00087001B01970000EB040C07F47F771C09BF
:1026D00052002644BB4402F4FF724AF821605EF8BF
:1026E0002CC0A64EDCF800C0934456F82BA00CFB7F
:1026F0000AFADFF8A8C25CF825604FEA6A0A0AEB1A
:102700000626A6F39806DFF898A29AF800A019F812
:102710000A904FEA49193A4458F80970384452442B
:102720005EF82070954850F822003A6802FB00F2EB
:10273000023552105CF8250002EB0022A2F3585239
:102740008F48DFF860E24D0102EBC20200EB42006D
:102750005EF805204788144433444EF805407E0255
:102760000EEB050233FB06F7566884883E4456603C
:10277000640233FB04F79468C6883C449460760294
:1027800033FB06F7D66804893E44D660640233FB07
:1027900004F7146946893C441461760233FB06F75A
:1027A000566984893E445661640233FB04F4976998
:1027B000C68938197602906133FB06F3D6691E4448
:1027C000D6615EF8053093EA430248BFC3F1004387
:1027D0005B1403FB03F2D212C2F5C03203FB02F218
:1027E000684F0EEB050338685B680068521400FB05
:1027F00002F293EA430048BFC3F10043D2135B14D3
:1028000003FB03F4E412C4F5C03403FB04F378685B
:102810000EEB05040068A4685B1400FB03F302EBF5
:10282000E33394EA440248BFC4F10044641404FB57
:1028300004F84FEAE828C8F5C03804FB08F80EEBA6
:102840000502B868D468006894EA44024FEA684810
:1028500000FB08F848BFC4F1004403EBE8336414FC
:1028600004FB04FC4FEAEC2CCCF5C03C04FB0CFC54
:10287000F8680EEB0502006814694FEA6C4C00FB27
:102880000CF003EBE03894EA440348BFC4F1004481
:10289000641404FB04FC4FEAEC2CCCF5C03C04FBB4
:1028A0000CFC0EEB05033A695C69126894EA440378
:1028B0004FEA6C4C02FB0CF248BFC4F1004408EB39
:1028C000E230641404FB04F3DB12C3F5C03304FBF1
:1028D00003F37A6975441268AC695B1402FB03F375
:1028E00000EBE33294EA440348BFC4F100446414AB
:1028F00004FB04F3DB12C3F5C03304FB03F4BB6930
:102900001B68641403FB04F402EBE43396EA46020A
:1029100048BFC6F10046761406FB06F2D212C2F595
:10292000C03206FB02F6FA691268761402FB06F65C
:1029300003EBE63606F30E0606FB06F2D21306EBB1
:10294000660306FB02F6A3EBA6364FF2584303FBE1
:1029500006F60D4BF61343F82160BDE8F08F00BF7B
:102960001C7A0220C091FF1FE88FFF1F0081FF1F0C
:10297000986500205C6F0020A8740220688CFF1FFF
:102980004C9C03000C6CFF1F7085FF1F905EFF1FA7
:10299000CC360400146DFF1FCC6300203481FF1F70
:1029A0009C65002010740220BA4ABB4BBB492DE93C
:1029B000F04F1768BA4A5FFA87FC8BB013F80C30F7
:1029C00052F823301B68002BD4BF002201220CEBED
:1029D0008202002BB8BF5B4251F8220030FB03F0AB
:1029E000B04AC3F5FF437F3352F8272032FB03F38D
:1029F000AD4ADFF8E0921278AC4D19F80210AC4EF7
:102A0000AC4C2D683668009754F82740AA4F0196C1
:102A10004901EEB27958C6EBC60706EB870EAE0049
:102A20000344CDF820E071449D4806F47F7E6D009C
:102A3000724405F4FF7550F821100695002B1544DB
:102A40009E480A68CDF814E0B8BF5B429B1050F86E
:102A5000251002FB01F2019E9948B11C521050F85A
:102A6000211002EB0128A8F35858DFF86CA2954D0D
:102A7000DAF80820DAF804101768DAF80C20086889
:102A80001668DAF8102029781568DAF8002019F8A5
:102A900001B01268079102F50049DAF814201919FB
:102AA00008F109081468DAF8182005F5004505FA58
:102AB00008F503951546DAF81C20D5F800A0126831
:102AC0007D4D00F5004E0AF5004A58180EFA08FE32
:102AD0000AFA08FACDF810A002F500420EEB000A3F
:102AE00007F5004706F5004604F5004407FA08F725
:102AF00006FA08F604FA08F409FA08F902FA08F8DE
:102B00004FEA9A2201EB0E0A02EB9A2A4FEA4B1B7C
:102B10001A181344CDF808800EEB020855F80B5034
:102B2000099507EB000B9E440AEB982808EB9E28BA
:102B30004FEA9B2B01EB070E0BEB9E2B07EB020ED4
:102B400006EB000A1F440BEB9E2B039D0BEB972B10
:102B50004FEA9A2A8F1999440AEB972AB71808EB7B
:102B600099291E4405EB00080AEB972A0AEB962ADE
:102B70004FEA98284E1908EB9628AE1804EB000E81
:102B80001D4408EB962808EB95284FEA9E2E0D1958
:102B9000049FD9440EEB952E029DD14407EB000B08
:102BA000C1442844A846A5180EEB952E1C440EEBF4
:102BB000942E4FEA9B2BCC190BEB942B4144BC1861
:102BC000800A45460BEB942B424400EB9120FC1805
:102BD000F1440BEB942400EB9220EA1800EB9220D6
:102BE0004C44089A38490444099815182C48059A09
:102BF00050F82500069D2A44079DE4122A44A4F5B6
:102C0000FF44009D7F3C41F825402C4C54F8224065
:102C1000026802FB04F22A48019E50F82600520185
:102C200002EB803282F31E02284D294C55F82C60AD
:102C30005200B00250FB14F751F82C40B000E41BD6
:102C400052FB10F7DFF894E05EF82C0038444EF8A1
:102C50002C00241A52FB14F2324445F82C20821026
:102C600002F30E0202FB02F4E41302EB620002FB29
:102C700004F2A0EBA2324FF2584000FB02F2009D9A
:102C80000C48D21340F8253041F82C200BB0BDE899
:102C9000F08F00BF1C7A0220C091FF1FE88FFF1F3A
:102CA000905EFF1F0081FF1F9C6500205C6F00206D
:102CB000A8740220CC630020146DFF1F688CFF1FD6
:102CC0003481FF1F986500207085FF1F0088FF1F5B
:102CD00000307500CC3604000C6CFF1F2865002006
:102CE000044B054A1968054B52F8212053F822304D
:102CF000184700BFA87402200890FF1F94C6050063
:102D0000594BDFF88CC1594A5948126859492DE985
:102D1000F0471D78D0F800901CF80530DFF874E11A
:102D20000868DFF874A1544F544E5B01D1B2B9F179
:102D3000000F5EF80380C1EBC1030CBF0224002426
:102D400001EB830100F0010323449400884404F460
:102D50007F7452005AF8233046F82030254402F49C
:102D6000FF7257F82830DFF834811B68154458F893
:102D7000255003FB05F5424B09F102090C2D53F8D0
:102D80002930D4BF0025012505EB930585F30F05F8
:102D90003C4B1B781CF803C04FEA4C1C22445EF8E5
:102DA0000C402144134457F8212058F8231013688D
:102DB00003FB01F1344B021D890053F8223081FAE4
:102DC00083F181F31E01DFF8D8E0C0B249005EF85C
:102DD000207007F30E0303FB03F2D21303FB02F28E
:102DE00003EB6303A3EBA2334FF2584404FB03F35A
:102DF000C5F50345E835DB13AD009B0353FB15F325
:102E000056F82050ED1A07F30E0303FB03F2D2131A
:102E100003FB02F203EB6303A3EBA23304FB03F314
:102E2000DB139B0051FB13FC184A52F8203063441B
:102E300042F82030ED1A51FB15F10F444EF8207086
:102E40009B1003F30E0303FB03F2D21303EB6301A6
:102E500003FB02F3A1EBA33304FB03F4E41346F8F2
:102E60002040BDE8F08700BF9C6500205C6F00201B
:102E7000A87402201C7A0220905EFF1F7085FF1F3D
:102E80003481FF1F986500200081FF1F2865002006
:102E9000CC360400146DFF1F587B0220688CFF1F86
:102EA0000088FF1F4C4BDFF85CC11B784B4A1CF8B5
:102EB000031012684A482DE9F0474A4CDFF848E110
:102EC000D4F800800068DFF844A1474F474C49011F
:102ED000D5B2B8F1000F5EF80190C5EBC5010CBF8B
:102EE0000226002605EB810500F001013144960021
:102EF000A94406F47F7652005AF8211044F82010B5
:102F0000334402F4FF7257F829A0DFF804919918AE
:102F1000DAF8003059F8211003FB01F1344B08F1C5
:102F20000208082953F82830D4BF0021012101EB01
:102F3000430181F311012F4B1B781CF803C04FEAAA
:102F40004C1C32445EF80C603544134457F825504D
:102F500059F823202B6803FB02F2274B051D920032
:102F600053F8253082FA83F282F31E02234EC0B258
:102F7000C1F50C3156F8203001F2C7218901520009
:102F80009D0255FB11F154F820509F00C1EB050E36
:102F900052FB17F51A4F57F820100D4447F82050F0
:102FA000C5EB0E0552FB15F2134446F8203003F32F
:102FB0000E0303FB03F1C91303EB630203FB01F3ED
:102FC000A2EBA3334FF2584202FB03F3DB1344F8A6
:102FD0002030BDE8F08700BF9C6500205C6F0020BA
:102FE0001C7A0220A8740220905EFF1F7085FF1FCC
:102FF0003481FF1F986500200081FF1F0088FF1F9C
:1030000028650020CC360400146DFF1F587B022079
:10301000688CFF1F4B4BDFF858C11A784A491CF8DF
:103020000230096849482DE9F047494CDFF844E18E
:10303000D4F800900468DFF840A1464F46485B0191
:10304000CDB2B9F1000F5EF80380C5EBC5030CBF2C
:103050000226002605EB830504F0010333448E00AD
:10306000A84406F47F7649005AF8233040F824300B
:10307000324401F4FF7157F82830DFF800811B68F3
:103080000A4458F8222003FB02F2344B09F10209EA
:10309000082A53F82930D4BF0022012202EB430250
:1030A00082F311022E4B1B781CF803C04FEA4C1C14
:1030B00031445EF80C6035440B4457F8255058F8FD
:1030C00023102B6803FB01F1264B251D890053F8C3
:1030D000255081FA85F181F31E03234DE4B2C2F538
:1030E0000C3255F8247002F2C72292015900BE0238
:1030F00056FB12F650F82420BB00921B51FB13FE26
:103100001A4E56F82430734446F82430D31A51FB33
:1031100013F1394445F824105B1003F30E0303FB4D
:1031200003F1C91303EB630203FB01F3A2EBA33327
:103130004FF2584202FB03F3DB1340F82430BDE8A2
:10314000F08700BF9C6500205C6F00201C7A022085
:10315000A8740220905EFF1F7085FF1F3481FF1F3F
:10316000986500200081FF1F0088FF1F2865002050
:10317000CC360400146DFF1F587B0220688CFF1FA3
:10318000044B054A1968054B52F8212053F82230A8
:10319000184700BFA87402200890FF1F506E05005A
:1031A0006F4B704A2DE9F04F1F78DFF8EC816E4BC2
:1031B00018F807501B6811686C4A6D4E1068DFF8EC
:1031C000DCB16C4C6D01DAB256F805E0C2EBC20519
:1031D00002EB850C9D00E64405F47F755A00664BB2
:1031E0002F4402F4FF7253F82E30174483B001F1DC
:1031F000040E1B685BF8277003FB07F75F4B53F85F
:10320000203003EBE70383F318035D4F9B0157F86E
:10321000219059FB03F35FFA81FA0093594B564E04
:1032200013F80A3056F823301E68002ED4BF00274A
:10323000012786EAE6730AEB8707A3EBE673524E93
:1032400056F8277037FB03F7C3F5FF437F3339FB8D
:1032500003F3DFF84C91484E99F800A018F80A8063
:103260002A444FEA4818424D55F8085065443B44FB
:1032700056F825505244002BB8BF5B422E685BF8CD
:10328000222001934FEAA30C06FB02F23F4D861C5D
:10329000521055F8265002EB052282F31802950CC5
:1032A00054F82E3054F82170DFF8F8A06E1C4FEA65
:1032B000136836023F0E2D02C00307EB0609464491
:1032C0002F4445448144009B064407442844C2F3EC
:1032D0008F023AF910803AF919503AF916603AF922
:1032E00017700CEB030A54F82130C2F57F4003EB52
:1032F0004C0B02FB05F554F82E30373000FB07F776
:1033000002FB06F62D1405EB274200FB08F003EB49
:103310004A053614019B06EB204002441B13E3448C
:103320000AEB050083F30E03194D1A4E55F8217070
:10333000521003FB02F2C3F58043921307FB03F321
:1033400002EBA3330CEB0B07504444F8217045F813
:10335000213044F82E0046F8213003B0BDE8F08F4C
:10336000986500201C7A02205C6F0020A87402205F
:10337000146DFF1FCC630020905EFF1FF8640020D7
:103380000081FF1FC091FF1FE88FFF1F3481FF1FC7
:10339000588002207085FF1FCC360400688CFF1F08
:1033A0009C65002008740020044B054A1968054BF1
:1033B00052F8212053F82230184700BFA874022089
:1033C0000890FF1F14940300964B974A1B781268CD
:1033D0002DE9F04FDFF87492DFF8748219F80300DA
:1033E000DFF870E2914DD4B24001E70058F80000D8
:1033F0002E68391B83B04FEA820B04EB8101520027
:10340000014402F4FF720BF47F70009003441046F5
:10341000019203445EF821208549126851F8230087
:1034200002FB00F0834B844A1D68DFF82CC2834BFB
:103430005FFA85FB001112F80B205EF82220D2F80B
:1034400000A05CF82620BAF1000FD4BF00210121B2
:103450000BEB810100EB02108AEAEA72A2EBEA723E
:1034600053F8213033FB02F37549C2F5FF427F3236
:1034700051F8251031FB02F1DFF8E0A10B4483EA9B
:10348000E371A1EBE3715AF8253089100B4493EAFC
:10349000430B4CBFC3F100421A464FEA624B0BFB91
:1034A0000BF2D212C2F5C0320BFB02F2DFF8B0B160
:1034B0009BF800B019F80B904FEA49193F1B58F8D8
:1034C000098004EB8707009C4744A046019C5EF8F6
:1034D0002770A044C3443C68554F57F82B7004FB39
:1034E00007F4B71C5CF8277004EB072484F3180476
:1034F000DFF870E1534FDFF87081DFF870917644A8
:103500004FEA245EB6780EF1010C06EB0616B444C1
:103510005214764400FB023257F82CE057F826701C
:10352000D20D0B443EF912B037F912C0C8F8007042
:10353000C4F30F12C2F57F4602FB0BFBFF3693EA82
:1035400043081C464FEA2B4B06FB0CFC48BFC3F15B
:103550000044C9F800E00BEB2C4C641404FB04F8A5
:103560004FEAE828C8F5C03804FB08F4641400FBEF
:103570000434E40D0B443EF9148037F9149002FB37
:1035800008F84FEA284406FB09F804EB2848E04411
:1035900093EA430C1C4648BFC3F10044641404FB87
:1035A00004FC4FEAEC2CCCF5C03C04FB0CFC4FEACD
:1035B0006C4C00FB0C3C4FEADC5C0B443EF91C40BD
:1035C00037F91C104AF8253002FB04F4241406FBDA
:1035D00001F104EB2141884493EA43011C4648BFB2
:1035E000C3F10044641404FB04F1C912C1F5C031F5
:1035F00004FB01F4641400FB0430C00D124B3EF9CF
:10360000104037F9101002FB04F2121406FB01F609
:1036100002EB2646B0444FEAA80643F8256003B003
:10362000BDE8F08F986500205C6F0020A874022030
:10363000688CFF1F1C7A0220C091FF1FE88FFF1FBC
:103640000081FF1FA868FF1F7085FF1FCC36040094
:10365000146DFF1F905EFF1F3481FF1FCC6300209D
:103660009C650020245CFF1FC48DFF1FA47C0220EA
:103670006B4A6C4B6C492DE9F04F14686B4EE2B20B
:103680009B5C56F823301B68002BD4BF0020012020
:1036900002EB8002002BB8BF5B4251F8221031FBD5
:1036A00003F1634AC3F5FF437F3352F8240030FB34
:1036B00003F0604BDFF894911D785F4A19F80530EC
:1036C0001768DFF88CB1DFF88C81DFF88CE15B01E3
:1036D000FAB25BF803C0D8F80030C2EBC20802EBC4
:1036E0008808BA0002F47F7AC4447A00554402F490
:1036F000FF72084456F82C7015440028B8BF4042A9
:1037000039685EF8255001FB05F14C4D9F1C55F8BA
:10371000275001EB052181F31801494F494D3F78AE
:10372000DFF838C119F807904FEA49191D445BF8D2
:1037300009B0AD78DFF82891D8444FEA215B05EB5A
:10374000051552440BF1010AAB4455443A4456F86E
:1037500028A0DFF810815CF82B605CF825505EF83B
:103760002270DAF800C0C9F80060C1F30F11C8F880
:1037700000500CFB07F7344A52F8232002EBE70312
:1037800083F31803DB0150FB03F3DFF8DCE0DFF821
:10379000DCC05EF824201F183A444EF8242004F1BF
:1037A0000408C31A5EF828703B444EF8283004F130
:1037B0000808DB0D5EF8287036F913A035F913B050
:1037C000D20D3844C70D36F9129036F9173035F955
:1037D000122035F917504EF828004FEA69094FEAD0
:1037E0006A0AC9EB6202CAEB6B0B5B1001FB02F2C7
:1037F00001FB0BFBC3EB650501FB05F109EB22495E
:103800000AEB2B4A03EB2143CA44534445F255517A
:1038100001FB03F3DB134CF82430BDE8F08F00BF4D
:103820001C7A0220C091FF1FE88FFF1F905EFF1FD0
:103830000081FF1F9C6500205C6F00203481FF1F0A
:1038400098650020245CFF1FF8640020CC3604003B
:10385000146DFF1FA8740220688CFF1FA868FF1F4B
:10386000C48DFF1FA47C0220CC6300207085FF1F45
:10387000934B944A94482DE9F04F1D68934BE9B25D
:103880002E46525C53F822201568002DD4BF002428
:10389000012401EB840185EAE57289B0A2EBE572AF
:1038A00050F8211031FB02F1DFF84892C2F5FF42D7
:1038B0000C467F32354659F8261031FB02F202924F
:1038C000834ADFF834E21078824A1EF800601268FA
:1038D000DFF82882DFF828C27601D1B258F80660F6
:1038E000C1EBC10701EB870791003E4401F47F71F2
:1038F0005200084402F4FF7253F8266000EB020AFB
:1039000030685CF82A6000FB06F0DFF8F8A1724E20
:103910009AF800A036681EF80AE001954FEA4E1E9C
:10392000514458F80EE005F10408774459F828E0AE
:1039300053F82770694B3F6853F82830114470449E
:103940005CF82110801007FB01F7654AB11C52F8A2
:10395000211007EB012181F31801624FDFF8A8E184
:10396000DFF8A8B12246029C3E4414445B4F84EA2F
:10397000E472A2EBE47257F825409210A7183C4677
:1039800028BF00230344B778029416194FEAD35591
:103990004FEA215C28BF00230344941907EB071763
:1039A0000CF101094FEAD35AB94428BF0023B60DE0
:1039B00012190344049267445BF829203EF916C0AB
:1039C000464E5BF82770CDF818C04FEAD35928BF90
:1039D0000023184446F8280032F91A30029E37F9BD
:1039E0001AB0C1F30F1101FB03F34FEA965A32F9F3
:1039F000156037F91550059302954FEA9458019DCB
:103A0000049C364B3EF91AA03EF9188043F8254035
:103A1000C00D069DCDF80CA0C1F57F4C4FEA945A1D
:103A20000CF1FF0C32F91040CDF81C80059B37F9E2
:103A3000108032F919003EF91AE037F919900CFBA1
:103A40000BFA4FEA650B029D01FB06F601FB00F045
:103A50001B1401FB04F1039C03EB2A4336140CFBFB
:103A600005FA079D0CFB09F964100BFB03FB06EB41
:103A70002A4600140CFB08FC00EB29404FEA6508BD
:103A80004FEAEB3B04FB06F6091401EB2C4108FB63
:103A900000F44FEA6E0E0BEBE6360EFB01F306EB7D
:103AA000E43404EBE333104C104811492760019CC7
:103AB0000A605B1040F8243009B0BDE8F08F00BF09
:103AC0001C7A0220C091FF1FE88FFF1F905EFF1F2E
:103AD000986500205C6F0020A8740220CC63002051
:103AE0003481FF1F245CFF1FC48DFF1F7085FF1FE3
:103AF000A47C02200081FF1FCC360400146DFF1F40
:103B0000688CFF1F9C650020BC890400A868FF1F0B
:103B1000044B054A1968054B52F8212053F822300E
:103B2000184700BFA87402200890FF1FFC60030024
:103B3000564B574A196857482DE9F04FCBB2DFF87A
:103B40008091D25C59F822201568002DD4BF002442
:103B5000012403EB840385EAE57283B0A2EBE572EE
:103B600050F8233033FB02F3DFF85881C2F5FF42EF
:103B70007F3258F8210030FB02F2474D474C685C19
:103B80001344002BB8BF5B420093002875D154F852
:103B9000210001226A54424A424F1678424A17F8DD
:103BA00006E01268DFF820A1DFF820B14FEA4E1ED0
:103BB000D5B25AF80EC0C5EBC50E05EB8E054FEA1F
:103BC000820EAC440EF47F7E520002F4FF73764402
:103BD000009A59F82CC001931E44104444F8210067
:103BE000DCF800C05BF826600CFB06F32F4E36783D
:103BF000BF5D01F1040C7F0176445AF807A058F824
:103C00002C70554402EB0708019A59F82550984446
:103C100054F82C30164408EB03072A6844F82C703B
:103C20005BF8265002FB05F2214DDFF8A4802D68D9
:103C3000204E01F1080E05F1020C54F82E3058F810
:103C40002C5003EB8505009BC00DFF0D2B449D18E8
:103C500044F82E5036F9102036F9173002FB03F3E2
:103C6000ED0DDA1336F9153002FB03F3124ADB13BC
:103C700042F8213003B0BDE8F08F104A54F821001B
:103C800052F82120824284D885E700BF1C7A0220A6
:103C9000C091FF1FE88FFF1F587F0220CC630020D8
:103CA00098650020CC3604005C6F00209C650020E5
:103CB000A8740220048403007085FF1F1480FF1F76
:103CC000905EFF1F0081FF1F146DFF1F688CFF1F98
:103CD000F8640020554B564A196856482DE9F04FB4
:103CE000CBB2DFF88091D25C59F822201568002D04
:103CF000D4BF0024012403EB840385EAE57283B07A
:103D0000A2EBE57250F8233033FB02F3DFF8588161
:103D1000C2F5FF427F3258F8210030FB02F2464DD7
:103D2000464C685C1344002BB8BF5B4200930028EC
:103D300073D154F8210001226A54414A414F167848
:103D4000414A17F806E01268DFF820A1DFF820B139
:103D50004FEA4E1ED5B25AF80EC0C5EBC50E05EBA4
:103D60008E054FEA820EAC440EF47F7E520002F4C0
:103D7000FF737644009A59F82CC001931E441044F6
:103D800044F82100DCF800C05BF826600CFB06F369
:103D90002E4E3678BF5D01F1040C7F0176445AF84F
:103DA00007A058F82C70554402EB0708019A59F8FF
:103DB0002550984454F82C302D68324408EB030702
:103DC0005BF8222044F82C7005FB02FC204A214DB0
:103DD000D2F800A0204A214EC00D01F1080E35F99D
:103DE000108054F82E300AF1020007EBC83752F861
:103DF0002000FF0D03EB8000009B35F917200344E2
:103E0000634403EBC232D20D44F82E3035F9123040
:103E100046F8213003B0BDE8F08F114A54F8210074
:103E200052F82120824286D887E700BF1C7A022000
:103E3000C091FF1FE88FFF1F587F0220CC63002036
:103E400098650020CC3604005C6F00209C65002043
:103E5000A874022004840300F86400207085FF1F0A
:103E60001480FF1F905EFF1F0081FF1F146DFF1F56
:103E7000688CFF1F654B664A196866482DE9F04F4C
:103E8000CBB2DFF8C091D25C59F822201568002D22
:103E9000D4BF0024012403EB840385EAE57283B0D8
:103EA000A2EBE57250F8233033FB02F3DFF8988180
:103EB000C2F5FF427F3258F8210030FB02F2564D26
:103EC000564C685C1344002BB8BF5B42009300283B
:103ED00040F0938054F8210001226A54504A514F17
:103EE0001678514A17F806E01268DFF860A1DFF88B
:103EF00060B14FEA4E1ED5B25AF80EC0C5EBC50EE2
:103F000005EB8E054FEA820EAC440EF47F7E520024
:103F100002F4FF737644009A59F82CC001931E44B2
:103F2000104444F82100DCF800C05BF826600CFB6C
:103F300006F33E4E3678BF5D01F1040C7F017644F6
:103F40005AF807A058F82C70554402EB0708019A5C
:103F500059F82550984454F82C302D68324408EB19
:103F600003075BF8222044F82C7005FB02FC304A62
:103F7000304E1268304D01F1080E023254F82E30E6
:103F800056F82260C00D03EB8606009B35F9102021
:103F900033446344D0031E183844F60DC00D44F872
:103FA0002E3035F9100035F9163003FB00F393EA93
:103FB000430048BFC3F100435B1403FB03F0C0128E
:103FC000C0F5C03003FB00F35B14DB0002FB03F31E
:103FD00093EA430248BFC3F100435B1403FB03F2BF
:103FE000D212C2F5C03203FB02F3144A5B14DB00A9
:103FF00042F8213003B0BDE8F08F114A54F8210097
:1040000052F8212082427FF669AF65E71C7A0220D0
:10401000C091FF1FE88FFF1F587F0220CC63002054
:1040200098650020CC3604005C6F00209C65002061
:10403000A8740220F8640020048403007085FF1F28
:104040001480FF1F905EFF1F0081FF1F146DFF1F74
:10405000688CFF1F674B684A186868492DE9F04F64
:10406000C3B2674ED25C56F822201568002DD4BF2B
:104070000024012403EB840385EAE572A2EBE572D8
:1040800051F8233033FB02F35E49C2F5FF427F3221
:1040900051F8207037FB02F75B4ADFF884A11178F2
:1040A0005A4A1AF801501268DFF87891584CDFF834
:1040B00078B1DFF878816D015FFA82FC59F805E08C
:1040C0002568CCEBCC040CEB84041F444FEA820C33
:1040D000A6440CF47F7C87EAE7735200A3EBE773F6
:1040E00061445BF8207056F82EE002F4FF72114430
:1040F000DF194BF82070DEF8003058F8211003FB70
:1041000001F3444905F1020E51F82EE003EB0E23B2
:1041100083F31803DFF818E19EF800E01AF80EA008
:104120004FEA4A1A624459F80AC06444964456F861
:10413000242058F82E401268C3F34F1602FB04F4F3
:1041400051F82520641004EB0224A4F31024324A11
:10415000DFF8E0E012F825504FEAC50C5B0D0CEBE0
:10416000050119443A093EF8111002FB01F191EAE8
:10417000410848BFC1F10041491401FB01F84FEA71
:10418000E828C8F5C03801FB08F1654401332B4429
:1041900049143EF8133002FB03F393EA430248BF8D
:1041A000C3F100435B1403FB03F2D212C2F5C03229
:1041B00003FB02F3C1EB634306FB03F301EB234173
:1041C00097EA470348BFC7F100477F1407FB07F38F
:1041D000DB12C3F5C03307FB03F77F14C91B04FBD5
:1041E00001F107EB21470D4BFF0043F82070BDE8BC
:1041F000F08F00BF1C7A0220C091FF1FE88FFF1FC5
:10420000905EFF1F0081FF1F9C6500205C6F0020F7
:10421000A87402203481FF1F0890FF1F7085FF1FC4
:10422000CC360400146DFF1FCC630020688CFF1F88
:10423000986500204C9C0300754A764B10687649BF
:104240002DE9F04FC2B2DFF8F8E19B5C734C5EF8E9
:10425000233000F104091E6854F8295085B0002E5F
:10426000039554F820500295D4BF0025012502EB98
:10427000850286EAE67300F1080CA3EBE67351F8B9
:10428000222032FB03FB664AC3F5FF437F3352F81B
:10429000202032FB03F3634ADFF8A8A192F80080E4
:1042A000614A1AF808101268604F614E4901D5B290
:1042B00079583668C5EBC5075B4405EB8705970061
:1042C000002B294407F47F774FEA4202B8BF5B42D4
:1042D000B84402F4FF725EF8211001939044554BEC
:1042E000096853F8288001FB08F1DFF85C8158F871
:1042F0002630491201EB530181F30F01DFF84CB175
:104300004A4B9BF800B01AF80BA04FEA4A1A3A44FD
:104310005A4453F80A70474B3D4453F82270019BAE
:104320005EF825505A1401FB02FE2D6801EBEE21C8
:1043300005FB07F506F1020E6D1258F82E7005EB1D
:10434000570585F30F053C4FDFF80481DFF804E1E2
:1043500058F826803E445EF8287036795EF826606C
:1043600006FB03FE54F82C3003EB1E1E019B07FBDB
:1043700003F69EEA4E0305FB02F24CBFCEF1004865
:10438000F04605EBE22536094FEA684808FB08F2DB
:10439000D212C2F5C03208FB02F8039B33441E461A
:1043A0001F464FEAA83896EA460305FB08F848BFBF
:1043B000C6F100474FEAE8087F1407FB07F2D21264
:1043C000C2F5C03207FB02F7BF13019B029A01FB43
:1043D00007F103EBE1034344134493EA43011A4614
:1043E00048BFC3F10042521402FB02F1C912C1F5E9
:1043F000C03102FB01F2114944F82030921344F815
:10440000296041F8202044F82CE005B0BDE8F08F89
:104410001C7A0220C091FF1FE88FFF1FCC63002091
:104420000081FF1F986500205C6F0020146DFF1F46
:10443000A8740220688CFF1F245CFF1F7085FF1F7B
:10444000905EFF1FCC3604003481FF1F9C65002066
:104450000890FF1F603906007C4B7D481A68DFF822
:1044600024C27C492DE9F04FD3B2DFF81C82C05C36
:1044700058F822405CF820000568002DD4BF0020C9
:10448000012083B003EB800385EAE5770194A7EB75
:10449000E57751F8233033FB07F3C7F5FF477F3744
:1044A00034FB07F76C48DFF8E4A190F800B06B49E3
:1044B0001AF80BE009686A4D6A4CC8B24FEA4E1E02
:1044C000C60055F80E500096C0EB060E00EB8E0E9F
:1044D0000EEB0509DD194FEA810E54F822600EF447
:1044E0007F7E85EAE57349000BEB0E0701F4FF714F
:1044F000A3EBE57333445CF829505B4E44F822305B
:104500000F442D6856F8277005FB07FB02F10409DC
:1045100058F8295054F8297005EB8B052F4497EA79
:1045200047063D4648BFC7F1004544F829706F145F
:1045300007FB07F5ED12C5F5C03507FB05F54B4F39
:10454000009E97F800B01AF80BA0371A4FEA4A1AE3
:10455000434E56F80AA0444E00EB87075744714477
:104560008B445CF8271056F82B7009686D14AD0069
:1045700001FB07FE3E49DFF818B1096802F10807A0
:1045800001F1020A54F827605BF82A1006EB41118A
:1045900001EB8E018E4644F827109EEA4E0148BF7B
:1045A000CEF1004E4FEA6E4E0EFB0EF1C912C1F570
:1045B000C0310EFB01F1DFF8DCA0DFF8DCE04FEAF0
:1045C000136B49143AF81BA005EB81055EF8221025
:1045D0004FEA6A0A0AFB05F58B424FEAA5352549E1
:1045E00001D38B5C5BBB244B009E1B78DFF8ACA037
:1045F000361A3AF913A000EB860656441F485CF8B9
:10460000266030F91300DFF898A0336800F5806069
:1046100000264FF0010C44F829605B013AF91000C4
:1046200001F802C044F8276003FB00F3D8F800103B
:1046300033FB11F3019901EB83034EF82230104B49
:104640006D1043F8225003B0BDE8F08F1C7A0220B1
:10465000C091FF1FE88FFF1F986500205C6F00204E
:10466000146DFF1FCC630020688CFF1F9C65002029
:10467000A8740220587F0220787A02204C65FF1F20
:104680007085FF1F905EFF1F0081FF1FCC36040066
:10469000F8640020A04803001480FF1FF064FF1F8F
:1046A000EC450600044B054A1968054B52F82120D9
:1046B00053F82230184700BFA87402200890FF1F4B
:1046C000948504004749484A0878DFF844C11168D6
:1046D000464B2DE9F04FDFF83CA1454C1A681AF81B
:1046E000005054F821B0434E5CF82140424B434FF8
:1046F000DFF824E1DFF82491DFF8248106FB04F6DB
:104700006D01D4B23344E6007D594CF82130C4EB3E
:10471000060C04EB8C0CAC44394FD8F8008057F8E9
:104720002CC0384F95001B0C57F8217005F47F758D
:10473000A3F5FF4352007F3B284402F4FF72BB44C1
:104740004EF8213010442F4FDCF800C047F821B05C
:1047500059F820700CFB07F7DFF8C8C008F1020019
:1047600083EAE37B5CF820000009C0F5FF407F305E
:10477000ABEBE37BA0EB67305845234800781AF891
:104780000070C4EB060A4FEA47171C4EF75904EBBA
:104790008A043C442A441A4D84BF00234EF8213039
:1047A00055F824400244206859F8222000FB02F208
:1047B0005CF82800921202EB900282F30E02134D75
:1047C00055F8214003FB02F3C2F580409A1304FB25
:1047D00000F302EBA33345F821304EF82130BDE859
:1047E000F08F00BF9C6500201C7A02205C6F0020C7
:1047F0000081FF1F3584B30B6B631936146DFF1FE7
:10480000905EFF1FCC630020986500205880022036
:104810004856FF1FCC3604007085FF1F688CFF1FB1
:10482000A87402203481FF1F504A514B2DE9F04FEC
:104830001B7816684F4ADFF86CE1D05C4E4A4F4C4B
:1048400011684001F2B2D5005EF8008054F82100F2
:10485000AF1A02EB8707B400760006F4FF7C4744EA
:10486000474E04F47F7456F82770234403EB0C067C
:1048700083B03B68434F019457F8266003FB06F36F
:10488000414E424FD6F800A0414E0AF1020901F113
:10489000040857F8297056F828405B1303EB573388
:1048A00056F82170C71904FB0373984246F821306B
:1048B00041D8DFF8F4B0374E2E4C3678A75DAD1AEC
:1048C0007F0102EB8505019A5EF80770DFF8DCE0F6
:1048D00062443D4414462A4ADB0D52F825203EF935
:1048E00013501368274A2644ED1052F8262003FB84
:1048F00002F3294A52F82A2002EB632305FB03F353
:10490000C0F100401B1353FB00F02844430493EA1A
:10491000804248BFC3F100435B1403FB03F2D21291
:10492000C2F5C03203FB02F35B14DB004BF821300D
:1049300003B0BDE8F08F194C194F54F82140DFF84F
:104940007090DFF864B007FB04F7B9444FEA1947E9
:10495000A7F5FF47114C7F3F44F821904FEAA70984
:1049600046F828904BF82170A5E700BF5C6F002047
:104970009C650020CC3604001C7A02200081FF1FB9
:10498000905EFF1F688CFF1FA8740220F86400204F
:10499000CC630020986500203481FF1F4856FF1F1C
:1049A0003584B30B146DFF1F7085FF1F0484030053
:1049B0006B6319362E4A2F4B10682F4953F820206D
:1049C00051F8203013449A42F0B541F8203049D9CB
:1049D0002A4E2B4B56F820102A4A2B4C2B4D03FB0A
:1049E00001F31A44110CA1F5FF417F3946F820204C
:1049F00044F82010264B274A93F800C0264B12F8A3
:104A00000C601B68254FDFF8A4E07601DAB2BE59CE
:104A1000C2EBC20702EB87079A00374402F47F72A9
:104A20005B000CEB020603F4FF735EF827201C4FBB
:104A30001268334457F8233002FB03F2194E1A4B25
:104A4000366853F82630921302EB931383F30B036B
:104A5000C3F5806301FB03F39B1245F8203044F853
:104A60002030F0BD094D084C55F82010C2E700BFBA
:104A70001C7A02200081FF1FCC6300204856FF1FD4
:104A80003584B30B6B6319367085FF1F5880022085
:104A900098650020CC3604005C6F0020146DFF1F69
:104AA000688CFF1FA87402203481FF1F905EFF1FD7
:104AB0006F4B2DE9F04F18686E4DDFF8E8A155F8FF
:104AC00020305AF8207087B03B449F42039345F84A
:104AD000203000F2AE8000F1080300F10408664ABD
:104AE000059355F8233055F82810029352F82020EA
:104AF000624B019104936249DFF8AC9191F800E0B8
:104B0000604919F80E6009685F4BDFF8A0B17601C3
:104B1000CCB253F806C05D4BC4EBC40604EB86046C
:104B20008E00A44406F47F764900B64401F4FF7178
:104B300053F82CC08E44DCF800C05BF82EE00CFB70
:104B40000EFEDFF86CC1524BDCF800C00CF1020C19
:104B500053F82CC00CEB6E2E02FB0EFE5EFB07F72B
:104B60004C4A494B12785AF828A019F802E04FEA4B
:104B70004E1E314453F80E60444B3444114453F8F4
:104B800024405BF82120216801FB02FE0AEB8E0E17
:104B9000019B77441F4401FB02F2029B0AEB820A4D
:104BA00053441A4697EA47033C4648BFC7F10044BE
:104BB000641404FB04F1C912C1F5C03104FB01F116
:104BC00092EA4203144648BFC2F1004449146414F7
:104BD00004FB04F6F612C6F5C03604FB06F4A1EB9E
:104BE000644101F30E0101FB01F4039BE41301FB9B
:104BF00004F401EB6101A1EBA43193EA430448BF43
:104C0000C3F100435B1403FB03F4E412C4F5C034A6
:104C100003FB04F35B1401FB03F3049945F82870CC
:104C20009B1241F82030059B45F8232007B0BDE8D2
:104C3000F08F194E194C56F8202019490F4BDFF808
:104C400038E0049304FB02F211440A0CA2F5FF427F
:104C50007F3A43F8202000230293019300F10803D8
:104C600046F820104EF8202000F10408059342E792
:104C70001C7A0220CC630020588002207085FF1F20
:104C80009C6500205C6F0020146DFF1F905EFF1F6D
:104C90003481FF1F986500204856FF1F3584B30BF1
:104CA0006B6319360081FF1FCC360400688CFF1F30
:104CB000A8740220524A534B53481B685349DFF8EB
:104CC0006CC12DE9F04F1478DFF86481504D514AE2
:104CD00018F8046055F823701268DFF858E1DFF81F
:104CE00058915EF823B0DFF854E1760100FB07111C
:104CF000D0B245F823105CF80660C0EBC00500EBAD
:104D00008500090C00EB060AA1F5FF41424E7F39F0
:104D100046F823105EF82A1059F823600968DFF876
:104D200020A1950005F47F7552002C4402F4FF7217
:104D300014440F4639495E4449F823605AF8246008
:104D40000C6807FB06F9364E56F824104FEA49194D
:104D500009EB813181F31E01DFF8E89099F80090AA
:104D600018F809804FEA48182A445CF8085028448B
:104D700091445EF820005AF829200068490000FBA1
:104D800002F00234082856F82420D4BF0020012065
:104D900000EB420080F31100224DDBB2C0F522305F
:104DA00055F82320B7304000D40354FB10F01A4CC0
:104DB00054F823405600201A51FB16F41A4E56F8A8
:104DC00023703C4446F82340041B51FB14F10A4471
:104DD00045F8232002F30E0202FB02F0C01302EB9F
:104DE000620102FB00F2A1EBA2324FF2584101FB3B
:104DF00002F20949D21341F82320BDE8F08F00BF29
:104E0000986500201C7A02203584B30B6B63193639
:104E10004856FF1F5C6F00207085FF1FA87402209A
:104E20003481FF1F0088FF1F28650020146DFF1FBD
:104E3000CC3604000081FF1FCC630020905EFF1F72
:104E4000688CFF1F9C650020424BDFF82CC1424A52
:104E50002DE9F04F1F78414B12681CF807001968C4
:104E60003F4EDFF81891DFF818E156F821B03D4DBC
:104E70003D4BDFF81081D4B24001C4EBC40604EB13
:104E800086045EF8000059F82160204405FB06FA0C
:104E9000364E5344950056F8200049F8213005F469
:104EA0007F75520007EB050A02F4FF729244006816
:104EB000DFF8D49058F82170064659F82A00DFF838
:104EC000CCA05F4448F82170DAF8007006FB00FAC5
:104ED000DFF8BC8058F8270000EB6A20A0F35000F0
:104EE000DFF8B0A09AF800A01CF80AC04FEA4C1CEA
:104EF0002A445EF80C5092442C441C4A52F8242058
:104F000059F82A40126802FB04F4023758F82720A7
:104F100002EB6424A4F350141A0CA2F5FF437F3B68
:104F2000002BC0F5FF42124DB8BF644203FB00F3F3
:104F30007F3204FB02F4D81355F8212000EBE43350
:104F4000134403F30F030B4A45F8213042F8213094
:104F5000BDE8F08F986500205C6F00201C7A02206D
:104F60000081FF1F3584B30B6B631936905EFF1F02
:104F7000147FFF1F7085FF1FCC3604004856FF1FAB
:104F8000146DFF1FCC630020688CFF1FA8740220E3
:104F90003481FF1F9C650020794B7A492DE9F04F41
:104FA00093F80080784BDFF808E21A68774B1EF818
:104FB00008401B68DFF8FCB151F82300DFF8F8A1C6
:104FC00087B064010390D0B25BF80470C0EBC004FA
:104FD00000EB84041D1D900000F47F70520051F816
:104FE000256004962744804402F4FF7203F1080C04
:104FF0009044674E5AF8277056F8288051F82C6074
:105000003F68059607FB08F6624FDFF8B09197F806
:10501000008001961EF808E059F823705E4E4FEAB2
:105020004E1E06FB07F65BF80EE05C4F74443744F7
:105030003E0C5AF824A0DFF888E1594C49F8237057
:10504000A6F5FF4B019E5EF825E04044ABF17F0BD7
:10505000024444F823B0B0104D4E00EB2E1E56F81B
:105060002270DAF8002002FB07F74E4A4E48126819
:1050700002328BEAEB7650F82200000AC0F5FF42BC
:105080007F32A6EBEB76A2EB6742B242474854D29E
:10509000C25C002A48D0C2181679002E43D0127A7A
:1050A000002A6AD0039E7644B6F1005F84BF0022D6
:1050B000C254C7183A79002A47D11844049A077A8B
:1050C000002F50D1059F41F82360DFF8F88041F8A8
:1050D0002520DFF8F4E041F82C70C2F34840D20CF0
:1050E00038F910003EF91220C6F34841F60C00FBD7
:1050F00002F0C7F34842FF0C38F911C03EF9161010
:1051000038F912503EF91720C0130CFB01F100EBE7
:10511000E13105FB02F201EBE232921044F8232068
:1051200007B0BDE8F08F01229200861806AF3A441E
:105130000127F754002642F80C6CC25C002AB1D15A
:10514000C718039E3A79002AB7D0049A7244B2F184
:10515000005F88BF4FF00008184488BF87F80480BC
:10516000077A002FAED0059F7744B7F1005F84BF68
:105170004FF0000E80F808E0A5E70222D4E700BF58
:1051800098650020CC6300205C6F00201C7A022010
:10519000688CFF1F9C6500203584B30B6B63193648
:1051A0007085FF1FA87402203481FF1F047FFF1F3A
:1051B000CC360400146DFF1F905EFF1F4856FF1F82
:1051C0000081FF1F04840300BC890400704700BFF6
:1051D00038B50D4B0D4A1C680D4B52F8242053F87E
:1051E00024300C4D9A42296802D8012900D038BDDC
:1051F00040F6FF71084822F0E5F8084BC00043F87C
:10520000240000232B6038BD2C80FF1F247A02204D
:10521000C07A02209465002001F0FFFF707C02201C
:105220002DE9F0411F4F204D3B68204E204CEA18DD
:1052300054F8231092F92520B25C8A4203D032B987
:105240001C4919440A7144F82320BDE8F0811A4A28
:105250001A4802EB43137F21D3F8C43250F82330AD
:105260001B68002083EAE378A8EBE37822F0AAF831
:105270004FEA282880453B680BD91D440D4995F914
:10528000252019440120B25C087144F82320BDE8B0
:10529000F0811D4495F92520B25C44F82320BDE837
:1052A000F08100BFB4620020A85AFF1F547F022083
:1052B0002088FF1F20650020146DFF1F905EFF1FD8
:1052C00038B5054CA4F1F0052046103C22F084F9D5
:1052D000AC42F9D138BD00BFDC87FF1F38B5054CA3
:1052E000A4F16005103C204622F076F9AC42F9D1D9
:1052F00038BD00BF60640020F8B5094A094F0A4D67
:105300000A4E0B490B48002301243B7033702B706D
:10531000147022F0AFF9084A084B14701C70F8BDE5
:10532000B885FF1F447D02200C750220FD87FF1FFA
:10533000706D0300446F0020047400200C7A02207A
:1053400008301BF009BB00BF00B583B002AB0122DF
:1053500003F8011D083019461BF0FEFA03B05DF892
:1053600004FB00BF38B5044600F10805D4F8B4309A
:10537000284698474FF6FD73984201D9012038BD61
:105380000346B4F8BA20B4F8B810284619F04CFC1B
:1053900094F89030032BF1D8DFE803F0140E0802E4
:1053A000B4F8BA30181AA4F8BA00E7E7B4F8B8307D
:1053B000181AA4F8B800E1E7B4F8BA301844A4F811
:1053C000BA00DBE7B4F8B8301844A4F8B800D5E761
:1053D00010B5044621F0C6FD204610BD30B5134B74
:1053E00089B005460C4604A811491D7022F020F82A
:1053F0002146684622F074F8694604A822F0B2F902
:1054000001460C4822F006F9684622F0E5F804A8A7
:1054100022F0E2F8084B094A1B780121AB421170D7
:1054200002D1074B64011C6009B030BD2490FF1FFE
:105430007C6D0300446F0020E46AFF1F04740020A9
:1054400050800220F0B50129154602BF254B6A01A4
:105450001A60254B0C46997918BF5201A14204BF2E
:1054600022490A60D979A14204BF20494A60197AC9
:105470005B7AA14204BF1D498A60A3428DB008BF78
:105480001A4B1B4908BFDA60064604A821F0D0FF7A
:105490002146684622F024F8694604A822F062F901
:1054A000144922F09FF92946074608A822F018F867
:1054B00008A9384622F056F901460F4822F0AAF80A
:1054C00008A822F089F8684622F086F804A822F09D
:1054D00083F80A490A4A0B4B0C70012111701E70A7
:1054E0000DB0F0BDA07A0220786CFF1F7C65002013
:1054F000806D0300886D0300446F0020B0620020BF
:10550000047400202490FF1F08301BF0D9B900BF9D
:105510000D4B1B787BB10D4A0D4910680A6810B419
:105520000C4C2368821A0133B2F5FA6F236003D85A
:105530005DF8044B08607047002BF9D0064C074B10
:10554000246843F82420F3E74988FF1F4880FF1FA1
:1055500070660020988DFF1FF887FF1FEC7B0220EC
:10556000074B1B782BB9074A074912680A44137185
:105570007047044B044A1B68134401221A71704798
:105580006C6C0020B4620020206500202F4B1A783C
:10559000002A4CD0F0B52E4B2E4F1C683B682E498C
:1055A000DFF8C4E00C609C423AD82C4BDEF80000D7
:1055B0001B6818442A4E2B4D33782978CEF800000A
:1055C00001330131DBB2C9B2052B29703C60264999
:1055D0002ED8022B33708CBF002201222349287859
:1055E0000B78234C234D227022EA030317280A70FC
:1055F0002B701C4C13D9204A13780133DBB20021E5
:10560000032B137021700AD91C4E1D4D1D4C1E48D2
:1056100011700123022231602A7023700370F0BDE3
:105620000E49DEF80000E31A0B601844C2E7704729
:10563000124C164F23683860013315482360012748
:105640000023077033700B60C8E700BFB885FF1FE9
:105650004880FF1F2C81FF1FC491FF1F947A0220F6
:10566000FD87FF1F447D0220A48DFF1F247B0220A5
:105670009C660020007C0220C8630020F47FFF1F8E
:10568000B891FF1FFC87FF1F406F0020448EFF1F53
:105690003080FF1F2DE9F04F4F4BDFF858A193F8F2
:1056A00000E00EF1FF315144002202E07F2A00F0B9
:1056B000908011F8010FD3B201320028F6D0734464
:1056C000DBB2464ADFF830C1157845491CF8152091
:1056D000444F51F82200DFF82491DFF824816E0056
:1056E00072193A444FFA83FB917889F802B09370AB
:1056F00002683D4810F91500CB1A02FB00F218BFF2
:105700000123002ABBBF5242D413D4136442744411
:10571000E4B2621E88F802305244002301E07F2B7D
:1057200007D012F8011FD8B201330029F7D0044482
:10573000E4B27319B444FA5C9CF80110FC54284894
:10574000294B50F82100334461B289F8001093F9D5
:1057500001C00368141B03FB0CF318BF0124002BCA
:10576000BDBF5B42DB135B42DB139E445FFA8EFEE0
:105770000EF1FF339A4488F80040002301E07F2BAC
:1057800008D01AF8012FD8B20133002AF7D070449C
:105790005FFA80FE35442F44144B787887F801E097
:1057A0004FFA8EF403EB810103EB8B0203EB8403CE
:1057B000B0EB0E001D680E4B0968126889F80140B5
:1057C00018BF012088F8010019605D609A60BDE88B
:1057D000F08F734675E700BF2480FF1F5091FF1FB5
:1057E000905EFF1F987A0220248FFF1FB86F002061
:1057F000B8630020CC650020A46200207065002002
:10580000086C002070B5104C2378062B16D00E467D
:1058100005460146002021F0D5FD2478C4F106029A
:10582000C4F10704104145FA04F4031B981903D48A
:10583000A842A8BF284670BD002070BD0146BDE843
:105840007040002021F0BEBD9861FF1F70B5027846
:105850008AB000232F2A8DF804308DF805301BD034
:105860000246002301A814491AF092FD064660B1D1
:105870009DF8043013F070030AD001AC0FCC0E4D2C
:105880000FC50FCC0FC523682B6030460AB070BD22
:105890001E4630460AB070BD4378002BE0D1064862
:1058A0001AF0FEFC054901F23C401AF0EFFD0646F5
:1058B00030460AB070BD00BFD87902209C75022026
:1058C000704700BF2DE9F041054626F0B9FD80463E
:1058D00038B31E4E0446374601E0013C21D0D6F8CD
:1058E000B43015F8011B1A4898474FF6FD739842DB
:1058F000F3D80346B7F8BA20B7F8B810144819F02F
:1059000093F997F89030032BE7D8DFE803F01913E9
:105910000D02B6F8BA30013CA3EB0000A6F8BA00BD
:10592000DDD14046BDE8F081B6F8B830181AA6F8C7
:10593000B800D2E7B6F8BA301844A6F8BA00CCE7F7
:10594000B6F8B8301844A6F8B800C6E7387FFF1F8D
:10595000407FFF1F2DE9F0471546002A4ED0044630
:105960000F46DFF89C90002600F108084FF6FD7AFC
:1059700003E00120013D064425D0236817F8011BF0
:105980001B684B4537D1D4F8B43040469847504552
:10599000EFD80346B4F8BA20B4F8B810404619F06E
:1059A00043F994F89030032BE3D8DFE803F01D1699
:1059B0000F02B4F8BA30181AA4F8BA00013D4FF03B
:1059C00001000644D9D13046BDE8F087B4F8B830BC
:1059D000181AA4F8B8000120CCE7B4F8BA3018447B
:1059E000A4F8BA000120C5E7B4F8B8301844A4F808
:1059F000B8000120BEE720469847BBE71646E2E71D
:105A00006553000010B5044626F01AFD01462046F5
:105A100021F018F80446024821F06CFB204410BD28
:105A20008874FF1F4D4B4E4A93F800C04D481268D2
:105A30004D492DE9F047DFF84CE1D0F800901EF811
:105A40000C304A4F0C68DFF840A1494E49485B01D1
:105A5000D1B2B9F1000F57F80380C1EBC1030CBFFD
:105A60000225002501EB830104F001032B4495007E
:105A7000884405F47F7552005AF8233040F82430EA
:105A8000AC4402F4FF7256F82830DFF800811B683E
:105A9000944458F82CC003FB0CF3DFF8F4C009F170
:105AA0000209082B5CF829C0D4BF0023012303EBB3
:105AB0004C0383F31103DFF8DCC09CF800C01EF830
:105AC0000CE04FEA4E1E2A4457F80E5029449444E5
:105AD00056F8212058F82C10126802FB01F1264AD2
