:1000000000000320D10100009D2C0200552C0200AD
:10001000552C0200552C0200552C0200552C0200D4
:10002000552C0200552C0200552C02009D2C02007C
:100030009D2C0200552C020091500200D550020068
:100040009D2C02009D2C02009D2C02009D2C020084
:100050009D2C02009D2C02009D2C02009D2C020074
:100060009D2C02009D2C02009D2C02009D2C020064
:100070009D2C02009D2C02009D2C02009D2C020054
:100080009D2C02009D2C02009D2C02009D2C020044
:100090009D2C02009D2C02009D2C02009D2C020034
:1000A00051260200892702009D2C02009D2C02008F
:1000B0009D2C02009D2C02009D2C0200D13D0200CF
:1000C0009D2C02009D2C02009D2C02009D2C020004
:1000D0009D2C02009D2C02009D2C02009D2C0200F4
:1000E0009D2C02009D2C02009D2C02009D2C0200E4
:1000F0009D2C02009D2C02009D2C02009D2C0200D4
:10010000C9520200DD520200F15202000553020002
:100110009D2C0200914002009D2C02009D2C0200AB
:100120009D2C02009D2C02009D2C02009D2C0200A3
:100130009D2C02009D2C02009D2C02009D2C020093
:100140009D2C02009D2C02009D2C02009D2C020083
:100150009D2C02009D2C02009D2C02009D2C020073
:100160009D2C02009D2C0200C12802009D2C020043
:100170009D2C02009D2C02009D2C02009D2C020053
:100180009D2C0200D10602009D2C02009D2C020035
:100190009D2C02009D2C02009D2C02009D2C020033
:1001A0009D2C02009D2C02009D2C02009D2C020023
:1001B0009D2C02009D2C02009D2C02009D2C020013
:1001C0009D2C02009D2C02009D2C02009D2C020003
:1001D0005C4B4CF2205210B51A804DF628121A8052
:1001E00000BF00BF22F05EFD574B4FF030621A6037
:1001F000564A9A60564ADA60564B4FF470021A60BB
:10020000554B564A1A60564B1A78110703D51A787F
:1002100042F008021A70534B5349AA221A70534AEB
:10022000534B8B4204D252F8040F43F8040BF8E707
:10023000504B514900228B4202D243F8042BFAE77B
:100240004E494F4A002352F8230041F8230001335E
:10025000742BF8D14B4B4C4A802103F8011B93427D
:10026000FBD14A4B454A1A60494B8A221A70A3F5C2
:10027000805324225A70A0221A709A799207FCD5D2
:100280009A79D406FCD4434A937903F00C03082BE3
:10029000FAD1414B60221A7002331A78802AFCD1BD
:1002A0003C4B00221A714E225A719A799006FCD565
:1002B0009979384A4906FBD5384B394919600821E4
:1002C000596020231370937903F00C030C2BFAD19F
:1002D000344B354A1A60354A354C136813F4807331
:1002E00003D123604FF4A8531360324B324A1A6093
:1002F00000225A60072243F8042C304AC3F80C2D20
:1003000062B622F0D3FD2368DA0705D52C4822F027
:10031000BBFD2C4B2C4A1A602C4B1B785B0609D575
:10032000284C294B22689A4204D1254822F0ACFD82
:100330000023236029F0DAF922F0BAFC25F056FCFC
:10034000FEE700BF0E20054030800440823F0400DD
:100350000100002B88ED00E0002008E0030000858C
:1003600002D0074000E007404077FF1F9CB6060020
:100370003007FF1F4077FF1F687D02200002FF1F2C
:100380000000000000E400E064E400E008ED00E0AC
:10039000005006400040064001E007404480044011
:1003A0000000070304800440C010050010D0034083
:1003B00014D0034014E000E07FA9030000002020D7
:1003C0007476E8601CE00340A5C3945A00F007402F
:1003D000FFFFFFFFFFFFFFFFFFFFFFFFFFFFFFFF2D
:1003E000FFFFFFFFFFFFFFFFFFFFFFFFFFFFFFFF1D
:1003F000FFFFFFFFFFFFFFFFFFFFFFFFFFFFFFFF0D
:10040000FFFFFFFFFFFFFFFFFFFFFFFFDEF9FFFF23
:1004100010B5054C237833B9044B13B10448AFF33E
:1004200000800123237010BD4077FF1F00000000F3
:1004300098B60600084B10B51BB108490848AFF341
:1004400000800848036803B910BD074B002BFBD0A0
:10045000BDE81040184700BF000000004477FF1FB0
:1004600098B606004077FF1F00000000002070478C
:10047000704700BF094B0A4A1B78107082B0834254
:10048000019109D107EE901A064B0749F8EEE77A79
:100490000122C1ED007A1A7002B07047F062FF1FAE
:1004A0007888FF1F7187FF1F0C730220014B012208
:1004B0001A707047287EFF1F194A1A4B11681A4A92
:1004C00053F82100194B52F82020194853F82130D5
:1004D000126850F82110174803FB02F310B401EB27
:1004E000E333006803F30E02134C54F8203003FB8F
:1004F00002F3DB1203F30E0303FB03F1C91303EB57
:10050000630203FB01F3A2EBA3334FF2584202FB59
:1005100003F3DB1344F820305DF8044B704700BF51
:10052000B480FF1F0C710220D458FF1FF07202200C
:10053000F05A0020A486FF1FEC7DFF1F174A184BBE
:100540001268184953F82200174B51F82010174829
:1005500053F82230096850F8222003FB01F170B4EF
:1005600002EB614181F30801114B124C1D68124EE0
:1005700054F8253003F50040C010C1F1FF0236F9F0
:10058000100003FB02F3C0001A1201FB00F302EBA0
:10059000232344F8253070BC704700BFB480FF1F90
:1005A0000C710220D458FF1FF0720220F05A002074
:1005B000A486FF1FEC7DFF1F08DF0200134B1449C8
:1005C0001868144BF0B4144C144D54F820201F68D4
:1005D00055F8206051F8271082EAE273A3EBE2732A
:1005E000B34204DCC1F1FF0189100131731A83F3B6
:1005F0000F034FF0804191FBF3F102FB01F2D213A4
:1006000045F8203044F82020F0BC7047A486FF1F36
:10061000F05A0020B480FF1FEC7DFF1FEC6B02201E
:10062000124B13491A68F0B4124C8B5C54F82250E8
:10063000002DD4BF00200120834213D00E4B0F4E5B
:100640001F680F4B56F827700E4E53F827301B6863
:1006500046F8223003FB05F3DB1344F822308854BC
:10066000F0BC7047074B53F82230F3E7A486FF1F16
:10067000145D0020EC7DFF1FB480FF1F0C71022071
:10068000D458FF1FEC6B02201B4B1C4A1B681C49F3
:1006900052F823001B4A51F820101B4852F823201F
:1006A000096850F8233002FB01F2DB0130B403EBA0
:1006B000E22282F30F02154B154C1D6854F82510E9
:1006C00045F2F05303FB01F302EBE33303F30E03B4
:1006D00003FB03F0C01303EB630103FB00F3A1EB87
:1006E000A333A3EBA20303FB02F203EBA23344F810
:1006F000253030BC704700BFB480FF1F0C71022052
:10070000D458FF1FF0720220F05A0020A486FF1F69
:10071000EC7DFF1F234A244B1068244A53F8201015
:10072000234B52F82110234A096853F8203052F81D
:10073000202003FB01F3920470B402EBC30383F3A4
:100740001D031D4A1D4C116854F821201A44934280
:1007500044F821201ED91A4B1A4D53F8203055F871
:100760002140194E5B11083344FA03F202FA03F3F5
:1007700046F82130154A52F8202003FB02F3C2F15B
:10078000FF001A1204FB00F302EB232345F821308B
:1007900070BC70470B4D0C4B55F8214053F821307D
:1007A000E8E700BFB480FF1F0C710220D458FF1F80
:1007B000F0720220FC5A0020A486FF1F2478FF1F3D
:1007C000085B0020EC7DFF1FEC6B0220F05A00203C
:1007D000184B194A1B68194952F82300184A51F856
:1007E0002000184952F8232030B4174C05680868D7
:1007F000164954F8234051F8203002FB05F204EB6F
:10080000E23203FB02F203EB6212930393EAC23279
:1008100048BFC3F100435B1403FB03F2D212C2F5DD
:10082000C03203FB02F35B14DB0041F8203030BC24
:10083000704700BFB480FF1F0C710220D458FF1F07
:10084000F0720220A486FF1FF05A0020EC7DFF1FEB
:100850004A4B4B4AD3F800C04A4B52F82C204A4925
:1008600053F82220494B106853F82C3009682DE9C1
:10087000F047474C03FB00F3464854F8212050F85A
:100880002C0001321B14B2F5006F034428BF002274
:10089000032B44F821206FDD40F2FF709842A8BF7F
:1008A00018463D4C3D4EDFF80CE154F8213056F827
:1008B00021703B4D46F821305EF8216047F69919CA
:1008C000C7EB0308101A09FB06F74FEAC12955F8D0
:1008D000216008EBE737C0F30A0009EB0208314A50
:1008E0004EF821703E444844DFF8CC9042F828602E
:1008F0002D4E59F82C9052F8200056F82C802B4A97
:100900002B4E52F82C2056F82170DFF8B0E04FEA59
:100910004919C9F5FF5A08FB00FC0AF11F0AC2F188
:10092000FF0807FB0AF702FB00F24FEA2C2C09FB39
:100930000CFC03FB08F312127F1302EB232307EBDB
:100940006C324EF821005B1045F8212046F821203A
:1009500003F30E0303FB03F0C01303EB630203FB7B
:1009600000F3A2EBA3334FF2584202FB03F3DB1375
:1009700044F82130BDE8F087042092E7B480FF1FDF
:100980000C710220D458FF1FA486FF1FF0720220B2
:100990001086FF1FFC5A0020EC7DFF1F987102207B
:1009A0002C7FFF1F3C8AFF1F085B0020F05A0020AD
:1009B000EC6B0220C4730220145B0020107AFF1F2E
:1009C000214B224A22491068F0B5D3F800E0214DAE
:1009D000214B55F8206053F82E20204B51F8207001
:1009E00053F822201E4BD2F800C053F82E2086EA7E
:1009F000E674A4EBE67401342744A30A02FB0CF26C
:100A00000833B7FBF3F3FF1AA3F57F5341F82070C7
:100A10003F3B911203F30E03124A52F82E2001EBD2
:100A2000022282F30F02C2F5004106FB01F65B00D1
:100A300002FB03F30C49F21302EBE33345F82030D9
:100A400041F82040F0BD00BFB480FF1FA486FF1F07
:100A5000EC6B0220EC7DFF1F0C710220D458FF1FAD
:100A6000F0720220F05A00207079FF1F4F4A504B5D
:100A700050482DE9F04F16684F4A53F826104F4B57
:100A800052F8212053F8263011680468DFF84CA191
:100A90004B4A5AF8247052F8262003FB01F35B01FD
:100AA00083F31D03474D4848484955F826500068D0
:100AB00051F8261000FB05F5890501EB052585F3A6
:100AC0001E0523F0784000F10060C00050FB10F0DC
:100AD0003F4950FB11F00139DB1601EBC000C3F1B7
:100AE000060340FA03F355FB13F33A49DFF8F0C06D
:100AF00051F8260038495CF824508B42C0F5006E4E
:100B0000A8BF0B4605FB0EFE4FEAA508190208EB2D
:100B10002E3551FB17F0DFF8CC8058F824301844FC
:100B200052FB17FEDFF8C09059F824302B44C0EB7D
:100B30006303CEEB030351FB13FEBE4451FB1EF7D0
:100B4000074452FB1EF2C7EB050BC2EB0B0251FB35
:100B500012F1DFF898B05BF82660803E86F3070656
:100B60001A4406FB02F2C6F17F033844921200FBDE
:100B700003F3C2EBA32303F30E0303FB03F0C01341
:100B800003EB630203FB00F3A2EBA3334FF25842E3
:100B900002FB03F37144DB134AF8241049F8245094
:100BA00048F824704CF82430BDE8F08FB480FF1F63
:100BB0000C710220A486FF1FD458FF1FF072022080
:100BC000106C0220145B0020DC5C0020F05A002036
:100BD000ABAAAA2AFC5A0020E7105200208AFF1F65
:100BE000EC7DFF1F2C710220C4710220085B0020E5
:100BF000044B054A1968054B52F8212053F822305E
:100C0000184700BF846B02205C88FF1F7C3B0500F7
:100C1000704700BF574B584A186858492DE9F04FA4
:100C2000C3B2574FD25C574C57F8222054F820409B
:100C3000166883B0002E25460194D4BF00240124F9
:100C400003EB840386EAE672A2EBE67251F82330E6
:100C500033FB02F3C2F5FF427F3235FB02F24A4911
:100C6000DFF838910D78494919F805C00978DFF89F
:100C70003081DFF830E1DFF830A14FEA4C1CCC00C6
:100C800058F80C60DEF800C0C1EB040E01EB8E0ECC
:100C9000B64401EB410B9E1886EAE6734FEA4B021D
:100CA000A3EBE67357F82E6005EB020E5AF82050BE
:100CB00036682B44364D4AF8203055F82E5006FB46
:100CC00005F6DFF8E8E00CF102055EF8255005EBCB
:100CD000662686F31006DFF8D8A05AF82050760072
:100CE00005FB063393EA430548BFC3F100435B1499
:100CF00003FB03F6F612C6F5C03603FB06F3254DDB
:100D00002D7819F805607601641A58F8066001EB31
:100D1000840131442A4457F821401D4951F82210DA
:100D200022685C1404EBE3434AF8203002FB01F232
:100D30005EF82C10019B01EB622204FB02F21213FD
:100D4000C3F1004352FB03F31C44630493EA84425F
:100D500048BFC3F100435B1403FB03F2D212C2F598
:100D6000C03203FB02F30C4A9B1342F8203003B05D
:100D7000BDE8F08FEC700220D089FF1F3C88FF1F78
:100D8000D458FF1F2C7AFF1F285D0020A866002082
:100D9000D084FF1F245D0020EC7DFF1F441C040055
:100DA000E064FF1F846B0220545B0020607AFF1F09
:100DB0009079FF1F694B6A491B7809786948DFF809
:100DC000C4C100682DE9F04FDFF8BC91DFF8BC81A9
:100DD00019F80320644E5201C1EBC10558F80220F6
:100DE00001EB85052A4401EB410149000B4404460F
:100DF00056F822005CF82320036883B003FB02F25C
:100E0000DFF88CB10194A31C92015BF8233002EB54
:100E1000C33282F31F025548554B0468DFF874E172
:100E20005FFA84FA520013F80A0056F820000368AB
:100E3000002BD4BF0027012783EAE3700AEB870762
:100E4000A0EBE3704B4B53F8277037FB00F74A4B8E
:100E5000C0F5FF407F3053F8243033FB00F0474BA0
:100E600093F800A019F80A904FEA49198A4458F8F3
:100E700009105CF82A30294456F82110096801FB52
:100E800003F5019B5BF823106D1205EB510585F30B
:100E90000F05C31983EAE370A0EBE3705EF824301A
:100EA000C010034400EB030803F1804A190C4FEA19
:100EB0001A4A00EB0803A1F5802100EB030BAAF509
:100EC000802A01EB184108F180480AEB184903F128
:100ED000804C00EB0B0A01EB134109EB1C4802EBC1
:100EE0000A0600EB0A0901EB1B410BF1804C02EBF7
:100EF000090A08EB1C4C01EB164100EB090806F14E
:100F000080460CEB164701EB1A410AF1804340443E
:100F100002EB080C07EB1346171801EB1C420CF10F
:100F2000804106EB114302EB174207F1804103EBCE
:100F3000114152424942D210C91005FB02F2C5F5D7
:100F40000043D21303FB01F30D494EF8240002EBDA
:100F5000E33341F8243003B0BDE8F08F285D002072
:100F6000A8660020846B0220D458FF1FEC7002207A
:100F7000D089FF1F3C88FF1F2C7AFF1F245D0020B3
:100F8000EC7DFF1FD084FF1F441C0400E064FF1FA2
:100F9000607AFF1F545B0020664BDFF8C8C11B78E6
:100FA00065491CF8032009782DE9F04F5201DFF85C
:100FB000B8E1624C5EF802002268614F83B0CE0057
:100FC00014460092721A01EB8202024401EB4105C1
:100FD00057F822006D005A1903685A4850F8222029
:100FE00003FB02F22346DFF884B1023392015BF87F
:100FF000233002EBC33282F31F025200B2F1806F42
:10100000C0F093806FF0806800234FF00009904596
:1010100079EB0300C0F28C804B4B4C481C684C4B66
:10102000DFF84C915FFA84FA10F80A0057F82000B4
:10103000006801900028D4BF4FF000084FF001086D
:101040000AEB88080028B8BF404253F8283033FB29
:1010500000F8404BC0F5FF407F3053F8243033FB9D
:1010600000F008EB000383EAE378A8EBE37859F893
:1010700024304FEAE808434408EB030093428CBF56
:10108000012300239042404488BF013390424044F2
:1010900088BF01339042404488BF013390424044AE
:1010A00088BF01339042404488BF0133904240449E
:1010B00088BF01339042284A49F8240012781CF86E
:1010C00002004FEA4010A6EB01065EF8000001EBBB
:1010D00086010144154457F821201A49126851F835
:1010E000251088BF01335B0302FB01F200995BF816
:1010F0002110921202EB910282F30E021748184D52
:1011000050F82410C832A3F5004302FB03F3C2F5E4
:1011100080429B1301FB02F203EBA23240F8242031
:1011200045F8242003B0BDE8F08F4FF0806273E7EC
:10113000424671E7285D0020A8660020846B0220EB
:10114000D458FF1FD084FF1FEC700220D089FF1FEE
:101150003C88FF1F2C7AFF1F245D00209C89FF1F05
:10116000EC7DFF1F441C0400E064FF1F607AFF1F3A
:10117000545B0020914B92491A780878DFF86CC2D2
:101180002DE9F04FDFF868B2DFF868A21BF80230F3
:101190008C4E8D4C5B01C5005AF80310D4F800E06A
:1011A0002B1A00EB83030B4400EB4001490056F877
:1011B00023300A441B685CF8222003FB02F2834FB1
:1011C0000EF10203920157F8233002EBC33282F38F
:1011D0001F025200B2F1805FC0F0BB806FF08058F8
:1011E000002390454FF0000979EB0304BCBF424651
:1011F0004B464FEA524848EAC3384446744B1B7882
:101200001BF8032052012D1A5AF8022000EB85002A
:101210001044194456F820305CF821201B6803FB69
:1012200002F36C4A57F82E7010686B49DFF8C8C19A
:101230006A4D5FFA80FE7F0811F80E2056F82220D2
:1012400011680029D4BF002201220EEB820E07F69E
:10125000F41202EBA32781EAE173A3EBE1735CF8DC
:101260002E6036FB03F65E4AC3F5FF437F3352F828
:10127000202032FB03F3334483EAE376A6EBE376E4
:1012800055F82030B1105E18730C434580F087800C
:10129000C3EBC3335B0093FBF4F3A3F5FF437F3B46
:1012A0000E44720C90456ED8121BC2EB024E02EB3C
:1012B000CE3E02EB4E02C4F5004E92FBFEFE0EF552
:1012C000FF4E0EF17F0E73440E44720C90454FD8C2
:1012D000121BC2EB024E02EBCE3E02EB4E02C4F5F5
:1012E000004E92FBFEF202F5FF427F3202EB030E4C
:1012F0000E44730C984530D81B1BC3EB034C03EB17
:10130000CC3CC4F5004203EB4C0393FBF2F202F534
:10131000FF417F3101EB0E02921007FB02F3C3F392
:10132000CF3383F400432F4A45F82060191202EBB3
:10133000410532F91120B5F902102B4CDBB2891AA4
:1013400003FB01F302EB23231BB244F82030BDE87A
:10135000F08F4FF40064A04650E7C3EBC33149005F
:1013600091FBF4F1A1F5FF417F3901EB0E02D3E7C8
:10137000C2EBC232520092FBF4F2A2F5FF427F3A76
:1013800002EB030EB4E7C2EBC23E4FEA4E0E9EFBE9
:10139000F4FEAEF5FF4EAEF17F0E734494E71B1BD7
:1013A000C3EB034E03EBCE3E03EB4E03C4F5004EFE
:1013B00093FBFEF303F5FF437F3371E7285D0020C5
:1013C000A8660020D458FF1F846B0220607AFF1F9C
:1013D000245D0020EC700220D089FF1F545B0020A8
:1013E0002C7AFF1FBC600400EC7DFF1FD084FF1F20
:1013F000441C0400E064FF1F3C88FF1F4E4B4F4815
:10140000F0B51C78DFF864E14D4B1EF804201B7822
:101410004C4F4D4E4D4D5201C3EBC301BA582D6890
:1014200003EB810101EB020C03EB43035A0014446C
:1014300056F82C3050F824401B6803FB04F4DFF806
:1014400030C1AB1C24015CF8233004EBC33484F3BB
:101450001E043F4B1B781EF803E04FEA4E1E134458
:1014600057F80E2050F82300114456F821301B681D
:1014700003FB00F05CF8253003EB6020A0F3500084
:10148000344A354B15683549EAB29B5C56F823302F
:101490001B68002BD4BF0026012602EB8602002B1E
:1014A000B8BF5B4251F8221031FB03F12C4AC3F55F
:1014B000FF437F3352F8252032FB03F3294F1944B1
:1014C000002957F82520B8BF49420A4404F10044D6
:1014D0004FEA520E013C6FF00043A6181C46CEEBBB
:1014E00003034FEA610E73454FEA560C47F8252077
:1014F000CCEB0404B7BF4A14120C93FBF2F222F0B7
:10150000FF027445B6BF4914340C94FBF1F4A2F504
:101510000042B8BF24F0FF0400FB02F2A4F500442F
:10152000C0F50043D21303FB04F30F4902EBE3338E
:1015300041F82530F0BD00BF285D0020D084FF1F9A
:10154000A8660020E064FF1FD458FF1F846B0220B0
:10155000245D0020EC700220D089FF1F3C88FF1F13
:101560002C7AFF1F545B0020EC7DFF1F441C0400FD
:10157000607AFF1F664BDFF8C0C11B7865491CF815
:10158000032008782DE9F04F5201DFF8B0E1624EF8
:101590005EF80210C5002A1A00EB82020A4483B0EA
:1015A00000EB400779000C46019156F822101A19F9
:1015B0000B685A4951F8222003FB02F2584B594953
:1015C0001B680233920151F8233002EBC33282F3DD
:1015D0001F025200B2F1806FC0F095806FF08068FA
:1015E00000234FF00009904579EB0301C0F28E8093
:1015F0004D494E4B0C68DFF848A1DFF848815FFA8F
:1016000084FB04F1040913F80B3058F8291056F83C
:1016100023301B680093002BD4BF002701270BEB5E
:101620008707002BB8BF5B425AF8277037FB03FAD5
:10163000DFF814B1C3F5FF437F335BF8247037FB49
:1016400003F33B4F3F781CF807C04FEA4C1C2D1AA0
:101650005EF80CE000EB85050198754438440746B8
:1016600056F825002D4D006855F8275000FB05F071
:1016700003EB0A0585EAE57358F82460A3EBE573EC
:101680005BF829509B10F7182844BB4288BF002103
:1016900080100144914203EB07058CBF0126002610
:1016A00097428CBF01270027954288BF0137AB4284
:1016B00088BF0021014491421D4488BF01369542F4
:1016C00088BF0137AB4288BF002101441D449142CD
:1016D00088BF0136954288BF0137AB4288BF0021E1
:1016E0000144914288BF01367603124B48F82450DA
:1016F000C6F50046A6EB473648F8291043F82460A3
:1017000003B0BDE8F08F4FF0806271E742466FE7AB
:10171000285D0020A8660020D458FF1FD084FF1F3A
:10172000846B0220607AFF1FEC700220D089FF1FBB
:10173000245D0020EC7DFF1F441C0400E064FF1FBB
:101740003C88FF1F545B00202C7AFF1F044B054A86
:101750001968054B52F8212053F82230184700BF72
:10176000846B02205C88FF1F80C60300864A874B7B
:1017700087491B7887482DE9F04FD2F80080864AC8
:10178000864C32F9132031F913305FFA88F1C1EB3E
:10179000C10A01EB8A0A524403F5806354F82220FF
:1017A00030F91350136885B05B0103FB05F37C4AE5
:1017B000156833FB15F37B48DFF824E200787A4E96
:1017C0001EF80050794C7A4F54F828403F68009733
:1017D0006D0101EB41017559704E554449000844B3
:1017E000029156F82510734D096855F820709D0038
:1017F00005EB440501FB07F700986F4B01460231EA
:1018000053F8213003EB670787F318076B4B196810
:101810003F0152F8214054FB07F4694B694FDFF850
:10182000C4911B7840014FEA411C3A581E4659F8B2
:101830000C301EF806E0CDF80CE02A44384413447E
:1018400049F80C306711031D08FB174793E818414E
:101850000196D0F814B08669C069AB442B442C447F
:10186000A844AE442E440544C7EBC700C0EBC000FB
:10187000ABEBA01B07EB870007EBC00004EBA01449
:101880002B2000FB07F0A8EBA01807EB4700C7EBE5
:1018900000100EEBA01E352000FB07F009EB0C0238
:1018A00006EBA016C7EB0710DB1BC7EB8007A5EB09
:1018B000A715576850693B44976853603C44D76804
:1018C0009460B8441769C2F80C80584407EB0E0BBB
:1018D000976950613E44D769C2F810B03D449661A3
:1018E000D56159F80CE0039F374ADB0C03EBDE436C
:1018F0004FEA471C03EBD4432B4F03EBD84857F870
:101900000C40264F08EBDB4808EBD040A24400EB2C
:10191000D64606EBD54557F82A30029C019E1B6837
:10192000C5F5FF457F35A01942F82150274C214AC3
:1019300044F8215052F8202003FB02F3244A009877
:1019400052F820209B1203EB920383F30E03214FE6
:10195000214E224C56F8210003FB05F5C3F58042C9
:10196000AB1357F8215005FB02F503EBA535A84250
:10197000B8BF284647F8215044F8215046F82100C6
:1019800005B0BDE8F08F00BFA866002044710220BA
:10199000885DFF1F602B0600305DFF1FD458FF1FBE
:1019A0002C7AFF1F285D0020E064FF1FE07DFF1FF1
:1019B000846B0220D084FF1F805C0020EC7002202A
:1019C000245D00202C6C02209079FF1F7C76022081
:1019D000607AFF1F9C89FF1F3C78FF1FEC7DFF1F73
:1019E000441C0400504A00206F4B704ADFF8E4C1E9
:1019F0006F492DE9F04FD3F800E05FFA8EF387B01E
:101A0000D25C5CF822201268002AD4BF002001209A
:101A100003EB8003002AB8BF524251F8234034FB45
:101A200002F4644BC2F5FF427F3253F82E3033FB91
:101A300002F2614BDFF8A0811D78604918F805308B
:101A40005F48097800685F4EDFF8909101905B0174
:101A50004FEAC10BF6580746C1EB0B03224401EBDA
:101A600083033C4659F82E00574F002A334401EBBC
:101A7000410A04F102044FEA4A06B8BF52425CF838
:101A8000233057F824401B68354402444F4850F82F
:101A90002550200403FB05F300EB4313984276D94D
:101AA0006FF0050305936FF0040304936FF00303D5
:101AB00003936FF0010302936FF007056FF00604C4
:101AC0006FF002004FF0FF33DFF814A13D4F9AF89A
:101AD00000A018F80A804FEA4818C1EB0B0B57F822
:101AE000088001EB8B014144B2445CF82110374E71
:101AF000096856F82AC001FB0CFC334E019956F8D0
:101B000021104FEACC0C0CEB813101F31E01049E35
:101B100049F82E201644C1EB0608029E1644B4462E
:101B20004FEAD8488C44059E134408EBDC4C16441D
:101B30000CEBD34C1044039B4FEA61080844B346B6
:101B400014444044C3441344C1EB040A1E46C1EB91
:101B50000B040CEBD0474FEAA10B531907EBD44011
:101B60000E44CBEB0A04A3EB4103464400EBD44400
:101B700004EBD34506EB0B0305EBD3431449C3F544
:101B8000FF437F3341F82E3007B0BDE8F08F580097
:101B90009C00029018440394DD001C444700049408
:101BA0000597EC1A90E700BFEC700220D089FF1F68
:101BB0003C88FF1F2C7AFF1F285D0020A8660020AC
:101BC000846B0220E064FF1F607AFF1FD084FF1F38
:101BD000EC7DFF1FD458FF1F441C0400545B002001
:101BE000245D0020044B054A1968054B52F821205A
:101BF00053F82230184700BF846B02205C88FF1F17
:101C000034230600494B4A4A4A492DE9F0471D68EA
:101C1000494EEBB2D25C56F822201468002CD4BF97
:101C20000020012003EB800384EAE472A2EBE4725B
:101C300051F8233033FB02F7404BC2F5FF427F32AD
:101C400053F8253033FB02F33D4ADFF8089192F850
:101C500000E03C4919F80E200978DFF8FC80DFF835
:101C6000FCC039485201C1EBC10458F80220006899
:101C700001EB840404EB020A01EB41014A003B44FE
:101C800056F82A10964483EAE37AAAEBE37A0968C5
:101C90005CF82E7001FB07F1DFF8C4E05EF82070FD
:101CA000890001EB872181F31C01284F3F7819F847
:101CB00007904FEA49193A4458F809705CF822C075
:101CC0003C4456F82420126802FB0CF202309200C9
:101CD0005EF8200002EB802282F31C021C4EDFF82B
:101CE00084E0DFF884C05EF825306C013719305984
:101CF0000844504430517868BC684FEAD20808EB79
:101D000091010AEB030601445144F00F80EAD170BF
:101D100000042244A0F500400AEB02034EF82560BF
:101D20004CF825007960BB60BDE8F087EC700220BC
:101D3000D089FF1F3C88FF1FD458FF1F2C7AFF1F3C
:101D4000245D0020A8660020846B0220285D00200E
:101D5000504A0020441C0400E064FF1FD084FF1F91
:101D6000607AFF1F545B0020EC7DFF1FC24BC34A0B
:101D7000C3492DE9F04F1D68C24FEBB283B0D25C6E
:101D800057F822201468002CD4BF0020012003EB58
:101D9000800384EAE472A2EBE47251F8230030FB82
:101DA00002FAB94BC2F5FF427F3253F8250030FBEF
:101DB00002F0B64BDFF8F49293F800E0B44B19F858
:101DC0000E601A78DFF8E882B24BDFF8E8C2B24959
:101DD0007601824458F806600968C2EBC2048AEAB8
:101DE000EA7002EB8404A0EBEA70000104EB060A3F
:101DF00002EB420206095200019053F8250057F801
:101E00002AA0964400EB060B43F825B05CF82EE0C0
:101E1000DAF8003003FB0EF3DFF89CE25EF82100F5
:101E20005B1003EB0023A3F39803DFF890A29AF86A
:101E300000A019F80A904FEA4919524458F809804D
:101E40005CF822C0444457F82420126802FB0CF2CC
:101E5000023152105EF8211002EB0122A2F3585217
:101E60008E498F4F6C0102EBC202085907EB420208
:101E70000644578801980E5103447F02081933FB2A
:101E800007FE4768968877444760760233FB06FE74
:101E90008668D788764486607F0233FB07FEC76872
:101EA00016897744C760760233FB06FE06695789B8
:101EB000764406617F0233FB07FE476996897744C3
:101EC0004761760233FB06F68769B2F80EE0BA196D
:101ED00082614FEA4E2633FB06F3C2691344C361A5
:101EE0000A5992EA420048BFC2F10042521402FB72
:101EF00002F0C012C0F5C03002FB00F0694E0A19B2
:101F0000376852683F68401407FB00F092EA4207C6
:101F100048BFC2F10042C013521402FB02F7FF1285
:101F2000C7F5C03702FB07FE72680F19D2F800C070
:101F3000BF684FEA6E420CFB02F200EBE23297EA16
:101F4000470048BFC7F100477F1407FB07FC4FEA73
:101F5000EC2CCCF5C03C07FB0CFCB0680F190068FA
:101F6000FF684FEA6C4C00FB0CFC97EA470048BF47
:101F7000C7F1004702EBEC327F1407FB07FE4FEA84
:101F8000EE2ECEF5C03E07FB0EFEF0680F1900687E
:101F90003F694FEA6E4E00FB0EF002EBE03C97EA21
:101FA000470248BFC7F100477F1407FB07FE4FEA0F
:101FB000EE2ECEF5C03E07FB0EFE0A1930695769BA
:101FC000006897EA47024FEA6E4E00FB0EF048BFEA
:101FD000C7F100470CEBE0307F1407FB07F2D21289
:101FE000C2F5C03207FB02F70C447269A46911689C
:101FF0007F1494EA440201FB07F748BFC4F1004490
:1020000000EBE731641404FB04F2D212C2F5C032D3
:1020100004FB02F4B2691268641402FB04F401EBDD
:10202000E43293EA430148BFC3F100435B1403FB6E
:1020300003F1C912C1F5C03103FB01F3F16909686D
:102040005B1401FB03F302EBE33303F30E0303FB27
:1020500003F1C91303EB630203FB01F3A2EBA33308
:102060004FF2584202FB03F30F4ADB1342F82530CC
:1020700003B0BDE8F08F00BFEC700220D089FF1FD5
:102080003C88FF1FD458FF1F2C7AFF1F245D0020BF
:10209000A8660020545B0020846B0220504A002078
:1020A000F0C503000464FF1FEC7DFF1F441C040007
:1020B000E064FF1FD084FF1F607AFF1F285D0020AF
:1020C000B54AB64BB6492DE9F04F1768B54A5FFAE5
:1020D00087FC8BB013F80C3052F823301B68002BB0
:1020E000D4BF002201220CEB8202002BB8BF5B425E
:1020F00051F8220030FB03F0AB4AC3F5FF437F33B6
:1021000052F8272032FB03FEA84AA94C1278A94BAB
:10211000A15CA94DA94E53F827302D78366802935B
:102120004901A74B019759583746C5EBC50605EB42
:1021300086060EEB000331449A48089605EB4505E8
:102140006D00002B50F8211007952A449D4D096819
:1021500055F82220B8BF5B429B1001FB02F29A4D5A
:102160000397B91C521055F8211002EB0128A8F36F
:102170005858DFF868A2954DDAF808202D781768CE
:10218000DAF80C2014F805B01668DAF81020069575
:102190001568DAF80020029C1268DAF8041002F5DB
:1021A0000049DAF81420086808F10908191905F53A
:1021B00000451468DAF8182005FA08F50495154664
:1021C000DAF81C20D5F800A012687D4D00F5004E0D
:1021D0000AF5004A58180EFA08FE0AFA08FA02F53B
:1021E000004207F5004706F5004604F5004407FAEB
:1021F00008F706FA08F604FA08F4CDF814A009FA6C
:1022000008F90EEB000A02FA08F8CDF808804FEA48
:102210009A224FEA4B1801EB0E0A02EB9A2A1A187F
:10222000134455F80850099507EB000B0EEB020814
:102230000AEB98289E4401EB070A4FEA9B2B08EB18
:102240009E2899440BEB9A2B07EB020A08EB99297D
:102250001F4406EB00080BEB9A2B049D0BEB972B0E
:102260004FEA98288F1908EB9728B71805EB000A52
:102270001E4408EB972808EB96284FEA9A2A4E1935
:102280000AEB962AAE1804EB000E1D440AEB962AC0
:102290000AEB952A4FEA9E2E0D19059F0EEB952EFF
:1022A000029DD944C14407EB000BA8462844A51859
:1022B0000EEB952E1C440EEB942E4FEA9B2BCC1963
:1022C0000BEB942B4144BC18800A45460BEB942B36
:1022D0004244D14400EB9120FC18F1440BEB9424D0
:1022E00000EB9220EA1800EB92204C44089A384DFB
:1022F0000444099802442B48E41250F82200079A3B
:102300000699019EA4F5FF447F3C45F826400A4407
:102310002C4C54F82210026802FB01F22A4803995F
:1023200050F82110520102EB813282F31E02294C37
:10233000294854F82C605200B10251FB10F755F8AF
:102340002C00B100C01B52FB11F7DFF894E05EF8DF
:102350002C1039444EF82C10401A52FB10F2324423
:1023600044F82C208A1002F30E0202FB02F0C01384
:1023700002EB620102FB00F2A1EBA2324FF25841E4
:1023800001FB02F2019E0B49D21341F8263045F8B9
:102390002C200BB0BDE8F08FEC700220D089FF1F1D
:1023A0003C88FF1FD458FF1F2C7AFF1F285D002098
:1023B000441C0400545B0020A8660020846B0220AB
:1023C000E064FF1FD084FF1F607AFF1F245D0020A0
:1023D000EC7DFF1F6C80FF1F003075000464FF1F41
:1023E000B05C0020044B054A1968054B52F82120C7
:1023F00053F82230184700BF846B02205C88FF1F0F
:10240000E8A70500574B584958482DE9F0471D7873
:10241000DFF87CE1D1F800801EF80520544B0068FD
:102420001B785449DFF86CA1534FB8F1000F4FEA05
:10243000421200F001060CBF4FF002094FF00009F4
:102440008A58B144C3EBC30403EB84044B4E04EB42
:10245000020C03EB43035AF8292046F820205A00C7
:1024600057F82C90DFF830C1D9F8003015445CF8EB
:10247000255003FB05F5424B08F102080C2D53F8DB
:102480002830D4BF0025012505EB930585F30F0502
:102490003C4B1B781EF803E04FEA4E1E134451F8E4
:1024A0000E205CF82310144457F824301B6803FBFB
:1024B00001F1354B021D890053F8223081FA83F176
:1024C00081F31E01DFF8D4E0C0B249005EF820704D
:1024D00007F30E0303FB03F2D21303FB02F203EB39
:1024E0006303A3EBA2334FF2584404FB03F3C5F597
:1024F0000345E835DB13AD009B0353FB15F356F89A
:102500002050ED1A07F30E0303FB03F2D21303FB73
:1025100002F203EB6303A3EBA23304FB03F3DB132D
:102520009B0051FB13FC194A52F82030634442F8D7
:102530002030ED1A51FB15F10F444EF820709B101E
:1025400003F30E0303FB03F2D21303EB630103FB5C
:1025500002F3A1EBA33304FB03F4E41346F8204099
:10256000BDE8F087285D0020846B0220EC7002201B
:10257000A8660020E064FF1FD458FF1FEC7DFF1FFA
:10258000607AFF1F245D00202C7AFF1FB05C0020C2
:10259000441C040030720220D084FF1F6C80FF1F97
:1025A0004A4B4B4819784B4B00681B782DE9F04794
:1025B000DFF848E1484C1EF80120D4F80080474F6E
:1025C000DFF83CA1464EB8F1000F4FEA421200F08E
:1025D00001040CBF4FF002094FF00009BA58A144A2
:1025E000C3EBC30503EB85053E4C05EB020C03EB87
:1025F00043035AF8292044F820205A0056F82C901A
:10260000DFF800C1D9F8003011445CF8211003FB59
:1026100001F1354B08F10208082953F82830D4BFDE
:102620000021012101EB430181F311012F4B1B78A4
:102630001EF803E04FEA4E1E134457F80E705CF884
:1026400023203D4456F825301B6803FB02F2284B3B
:10265000051D920053F8253082FA83F282F31E02A0
:10266000244EC0B2C1F50C3156F8203001F2C7211A
:10267000890152009D0255FB11F154F820509F0032
:10268000C1EB050E52FB17F51B4F57F820100D44F8
:1026900047F82050C5EB0E0552FB15F2134446F8DF
:1026A000203003F30E0303FB03F1C91303EB6302B2
:1026B00003FB01F3A2EBA3334FF2584202FB03F3F7
:1026C000DB1344F82030BDE8F08700BF285D002010
:1026D000EC700220A8660020846B0220E064FF1FDB
:1026E000D458FF1FEC7DFF1F607AFF1F245D002080
:1026F0002C7AFF1F6C80FF1FB05C0020441C04007C
:1027000030720220D084FF1F484B494893F800C024
:10271000484B49491B782DE9F043DFF840E1D0F8F8
:1027200000801EF80C20454F0C68454EDFF83091B4
:102730005201B8F1000FB958C3EBC3050CBF02201A
:10274000002003EB850504F001022944024403EB59
:1027500043033C4859F8222056F8219040F82420A1
:1027600059000CEB0102DFF8FCC0D9F800305CF82E
:10277000222003FB02F2344B08F10208082A53F826
:102780002830D4BF0022012202EB430282F311025F
:102790002E4B1B781EF803E04FEA4E1E0B4457F8F1
:1027A0000E705CF823103D4456F825301B6803FB7F
:1027B00001F1274B251D890053F8255081FA85F139
:1027C00081F31E03234DE4B2C2F50C3255F8247098
:1027D00002F2C72292015900BE0256FB12F650F8CF
:1027E0002420BB00921B51FB13FE1B4E56F82430D5
:1027F000734446F82430D31A51FB13F1394445F899
:1028000024105B1003F30E0303FB03F1C91303EB66
:10281000630203FB01F3A2EBA3334FF2584202FB26
:1028200003F3DB1340F82430BDE8F083285D00207B
:10283000846B0220A8660020EC700220E064FF1F79
:10284000D458FF1FEC7DFF1F607AFF1F245D00201E
:102850002C7AFF1F6C80FF1FB05C0020441C04001A
:1028600030720220D084FF1F044B054A1968054BC3
:1028700052F8212053F82230184700BF846B022001
:102880005C88FF1FA44B05006D4B6E4A1B781278C5
:10289000DFF8E0C16C496D48096800682DE9F04F28
:1028A000DFF8D4816A4E18F803706A4CDFF8CCE187
:1028B0007F01C2EBC2055CF8077085B002EB8505AD
:1028C00002EB42022F445200134403920A1D56F8B1
:1028D0002790029254F822205EF823700192D9F8D2
:1028E000003003FB07F35C4F57F8207007EBE3035E
:1028F00083F31803594F9B0157F8219059FB03FBB1
:10290000574B5FFA81FA13F80A3056F823301A68E9
:10291000002AD4BF0027012782EAE2730AEB870767
:10292000A3EBE2734F4A52F8277037FB03F7C3F566
:10293000FF437F3339FB03F3DFF8449199F800A09C
:1029400018F80A804FEA48181F445CF808301D4404
:10295000039B53441A46002F56F825305EF8222078
:102960001B68B8BF7F4203974FEAA70E03FB02F331
:102970003D4A851C5B1052F8252003EB022383F3AC
:10298000180354F82170DFF8FC909D0C3A0E6E1C71
:10299000019F36024FEA176CC00302EB06082D02B6
:1029A000804466442A446544024406442844C3F3F0
:1029B0008F0339F9185039F9166039F912C039F90D
:1029C0001080C3F57F4003FB05F5373000FB0CFC9E
:1029D00003FB06F32D1454F821600EEB0B0A05EBF4
:1029E0002C4200FB08F01B14039D03EB204006EB78
:1029F0004E0B07EB4A0302442F13F3440AEB030088
:102A000087F30E07194B1A4D53F82160521007FB3C
:102A100002F2C7F58047921306FB07F702EBA737D0
:102A2000029A43F821700EEB0B06504444F82160E3
:102A300045F8217044F8220005B0BDE8F08F00BFD2
:102A4000245D0020A8660020EC700220846B022028
:102A5000D458FF1F545B0020805C00202C7AFF1F9D
:102A6000D089FF1F3C88FF1F607AFF1F7C76022001
:102A7000EC7DFF1FE064FF1F441C0400D084FF1F97
:102A8000285D0020646B0020044B054A1968054B43
:102A900052F8212053F82230184700BF846B0220DF
:102AA0005C88FF1F44DB0300924B93491B789348DB
:102AB0002DE9F04FDFF864920C7819F80320DFF865
:102AC0006082DFF860E206685201E70058F8021001
:102AD0003A1B04EB820283B00A4404EB440B4FEA36
:102AE0004B010B4401915EF822208549126851F890
:102AF000230002FB00F0834B834A1D68DFF828C2E5
:102B0000824B5FFA85FB001112F80B205EF8222041
:102B1000D2F800A05CF82620BAF1000FD4BF002143
:102B200001210BEB810100EB02108AEAEA72A2EBB1
:102B3000EA7253F8211031FB02F37549C2F5FF42E6
:102B40007F3251F8251031FB02F1DFF8E0A10B4490
:102B500083EAE371A1EBE3715AF8253089100B4445
:102B600093EA430B4CBFC3F100421A464FEA624B53
:102B70000BFB0BF2D212C2F5C0320BFB02F2DFF8F4
:102B8000B0B19BF800B019F80B904FEA49193F1B00
:102B900058F8098004EB8707019C47445C44A3462E
:102BA0005EF82740564F246857F82B7004FB07F453
:102BB000B71C5CF8277004EB072484F31804DFF8D3
:102BC00074E1544FDFF87081DFF8709176444FEA7A
:102BD000245EB6780EF1010C06EB0616B4445214CE
:102BE000764400FB023257F82CE057F82670D20DDD
:102BF0000B443EF912B037F912C0C8F80070C4F3A4
:102C00000F12C2F57F4602FB0BFBFF3693EA430827
:102C10001C464FEA2B4B06FB0CFC48BFC3F100449B
:102C2000C9F800E00BEB2C4C641404FB04F84FEAE9
:102C3000E828C8F5C03804FB08F4641400FB043429
:102C4000E40D0B443EF9148037F9149002FB08F8A8
:102C50004FEA284406FB09F804EB2848E04493EACD
:102C6000430C1C4648BFC3F10044641404FB04FC3D
:102C70004FEAEC2CCCF5C03C04FB0CFC4FEA6C4C4E
:102C800000FB0C3C4FEADC5C0B443EF91C4037F97E
:102C90001C104AF8253002FB04F4241406FB01F151
:102CA00004EB2141884493EA43011C4648BFC3F129
:102CB0000044641404FB04F1C912C1F5C03104FBE3
:102CC00001F4641400FB0430C00D134B3EF91040B6
:102CD00037F9101002FB04F2121406FB01F602EBA6
:102CE0002646B0444FEAA80643F8256003B0BDE885
:102CF000F08F00BF245D0020A8660020846B0220B6
:102D0000D084FF1FEC700220D089FF1F3C88FF1F7A
:102D10002C7AFF1FB460FF1FEC7DFF1F441C0400D2
:102D2000E064FF1FD458FF1F607AFF1F545B002030
:102D3000285D00207056FF1F2886FF1F5873022051
:102D4000684A694B69492DE9F04F1468DFF8C0E122
:102D5000E2B29B5C5EF823301B68002BD4BF0020DE
:102D6000012002EB8002002BB8BF5B4251F8220029
:102D700030FB03F15E4AC3F5FF437F3352F8240072
:102D800030FB03F05B4B5C4D1E785C4AAF5D127804
:102D90005B4BDFF880C1DFF880917F01C2EBC20A94
:102DA00053F80780D9F8007002EB8A0AD04402EB8E
:102DB0004202520008445EF8288016440028B8BF3A
:102DC0004042D8F800105CF8266001FB06F14D4E39
:102DD00007F1020856F8286001EB062181F318017B
:102DE000494EDFF838B13678DFF8349115F80680AF
:102DF0000BEB07054FEA4818AD7853F80830DFF8B9
:102E000024814FEA215B9A4405EB051532440BF10E
:102E10000106AB4435445EF82A30DFF80CE159F87E
:102E20002B6059F825501B685CF82220C8F8006018
:102E3000C1F30F11CEF8005003FB02F3334A52F8EE
:102E4000272002EBE30383F31803DB0150FB03F3BA
:102E5000DFF8D8E0DFF8D8C05EF824201F183A4425
:102E60004EF8242004F10408C31A5EF828703B448D
:102E70004EF8283004F10808DB0D5EF8287036F9AA
:102E800013A035F913B0D20D3844C70D36F912909E
:102E900036F9173035F9122035F917504EF8280059
:102EA0004FEA69094FEA6A0AC9EB6202CAEB6B0B87
:102EB0005B1001FB02F201FB0BFBC3EB650501FBA1
:102EC00005F109EB22490AEB2B4A03EB2143CA44E3
:102ED000534445F2555101FB03F3DB134CF8243006
:102EE000BDE8F08FEC700220D089FF1F3C88FF1FE7
:102EF0002C7AFF1F285D0020441C0400A8660020D7
:102F0000E064FF1F607AFF1F245D0020805C0020CA
:102F1000D458FF1FD084FF1F846B02207056FF1F00
:102F2000B460FF1F2886FF1F58730220545B0020E7
:102F3000EC7DFF1F8B4A8C4BDFF860C28B492DE97B
:102F4000F04F1568EAB287B09B5C5CF823301B68D1
:102F5000002BD4BF0020012002EB8002002BB8BF61
:102F60005B4251F8227037FB03F7DFF83492C3F568
:102F7000FF437F3359F8252032FB03F37C4ADFF807
:102F8000248214787B4A18F804607B481278DFF8B2
:102F900018B20095760150F8255001955BF806604F
:102FA0007649C2EBC20502EB85052E4402EB4202D4
:102FB00052005CF826601444366851F8244006FB41
:102FC00004FE6F4E6F4C3678246818F80680324441
:102FD0004FEA481851F82210009A5BF80880161D35
:102FE000454459F826905CF8255050F826202D6865
:102FF000CE444FEAAE0E05FB01FA634D04F1020C1C
:1030000055F82C500AEB052585F318055F49DFF8C4
:103010009CC13B44002B0C44B8BF5B420199A7788C
:103020009B10C9184FEA255828BF002272445C182B
:1030300007EB071708F101090191B9444FEAD25192
:1030400028BF00220291724413EB040B49464FEA59
:10305000D25A28BF0022474413EB0B0902EB0E03A0
:103060005CF8212001995CF82770DFF844C14FEA31
:10307000D3584FEA915128BF00239E4440F826E0E0
:103080003CF91160029903964FEA9B5B32F911609B
:1030900037F9111001913CF91B100291009932F996
:1030A0001A3040F82190A40D4FEA99513CF9144090
:1030B0003CF911000494C5F30F1537F91AA00590D7
:1030C000C5F57F44049832F91810FF3404FB0AFC5C
:1030D0004FEADE5E4FEA600A019832F91E9037F936
:1030E0001EB037F918E004FB00F8039805FB03F362
:1030F00005FB06F605FB01F11B1405FB09F54FEA7C
:103100006009029803EB2C43361404FB0EFE0AFB05
:1031100003F306EB28464FEA600A0914059804FBFE
:103120000BF401EB2E41DB1309FB06F62D1405EB26
:10313000244503EBE6360AFB01F94FEA600C144C18
:103140001449154B27600CFB05F006EBE93909EB38
:10315000E030009C1A60401041F8240007B0BDE840
:10316000F08F00BFEC700220D089FF1F3C88FF1F4A
:10317000245D0020A8660020545B0020D084FF1F3F
:10318000285D0020846B0220607AFF1F7056FF1FAD
:103190002886FF1FEC7DFF1F58730220D458FF1FA5
:1031A0002C7AFF1F441C0400E064FF1FB460FF1F63
:1031B000146B0400044B054A1968054B52F8212092
:1031C00053F82230184700BF846B02205C88FF1F31
:1031D000308C0300524A534B106853492DE9F04F8D
:1031E000C2B2524F9B5C57F823301D68002DD4BFEC
:1031F0000024012402EB840285EAE57383B0A3EB8B
:10320000E57351F8221031FB03F1DFF848C1C3F533
:10321000FF437F335CF8202032FB03F3444A194418
:103220000029145CB8BF49420191002C6FD1414C78
:1032300054F820300199012515543F4ADFF81891C0
:1032400016783E4A19F806A01278DFF81081DFF8E8
:1032500010E14FEA4A1AC2EBC20558F80AA002EB85
:103260008505AA4402EB4202520057F82AB01644E0
:1032700001EB030A44F820A0DBF800305EF826607A
:1032800003FB06F32E4E96F800B019F80B6076019A
:1032900000F1040958F806805CF82960454401EB08
:1032A000060C934454F8292057F8255063449E187F
:1032B00044F829602B685EF82B2003FB02F2214BB7
:1032C000DFF8A0C01F68204D00F1080E023754F847
:1032D0002E305CF8277003EB8707F60D4FEADA53C0
:1032E0003944114444F82E1035F9132035F91630BD
:1032F00002FB03F3C90DDB1335F9112003FB02F3C5
:10330000124ADB1342F8203003B0BDE8F08F094CBD
:103310000F4D54F8203055F820509D428AD88CE744
:10332000EC700220D089FF1F3C88FF1FD458FF1F7C
:10333000B0750220545B0020245D0020A8660020A8
:10334000285D0020846B0220E4AD0300EC7DFF1FAC
:103350003C78FF1F2C7AFF1F441C0400E064FF1F11
:10336000D084FF1F805C0020524A534BDFF878C1A5
:1033700052492DE9F04F1468E2B283B09B5C5CF8CF
:1033800023301D68002DD4BF0020012002EB8002F5
:1033900085EAE573A3EBE57351F8220030FB03F0F7
:1033A000DFF84891C3F5FF437F3359F8242032FBFF
:1033B00003F3434A434E115D18440028B8BF40420E
:1033C000019000296DD156F824500198012313551E
:1033D0003D4BDFF81CE193F800A03C4A1EF80A10B0
:1033E00012783B4BDFF80C814901C2EBC2075958F8
:1033F00002EB870707EB010B02EB420251008A4404
:103400005CF82B2058F82AA01268054446F824508E
:1034100002FB0AF2DFF8E0A09AF800A01EF80AB05A
:1034200004F1040E4FEA4B1B59F82E9053F80B3061
:103430001F4400EB0903134456F82E205CF8277054
:103440005144134458F821103A6846F82E3002FBD4
:1034500001FC204A2049D2F80090204A204FED0D6F
:1034600004F1080E31F915A009F1020503EBCA3386
:1034700052F8255056F82E20DB0D02EB850531F968
:10348000132003462B441846604400EBC232D20D91
:1034900046F82E0031F9123047F8243003B0BDE869
:1034A000F08F104B56F8245053F82430AB428CD890
:1034B0008EE700BFEC700220D089FF1F3C88FF1F01
:1034C000B0750220545B0020245D0020A866002017
:1034D000E064FF1F846B0220E4AD0300805C0020E9
:1034E000EC7DFF1F3C78FF1FD458FF1F2C7AFF1F75
:1034F000441C0400D084FF1F285D0020624A634BF7
:10350000116863482DE9F04FCAB2DFF8B0E19B5C67
:103510005EF823301D68002DD4BF0024012402EB87
:10352000840285EAE57383B0A3EBE57350F82200CB
:1035300030FB03F0DFF88881C3F5FF437F3358F891
:10354000212032FB03F3534A534D545C0344002BB8
:10355000B8BF5B420193002C40F08C8055F82140AD
:10356000019B012050544D4ADFF858A117784C4A6E
:103570001AF807001278DFF85091DFF850C14001C7
:10358000C2EBC20659F8000002EB860606EB000B00
:1035900002EB4202500007445EF82B205CF82770D3
:1035A00012681C4445F8214002FB07F23D4F97F892
:1035B00000B01AF80B707F0101F1040A59F8079066
:1035C00058F82A704E4403EB070855F82A305EF885
:1035D0002660834408EB0200C71832685CF82B00B1
:1035E00045F82A7002FB00FC2F4A30481268304E22
:1035F00001F1080E023255F82E3050F82200E40D89
:1036000003EB8000019B36F9142003446344D0038C
:103610001C183844E40DC00D45F82E3036F9100062
:1036200036F9143003FB00F393EA430048BFC3F1BB
:1036300000435B1403FB03F0C012C0F5C03003FB72
:1036400000F35B14DB0002FB03F393EA430248BF81
:10365000C3F100435B1403FB03F2D212C2F5C03284
:1036600003FB02F3134A5B14DB0042F8213003B082
:10367000BDE8F08F104855F8214050F82100A042D5
:103680007FF671AF6CE700BFEC700220D089FF1F9E
:103690003C88FF1FB0750220545B0020245D002091
:1036A000A8660020285D0020846B0220805C00203A
:1036B000E4AD0300EC7DFF1F3C78FF1FD458FF1FD3
:1036C0002C7AFF1F441C0400E064FF1FD084FF1FFE
:1036D000614B624A62492DE9F04F1C68614DE3B2CB
:1036E000D25C55F822201668002ED4BF002001209D
:1036F00003EB800386EAE672A2EBE67251F82370D0
:1037000037FB02F7584BC2F5FF427F3253F82430A3
:1037100033FB02F2554BDFF8709193F800E0544B05
:1037200019F80E001978DFF86481524E524BDFF819
:1037300060C140013A4458F800B01F6856F8243080
:10374000C1EBC10001EB8000834401EB4101490062
:1037500082EAE27AAAEBE27A8E4455F82B205344AF
:1037600046F8243012685CF82E6002FB06F2DFF89F
:1037700024E1BE1C5EF8266002EB062282F31802EA
:103780003E4E367819F806904FEA4919314458F8F8
:1037900009605CF821C03044C2F34F1655F8201080
:1037A000096801FB0CF55EF827106D1005EB01258B
:1037B000A5F310253249DFF8E0E011F827704FEA51
:1037C000C70C520D0CEB0700104419093EF810000D
:1037D00001FB00F090EA400848BFC0F100404014EF
:1037E00000FB00F84FEAE828C8F5C03800FB08F0F5
:1037F000674401323A4440143EF8122001FB02F2C1
:1038000092EA420148BFC2F10042521402FB02F1A7
:10381000C912C1F5C03102FB01F2C0EB624206FBE6
:1038200002F200EB224093EA430248BFC3F1004397
:103830005B1403FB03F2D212C2F5C03203FB02F3A6
:103840005B14C01A05FB00F003EB20430D4ADB00BC
:1038500042F82430BDE8F08FEC700220D089FF1FC1
:103860003C88FF1FD458FF1F2C7AFF1F285D0020C3
:10387000A8660020545B0020846B0220245D002099
:103880005C88FF1FEC7DFF1F441C0400E064FF1FE9
:10389000D084FF1F607AFF1FF0C50300724A734B8C
:1038A000106873492DE9F04FC2B2724F9B5C724CA5
:1038B00057F8233085B0051D1E68039554F8255030
:1038C0000295002E54F820500195D4BF0025012503
:1038D00002EB850286EAE67300F1080EA3EBE673BD
:1038E00051F8222032FB03FB644AC3F5FF437F33C8
:1038F00052F8202032FB03F3614ADFF89CA192F8D2
:1039000000C060491AF80C200978DFF89091DFF8C0
:1039100090815D4D5201C1EBC10659F802202D681E
:1039200001EB8606324401EB41015B44490057F844
:1039300022208C44002BB8BF5B420093126858F8D9
:103940002CC002FB0CF2DFF85CC15CF8253052128F
:1039500002EB530282F30F02DFF84CB1009B9BF89D
:1039600000B01AF80BA04FEA4A1A594459F80A90C5
:1039700058F821104E444FEA634857F8266002FB7E
:1039800008F7366802EBE72206FB01F1AF1C49128B
:103990005CF8276001EB560181F30F013B4EDFF825
:1039A0000CC13B4F5CF825C0354457F82C602D798D
:1039B00057F825701D4607FB03F754F82E3003EB2C
:1039C000171797EA470301FB08F806FB05F54CBFFC
:1039D000C7F1004CBC4601EBE8212D094FEA6C4CC5
:1039E0000CFB0CF6F612C6F5C0360CFB06FC029B6F
:1039F0002B441D461E464FEAAC3C95EA450301FBAD
:103A00000CFC48BFC5F100464FEAEC0C761406FBEF
:103A100006F1C912C1F5C03106FB01F6B613009BD1
:103A200002FB06F203EBE203019A6344134493EAB8
:103A30004302194648BFC3F10041491401FB01F29A
:103A4000D212C2F5C03201FB02F1124A44F8203012
:103A5000039B891344F8235042F8201044F82E7039
:103A600005B0BDE8F08F00BFEC700220D089FF1FC9
:103A70003C88FF1FD458FF1F545B00202C7AFF1F87
:103A8000245D0020A8660020846B02207056FF1F72
:103A9000D01E0600EC7DFF1F441C0400E064FF1FE5
:103AA000D084FF1F607AFF1F285D00205C88FF1F05
:103AB000784A794B1168DFF810C278482DE9F04F49
:103AC000CAB2DFF808829B5C58F821405CF82330CA
:103AD0001B6883B0002B25460194D4BF0024012429
:103AE00002EB840283EAE37BABEBE37B50F822300A
:103AF00033FB0BF3CBF5FF4B0BF17F0B35FB0BFBD4
:103B0000674ADFF8CCA192F800E0664A1AF80E6026
:103B10001278DFF8C09164487601D50059F8067034
:103B20000095AE1A02EB8606374403EB0B0550F8FE
:103B300021405CF8277002EB420685EAE5737600C7
:103B4000A3EBE5732344B6443C68584F40F821305A
:103B500057F82E7004FB07FB01F1040E58F82E40B5
:103B600050F82E7004EB8B04274497EA47053C4637
:103B700048BFC7F1004440F82E70641404FB04F7FA
:103B8000FF12C7F5C03704FB07F7494C474D94F8BF
:103B900000B0009C1AF80BA04FEA4A1AA41A59F870
:103BA0000A9002EB84044C445E445CF8244055F8CF
:103BB000266024687F14BF0004FB06F93D4CDFF843
:103BC00018B1246801F1080604F1020A50F82650E1
:103BD0005BF82A4005EB441404EB8904A14640F845
:103BE000264099EA490448BFC9F100494FEA6949AA
:103BF00009FB09F4E412C4F5C03409FB04F4DFF84E
:103C0000DCA0DFF8DC904FEA136B64143AF81BA0D9
:103C100007EB840759F821404FEA6A0A0AFB07F7C5
:103C2000A3424FEAA737244C01D3635C5BBB234B11
:103C3000009D1B78DFF8ACA0AD1A3AF913A002EB97
:103C4000850555441E4A5CF8255032F91320DFF8EB
:103C500098A02B6802F5806200254FF0010C40F817
:103C60002E505B013AF9122004F801C040F82650AA
:103C700003FB02F3D8F8002033FB12F3019A02EBA6
:103C8000830349F821300F4B7F1043F8217003B0B4
:103C9000BDE8F08FEC700220D089FF1F3C88FF1F29
:103CA000245D0020A8660020545B0020D084FF1F04
:103CB000285D0020846B0220B07502204471022030
:103CC000885DFF1FEC7DFF1FD458FF1F2C7AFF1F5C
:103CD000441C0400E064FF1F805C0020E06F0300D0
:103CE0003C78FF1F305DFF1F602B0600044B054A28
:103CF0001968054B52F8212053F82230184700BFAD
:103D0000846B02205C88FF1FEC6604002DE9F04FF5
:103D1000434A444B1578444E1A68444FDFF83081CB
:103D200056F82260424B18F80500424C1978424B75
:103D3000DFF820B1DFF820E1DFF8209183B0400107
:103D4000019657F8226004FB06FA3C4ECC0030582E
:103D500059F82260C1EB040C534401EB8C0C47F87A
:103D6000223084441B0CA3F5FF435BF82C70DFF872
:103D7000F0C07F3B4EF8223001EB4100D7F800A0A5
:103D8000019F4000374405442D4E49F822705CF8ED
:103D9000255037680AFB05FA2A4EBD1C83EAE379F1
:103DA00056F825502D09C5F5FF457F35A5EB6A3A34
:103DB000254D2D7818F80580A9EBE379CA454FEA1F
:103DC0004818C1EB04091D4C54F8088001EB890127
:103DD000414484BF00234EF8223028445BF8211070
:103DE0005CF82000096801FB00F156F827008912F1
:103DF00001EB900181F30E01144D55F82240C1F5FD
:103E0000804003FB01F3991304FB00F301EBA333A0
:103E100045F822304EF8223003B0BDE8F08F00BFE5
:103E2000285D0020EC7002202C7AFF1F8455FF1FB4
:103E3000A86600203584B30B6B631936E064FF1F5E
:103E4000846B0220607AFF1F245D00207C760220B4
:103E5000441C0400D458FF1FEC7DFF1F545B00205E
:103E6000D084FF1F4D4BDFF86CC11B784C4A1CF807
:103E700003004C49127809682DE9F04F4001DFF842
:103E800058E1494E5EF8004056F82100474FD500F2
:103E9000AE1A02EB8606264402EB420457F826705F
:103EA00064001E1983B03B68414F019457F82660A7
:103EB00003FB06F33F4E404FD6F800A03F4E0AF1F9
:103EC000020901F1040857F8297056F828405B13DD
:103ED00003EB573356F82170C71904FB037398425C
:103EE00046F821303FD8DFF8F4B0354E019C3678E3
:103EF0001CF806707F01C2EB050C5EF80750314FCD
:103F000002EB8C0226442A44284CDB0D54F8222074
:103F100037F913401368264AE41052F8262003FBB1
:103F200002F3294A52F82A2002EB632304FB03F32D
:103F3000C0F100401B1353FB00F02044430493EAFC
:103F4000804248BFC3F100435B1403FB03F2D2126B
:103F5000C2F5C03203FB02F35B14DB004BF82130E7
:103F600003B0BDE8F08F194C194F54F82140DFF829
:103F70007090DFF868B007FB04F7B9444FEA1947BF
:103F8000A7F5FF47114C7F3F44F821904FEAA7095E
:103F900046F828904BF82170A7E700BF285D002065
:103FA000A8660020EC7002202C7AFF1FD458FF1F57
:103FB000D084FF1F846B0220805C0020545B0020B3
:103FC000245D0020E4AD0300607AFF1F8455FF1FCD
:103FD0003584B30B441C0400E064FF1FEC7DFF1F1D
:103FE0006B6319362A4A2B4B10682B4953F8202053
:103FF00051F8203013449A42F0B541F8203041D9AD
:10400000264E274B56F82010264A274C274D03FBF7
:1040100001F31A44110CA1F5FF417F3946F8202025
:1040200044F82010224B234E1A78234BB65C1B78A1
:10403000224FDFF898E07601BF59C3EBC30603EBCC
:1040400086063E4403EB430302EB43035EF826205F
:104050001B4E126856F8233002FB03F2194E1A4B1E
:10406000366853F82630921302EB931383F30B0355
:10407000C3F5806301FB03F39B1245F8203044F83D
:104080002030F0BD094D084C55F82010CAE700BF9C
:10409000EC7002202C7AFF1F545B00208455FF1F18
:1040A0003584B30B6B631936EC7DFF1F7C760220E1
:1040B000245D0020441C0400A8660020E064FF1F6B
:1040C000D084FF1F846B0220607AFF1FD458FF1F2B
:1040D0006C4B2DE9F04F18686B4CDFF8D8A154F801
:1040E00020305AF8206087B033449E42039344F84E
:1040F000203000F2A78000F1080300F1040C634AAD
:10410000059354F8233054F82C10029352F82020D1
:104110005F4B019104935F49DFF89C910F785E49F2
:1041200019F807E009785D4BDFF890B1DFF890816E
:104130004FEA4E1EC1EBC10553F80EE001EB8505B9
:10414000AE4401EB410149000F445BF82EE058F802
:104150002770DEF800E00EFB07F7DFF868E1504B50
:10416000DEF800E00EF1020E53F82EE00EEB6727AA
:1041700002FB07F757FB06F64A4A484B12785AF8F3
:104180002C7019F802E04FEA4E1E114453F80E202D
:1041900058F8211015445BF82520156805FB01F23D
:1041A00007EB8202019B16441E4405FB01F1029BB2
:1041B00007EB81071F4496EA4603314648BFC6F124
:1041C0000041491401FB01F2D212C2F5C03201FBD9
:1041D00002F297EA4703394648BFC7F1004152143B
:1041E000491401FB01F5ED12C5F5C03501FB05F1E0
:1041F000A2EB614202F30E0202FB02F1039BC91320
:1042000002FB01F102EB6202A2EBA13293EA43014D
:1042100048BFC3F100435B1403FB03F1C912C1F5AE
:10422000C03103FB01F35B1402FB03F3049A44F86F
:104230002C609B1242F82030059B44F8237007B095
:10424000BDE8F08F184F194D57F820201849104B32
:10425000DFF838E0049305FB02F211440A0CA2F5E2
:10426000FF427F3A43F8202000230293019300F19C
:10427000080347F820104EF8202000F1040C0593A5
:1042800049E700BFEC700220545B00207C760220DE
:10429000EC7DFF1F285D0020A8660020E064FF1F62
:1042A000607AFF1F245D00208455FF1F3584B30B07
:1042B0006B6319362C7AFF1F441C0400D458FF1F6F
:1042C000D084FF1F846B02204F4A504B5049DFF8C7
:1042D00068C109782DE9F04F1C6892F800E04D4E56
:1042E000DFF8588156F8240018F80E504A4B4B4A14
:1042F000DFF84C914A4F03FB00226D0146F8242061
:10430000C1EBC1065CF805504648474B57F824708E
:1043100001EB8606120C01EB41014900A2F5FF42B8
:1043200006EB050A0EEB010B7F3ADFF818E140F8C7
:10433000242059F8240053F82A205EF82BA0DFF837
:1043400008B11268C51949F82450DBF8005002FB87
:104350000AF2364F57F82500520102EB803282F301
:104360001E02DFF8E89099F8009018F809804FEAEB
:10437000481849445CF808C05EF8211066445200B1
:1043800053F826301B6803FB01F10235082957F862
:104390002530D4BF0021012101EB430181F311013C
:1043A000234EE4B2C1F5223156F82430B73149002A
:1043B000DD0355FB11F11B4850F824505F00691ACA
:1043C00052FB17F51B4F57F82400054447F82450BB
:1043D0004D1B52FB15F2134446F8243003F30E0331
:1043E00003FB03F1C91303EB630203FB01F3A2EB2D
:1043F000A3334FF2584202FB03F30A4ADB1342F89D
:104400002430BDE8F08F00BF245D0020EC70022056
:10441000A86600208455FF1F3584B30B6B631936E3
:104420002C7AFF1FEC7DFF1FD458FF1F607AFF1FFF
:104430006C80FF1FB05C0020E064FF1F441C040080
:10444000545B0020D084FF1F846B0220285D002075
:104450003D4BDFF81CC13D4A3D4910683D4A2DE9FE
:10446000F04F1C783C4B1CF80460DFF808911B7877
:10447000DFF804E159F82070DFF80081DFF800A1CF
:104480007601C3EBC3055EF8066001FB07FB03EB97
:10449000850503EB430359005A442E442F4F49F836
:1044A00020200C44DFF8DC9057F826605AF82030C2
:1044B00058F8207059F824B0294C366824683B44D9
:1044C00048F8203006FB0BF6DFF8BC8058F82430A3
:1044D00003EB6623A3F35006224B1B781CF803C0A2
:1044E0004FEA4C1C0B445EF80C1059F823E01B4BB0
:1044F0000D4453F825301B6803FB0EF3A11C58F83C
:10450000211001EB6324A4F35014110CA1F5FF4317
:104510007F3B002BC6F5FF41134D03FB06F2B8BFEE
:1045200064427F3104FB01F3D21355F8201002EBF3
:10453000E3330B4403F30F030C4A45F8203042F8F1
:104540002030BDE8F08F00BF245D0020EC70022019
:104550003584B30B6B631936A8660020D458FF1F4F
:10456000846B0220285D00209079FF1FEC7DFF1FE7
:10457000441C04008455FF1FE064FF1F545B0020AF
:104580002C7AFF1FD084FF1F607AFF1F784B794A77
:104590007949DFF814C22DE9F04F1E78774B945D0E
:1045A000774A1B781268DFF804B251F82200DFF86E
:1045B00000A287B0640103905BF80470C3EBC300F2
:1045C00003EB80000744141D03EB43035B0002F17F
:1045D000080E06EB030851F824505AF8276004959A
:1045E00051F82E5036685CF82870059506FB07F5E3
:1045F000644E019596F800805E4DDFF8B89115F88D
:10460000086059F82270604D760105FB07F55BF8EC
:1046100006705E4E38442E44350C5AF820A05C4F8C
:104620005C4849F82260A5F5FF4BABF17F0B019D7B
:1046300057F8247040F822B04344AE105CF823C011
:10464000DAF8003006EB271703FB0CFC524B534EF5
:104650001B6802338BEAEB7556F82360360AC6F501
:10466000FF437F33A5EBEB75A3EB6C43AB424C4EA2
:104670005AD2B35C002B4BD0B3181D79002D46D015
:104680001B7A002B72D0039D3D44B5F1005F84BFBF
:104690000023B35406EB020C9CF80430002B4DD1E0
:1046A00006EB020C049B9CF80860002E55D1059E79
:1046B00041F82250DFF800C141F82430394F41F869
:1046C0002E60C3F34848DB0C3CF9184037F913302F
:1046D000C5F34841ED0C04FB03F4C6F34843F60C64
:1046E0003CF911E037F915103CF9135037F9163041
:1046F000E4130EFB01F104EBE13105FB03F301EBE5
:10470000E3339B1040F8223007B0BDE8F08F01235F
:104710009B00F5180DF1180C63444FF0010C05F8DF
:1047200002C0002543F80C5CB35C002BABD106EB58
:10473000020C039D9CF80430002BB1D0049B3B4439
:10474000B3F1005F84BF4FF000088CF8048006EBE3
:10475000020C9CF80860002EA9D0059E3E44B6F1DC
:10476000005F84BF00278CF80870A1E70223CFE721
:10477000245D0020441C0400545B0020A866002037
:10478000EC700220285D00203584B30B6B63193672
:104790002C7AFF1FEC7DFF1F846B0220607AFF1FC5
:1047A00050710220146B0400D084FF1FE064FF1FCF
:1047B000D458FF1F8455FF1FE4AD0300704700BFAE
:1047C00038B5054CA4F1F0052046103C21F094F8D2
:1047D000AC42F9D138BD00BF4C80FF1F38B5054C45
:1047E000A4F16005103C204621F086F8AC42F9D1D6
:1047F00038BD00BFE85B0020F8B5094A094F0A4DF3
:104800000A4E0B490B48002301243B7033702B7078
:10481000147021F0BFF8084A084B14701C70F8BDE2
:10482000287EFF1FEC730220E86B02206980FF1FC7
:104830007C98030090660020606B0020DC700220F2
:1048400008301AF019BA00BF00B583B002AB0122DC
:1048500003F8011D083019461AF00EFA03B05DF88E
:1048600004FB00BF38B5044600F10805D4F8B430A5
:10487000284698474FF6FD73984201D9012038BD6C
:104880000346B4F8BA20B4F8B810284618F05CFB18
:1048900094F89030032BF1D8DFE803F0140E0802EF
:1048A000B4F8BA30181AA4F8BA00E7E7B4F8B83088
:1048B000181AA4F8B800E1E7B4F8BA301844A4F81C
:1048C000BA00DBE7B4F8B8301844A4F8B800D5E76C
:1048D00010B5044620F0D6FC204610BD30B5134B71
:1048E00089B005460C4604A811491D7020F030FF20
:1048F0002146684620F084FF694604A821F0C2F8EA
:1049000001460C4821F016F8684620F0F5FF04A88F
:1049100020F0F2FF084B094A1B780121AB421170CD
:1049200002D1074B64011C6009B030BD7888FF1FBD
:104930008898030090660020F062FF1F606B0020E3
:1049400078760220F0B50129154602BF254B6A0191
:104950001A60254B0C46997918BF5201A14204BF39
:1049600022490A60D979A14204BF20494A60197AD4
:104970005B7AA14204BF1D498A60A3428DB008BF83
:104980001A4B1B4908BFDA60064604A820F0E0FE77
:104990002146684620F034FF694604A821F072F8E9
:1049A000144921F0AFF82946074608A820F028FF4F
:1049B00008A9384621F066F801460F4820F0BAFFF2
:1049C00008A820F099FF684620F096FF04A820F080
:1049D00093FF0A490A4A0B4B0C70012111701E709B
:1049E0000DB0F0BD947102207064FF1F045D0020C3
:1049F0008C98030094980300906600203C5B002094
:104A0000606B00207888FF1F08301AF0E9B800BFFB
:104A10000D4B1B787BB10D4A0D4910680A6810B424
:104A20000C4C2368821A0133B2F5FA6F236003D865
:104A30005DF8044B08607047002BF9D0064C074B1B
:104A4000246843F82420F3E7B180FF1F6C79FF1F2F
:104A5000EC5D0020FC85FF1F6480FF1FC0720220F8
:104A6000274B1A78002A43D0F0B4264B264E1868FC
:104A70003168264B8842186004D9254C23680344CA
:104A80005B1A2360234D244C2B782178306001334E
:104A90000131DBB2C9B2052B21702AD8022B2B7051
:104AA0008CBF002201221D4920780B781C4C1D4D23
:104AB000227022EA030317280A702B70164C16D9AD
:104AC00019490B780133DBB20022032B0B702270E3
:104AD0000DD90F4B154E164D164C17481F680A700E
:104AE0001A600221012337602A6021700370F0BC34
:104AF00070470F490B68002001330B602870D2E724
:104B0000287EFF1F6C79FF1F587AFF1FD489FF1F73
:104B10000886FF1F6980FF1FEC73022014720220B9
:104B2000185E0020D5720220505B00201856FF1F2F
:104B30001C78FF1FC889FF1F6880FF1F2DE9F04FF9
:104B40004F4BDFF858A193F800E00EF1FF315144CC
:104B5000002202E07F2A00F0908011F8010FD3B20A
:104B600001320028F6D07344DBB2464ADFF830C188
:104B7000157845491CF81520444F51F82200DFF8FC
:104B80002491DFF824816E0072193A444FFA83FBB6
:104B9000917889F802B0937002683D4810F91500C9
:104BA000CB1A02FB00F218BF0123002ABBBF5242FE
:104BB000D413D41364427444E4B2621E88F8023001
:104BC0005244002301E07F2B07D012F8011FD8B216
:104BD00001330029F7D00444E4B27319B444FA5CF9
:104BE0009CF80110FC542848294B50F8210033440C
:104BF00061B289F8001093F901C00368141B03FB2C
:104C00000CF318BF0124002BBDBF5B42DB135B42DA
:104C1000DB139E445FFA8EFE0EF1FF339A4488F850
:104C20000040002301E07F2B08D01AF8012FD8B2F2
:104C30000133002AF7D070445FFA80FE35442F44D8
:104C4000144B787887F801E04FFA8EF403EB81017A
:104C500003EB8B0203EB8403B0EB0E001D680E4BDD
:104C60000968126889F8014018BF012088F801001E
:104C700019605D609A60BDE8F08F734675E700BF0C
:104C80004C78FF1F8089FF1FD458FF1F8C710220B2
:104C90007C87FF1F04670020405B00204C5D0020E4
:104CA000305B0020F85C00208063002070B5104C61
:104CB0002378062B16D00E4605460146002020F02C
:104CC00011FD2478C4F10602C4F10704104145FA2D
:104CD00004F4031B981903D4A842A8BF284670BD4A
:104CE000002070BD0146BDE87040002020F0FABCF5
:104CF000DC5BFF1F70B502788AB000232F2A8DF885
:104D000004308DF805301BD00246002301A8144959
:104D100019F0CEFC064660B19DF8043013F0700324
:104D20000AD001AC0FCC0E4D0FC50FCC0FC52368B8
:104D30002B6030460AB070BD1E4630460AB070BDCA
:104D40004378002BE0D1064819F03AFC054901F2FE
:104D50003C4019F02BFD064630460AB070BD00BF3E
:104D6000A87002206C6C0220704700BF2DE9F04152
:104D7000054625F005FD804638B31E4E04463746ED
:104D800001E0013C21D0D6F8B43015F8011B1A48D7
:104D900098474FF6FD739842F3D80346B7F8BA2008
:104DA000B7F8B810144818F0CFF897F89030032BE4
:104DB000E7D8DFE803F019130D02B6F8BA30013C6A
:104DC000A3EB0000A6F8BA00DDD14046BDE8F081B3
:104DD000B6F8B830181AA6F8B800D2E7B6F8BA3064
:104DE0001844A6F8BA00CCE7B6F8B8301844A6F8CC
:104DF000B800C6E76077FF1F6877FF1F10B504464D
:104E000025F0BEFC014620461FF0ACFF04460248D8
:104E100020F000FB204410BDDC6CFF1F2DE9F047A3
:104E20001546002A4ED004460F46DFF89C90002617
:104E300000F108084FF6FD7A03E00120013D064429
:104E400025D0236817F8011B1B684B4537D1D4F8D0
:104E5000B430404698475045EFD80346B4F8BA20DE
:104E6000B4F8B810404618F06FF894F89030032B5F
:104E7000E3D8DFE803F01D160F02B4F8BA30181AB1
:104E8000A4F8BA00013D4FF001000644D9D13046E4
:104E9000BDE8F087B4F8B830181AA4F8B8000120BB
:104EA000CCE7B4F8BA301844A4F8BA000120C5E73A
:104EB000B4F8B8301844A4F8B8000120BEE7204682
:104EC0009847BBE71646E2E7654800004B4B4C4964
:104ED00093F800C04B484C4B2DE9F0474B4FD1F8AD
:104EE00000E017F80C2004681B784949DFF838A166
:104EF000484EBEF1000F4FEA421204F001000CBF11
:104F00004FF002094FF000098A588144C3EBC305F2
:104F100003EB8505404805EB020803EB43035AF811
:104F2000292040F824205A0056F828900CEB02085B
:104F3000DFF8F8C0D9F800305CF8288003FB08F3EC
:104F4000DFF8EC800EF1020E082B58F82EE0D4BFEB
:104F50000023012303EB4E0383F31103DFF8D4E0B6
:104F60009EF800E017F80E707F017244CF595CF88C
:104F700022103D4456F82520126802FB01F1274A11
:104F8000251D890052F82520521081FA82F181F303
:104F90001E01234DE4B2C3F5003355F8247003F22B
:104FA000E7339B014900BE0256FB13F350F824205F
:104FB0004FEA870ED61A51FB1EFE1A4A52F82430C9
:104FC000734442F82430F21A51FB12F1394445F887
:104FD00024109B1003F30E0303FB03F1C91303EB2F
:104FE000630203FB01F3A2EBA3334FF2584202FB2F
:104FF00003F3DB1340F82430BDE8F087285D002080
:10500000846B0220EC700220A8660020441C04007F
:10501000E064FF1FD458FF1FEC7DFF1F2C7AFF1F99
:105020006C80FF1FB05C002030720220D084FF1F14
:10503000607AFF1F245D00202DE9F84FC44BC5485E
:1050400003F12805294630F9022F141203F8014F05
:105050009D4201F8012FF6D1BF4BC04A03F1280051
:1050600032F8021F03F8011F9842F9D1BC49BD4B29
:10507000BD488E68CD68C3F8806091E890009C6759
:10508000DF670C694F698E69C3F88450C3F88840A4
:10509000CD690C6AC3F88C70496A0768B34AC3F8D3
:1050A0009060C3F8945046688568C3F89840C3F888
:1050B0009C10C4680169C3F8A0704769C3F8A85080
:1050C000C3F8AC40C3F8B010C3F8B470C3F8A46020
:1050D0008669C3F8B860C569046A476A566810688B
:1050E000C3F8BC50C3F8C0409568D468C3F8C47016
:1050F00083F8C8001769506983F8C960966983F816
:10510000CA5083F8CB40D569146A83F8CC7083F811
:10511000CD00576A906A83F8CE60D66A83F8CF5084
:1051200083F8D04083F8D17083F8D36083F8D2003D
:10513000106B83F8D400576B966BD56B146C506C66
:1051400083F8D57083F8D660976CD66C83F8D75007
:1051500083F8D840156D546D83F8D900906D83F8AD
:10516000DA7083F8DB60D76D166E83F8DC5083F855
:10517000DD40556E946E83F8DE00D06E7C4983F876
:10518000DF7083F8E15083F8E24083F8E30083F8AE
:10519000E060166F556F946FD06FD2F8807083F80F
:1051A000E46083F8E550D2F88460D2F8885083F840
:1051B000E64083F8E700D2F88C40D2F89000D2F8AD
:1051C00094E083F8E87083F8E960D2F89870D2F838
:1051D0009C6083F8EA50CA680D6883F8EB4083F856
:1051E000EC004C68886883F8EE7083F8EF6083F811
:1051F000F05083F8F14083F8F32083F8EDE083F872
:10520000F200086983F8F4004F698E69CD690C6A71
:10521000486A83F8F57083F8F6608F6ACE6A83F87F
:10522000F75083F8F8400D6B4C6B83F8F900886BEE
:1052300083F8FA7083F8FB60CF6B0E6C83F8FC5038
:1052400083F8FD404D6C8C6C83F8FE00C86C83F8CD
:10525000FF7083F8006183F8015183F8024183F8FD
:105260000301086D83F804014F6D8E6DCD6D0C6EDA
:10527000486E83F8057183F806618F6ECE6E83F8F1
:10528000075183F808410D6F4C6F83F80901886F4F
:10529000384A83F80A7183F80B61CF6FD1F88060C8
:1052A00083F80C5183F80D41D1F88450D1F888402F
:1052B00083F80E01D1F88C0083F80F7183F8106128
:1052C00083F8124183F8130183F81151D1F89050FB
:1052D000D1F89440D1F89800D1F89C10176856681E
:1052E00083F8145183F815419568D46883F8160142
:1052F00083F817111069516983F8187183F81961DF
:105300009769D66983F81A5183F81B41156A546A64
:1053100083F81C0183F81D11906AD16A83F81E710D
:1053200083F81F6183F8205183F8214183F822011B
:1053300083F82311116B106C566B956BD46B83F84B
:10534000241183F82801516C506D83F8256113E016
:10535000CF80FF1F865DFF1F1F81FF1F2E5DFF1F78
:105360008488FF1FD080FF1FE454FF1F8C68FF1F3D
:10537000205CFF1F105AFF1F83F82651966CD56CD6
:1053800083F8274183F82911146D916D83F82D015D
:10539000906E83F82A6183F82B51D66D156E83F8D1
:1053A0002C4183F82E11546ED16E83F8320102F134
:1053B000740083F8305183F8331183F82F6183F838
:1053C0003141146FDFF8349283F8344123C8D2F8A6
:1053D000804083F8350183F83611D2F88400D2F882
:1053E000881083F8375183F83841D2F88C50D2F8BE
:1053F000904083F8390183F83A11D2F89400D2F83A
:105400009810D2F89C2083F83D0183F83F211F4675
:1054100083F83B5183F83C4183F83E114A46002013
:1054200002F1080898E8005159F81010D2F804A0C9
:1054300056699569D46983F8481109124FEA2A2BF5
:1054400083F8401110304FEA282183F849A183F8EE
:1054500041B14FEA2C2A83F84A8183F8421183F83C
:105460004BC14FEA2E2B4FEA262829124FEA242C53
:10547000B0F5D87F83F843A183F84CE183F844B1B9
:1054800083F84D6183F8458183F84E5183F84611C6
:1054900083F84F4183F847C102F1200203F1100362
:1054A000BED14FF43C714B481FF05CFF49481FF0E0
:1054B000B1FF494B474819789A785C7887F8F01221
:1054C000DB7887F8F2224FF43D7187F8F33287F8E2
:1054D000F1421FF047FF3F481FF09CFF3F4B93E80E
:1054E0000300C7F8F402A7F8F8123A4840F2FA218C
:1054F0001FF038FF37481FF08DFF042138481FF098
:1055000031FC34481FF086FF364B32489D68D9681D
:105510001C6987F8025393E844005B6987F800230D
:10552000121287F8FA222A124FEA262E87F8016310
:1055300025120E1287F8FC2287F803131A1240F284
:10554000063187F8FBE287F8053387F8FF2287F8F2
:10555000FD6287F8044387F8FE521FF003FF1D48E1
:105560001FF058FF204B1B480CCB4FF4427187F8BB
:10557000062387F807331FF0F5FE16481FF04AFF91
:105580001A4ADFF87CE01A4B1A48117856781D78D1
:105590009EF800205C7887F8081303780D4887F898
:1055A0000C2340F20E3187F80D3387F80A6387F831
:1055B000095387F80B431FF0D5FE06481FF02AFF5A
:1055C00011210D481FF0CEFB0248BDE8F84F1FF037
:1055D00021BF00BFDC6CFF1F7850FF1F7056FF1FFC
:1055E000989803003085FF1F5C88FF1F305B002008
:1055F0007C87FF1F687FFF1FA0980300E064FF1FE8
:10560000B088FF1F4D4A4E4B4E491B68DFF864C1FE
:105610002DE9F04F1478DFF86091DFF860E159F878
:1056200023001EF80450484F484A494E1278DFF8CC
:10563000508107FB00116D0149F82310090C7759BF
:105640004448454DC2EBC209A1F5FF4102EB89096F
:105650007F3909EB070A40F8231058F823705CF8EB
:10566000231055F82AA002EB42025200394404EB01
:10567000020B3A4F48F8231057F82B40DAF8001085
:1056800001FB04F4191D5CF8211001EBC40484F340
:105690001E04334909781EF801E04FEA4E1E1144FA
:1056A00056F80E6057F82110B144640055F82920CF
:1056B000126802FB01F22B492B4D09680231082ABE
:1056C00055F82110D4BF0022012202EB410282F3DF
:1056D0001102264DDBB2C2F5093255F8237002F2F1
:1056E0000F329201BE0256FB12F250F823104FEA1D
:1056F000870E8E1A54FB1EFE1D4951F8232072445A
:1057000041F82320B11A54FB11F43C4445F82340DE
:10571000921002F30E0202FB02F4E41302EB6201A8
:1057200002FB04F2A1EBA2324FF2584101FB02F25C
:10573000D21340F82320BDE8F08F00BF245D002085
:10574000EC7002206B6319363584B30BA866002019
:10575000E064FF1FEC7DFF1FD458FF1FD084FF1FA4
:10576000285D0020846B0220607AFF1F6C80FF1F81
:10577000B05C00202C7AFF1F8455FF1F441C0400DE
:10578000545B0020544B554ADFF880C154482DE942
:10579000F04F1C78DFF87881D2F8009018F80430C8
:1057A000504A514F1168DFF86CB150F82150DFF8C2
:1057B00068A13BF81160DFF864E15B015FFA89F2F0
:1057C0005CF80330C2EBC20002EB8000034483B0FC
:1057D00057F8233002EB42021B68019352005AF83B
:1057E0002130013614442BF81160404E5EF82440FD
:1057F0001D444AF82150019B356803FB04F33C4EDD
:10580000AC1C56F8244003EB141303F30E04394B7D
:1058100053F82930A3F5006304FB03F39B1103F352
:105820000E03354C247818F804804FEA48182244B7
:105830005CF808405EF822E0204457F82020126807
:1058400002FB0EF256F82500D20002EB003282F382
:105850001E0203FB03F0C01303EB630403FB00F021
:10586000CDB2264F264E57F825E0264BA4EBA030AC
:105870004FF2584404FB00F0C01346F82100D20058
:105880004FEA8E2050FB13F056F825104FEA8E0396
:10589000081A52FB13FC1C4951F82530634441F8A7
:1058A0002530C11A52FB11F2724447F825209B1093
:1058B00003F30E0303FB03F1C91303EB630203FBC2
:1058C00001F3A2EBA33304FB03F3DB1346F825300B
:1058D00003B0BDE8F08F00BF285D0020A86600205F
:1058E0002C7AFF1FEC700220D458FF1F846B02201B
:1058F000607AFF1F9480FF1F245D00206C80FF1FD3
:10590000EC7DFF1F00307500B05C0020E064FF1FDD
:10591000441C0400C088FF1F545B0020D084FF1F7C
:105920005D4B5E4A5E481278DFF8A4C12DE9F04F66
:1059300093F800B0DFF89C91DFF89C8119F80B1008
:10594000584B594F1B68DFF894A1584C50F823006E
:10595000D50083B049012E46019558F80150B11A7F
:1059600002EB810157F823602944514D5CF8211066
:1059700005FB06FE02EB42056D00AB444D4E744440
:1059800056F82BB05AF8236047F82340DFF850E16F
:105990000968DEF800E006EB60004AF8230001FB2E
:1059A0000BF1DFF840A10EF1020BCE015AF82BA04B
:1059B00086EAE671A1EBE67101EBCA118C4266D270
:1059C0003B4E3A4906FB04F421440C0CA4F5FF4479
:1059D0004FEA106A7F3C384847F8231024B220F879
:1059E0001A403649019E0F78354819F807104901C9
:1059F000B61A58F8011002EB86020A4450F8231038
:105A00005CF822200C44641040F823403D442949AE
:105A1000126851F8251002FB01F22A4951F82E10A4
:105A2000520102EB813282F31E02274E274CDBB279
:105A3000520056F82350A90251FB14F750F82340A6
:105A4000A900E41B52FB11F7DFF89CE05EF823107D
:105A500039444EF82310641A52FB14F22A4446F8D3
:105A600023208A1002F30E0202FB02F4E41302EB7D
:105A7000620102FB04F2A1EBA2324FF2584101FB9A
:105A800002F2D21340F8232003B0BDE8F08F000EDD
:105A9000094931F91040A4E7285D0020A8660020DC
:105AA0002C7AFF1FEC7002208455FF1F6B631936A0
:105AB0003584B30BD084FF1F14690020245D0020BF
:105AC000EC7DFF1F607AFF1F6C80FF1F0074400099
:105AD000D458FF1F441C0400E064FF1F545B0020E7
